{
	"contracts/event.sol": {
		"EventContract": {
			"abi": [
				{
					"inputs": [],
					"stateMutability": "nonpayable",
					"type": "constructor"
				},
				{
					"inputs": [
						{
							"internalType": "address",
							"name": "eventAddr",
							"type": "address"
						},
						{
							"internalType": "string",
							"name": "eventName",
							"type": "string"
						},
						{
							"internalType": "string",
							"name": "eventLocation",
							"type": "string"
						},
						{
							"internalType": "uint256",
							"name": "eventStock",
							"type": "uint256"
						},
						{
							"internalType": "uint256",
							"name": "eventPrice",
							"type": "uint256"
						}
					],
					"name": "addEvent",
					"outputs": [],
					"stateMutability": "nonpayable",
					"type": "function"
				},
				{
					"inputs": [
						{
							"internalType": "uint256",
							"name": "",
							"type": "uint256"
						}
					],
					"name": "addrList",
					"outputs": [
						{
							"internalType": "address",
							"name": "",
							"type": "address"
						}
					],
					"stateMutability": "view",
					"type": "function"
				},
				{
					"inputs": [
						{
							"internalType": "address",
							"name": "eventAddr",
							"type": "address"
						},
						{
							"internalType": "uint256",
							"name": "amount",
							"type": "uint256"
						}
					],
					"name": "buyEvent",
					"outputs": [
						{
							"internalType": "address",
							"name": "eventAddress",
							"type": "address"
						},
						{
							"internalType": "string",
							"name": "eventName",
							"type": "string"
						},
						{
							"internalType": "string",
							"name": "eventLoc",
							"type": "string"
						},
						{
							"internalType": "uint256",
							"name": "eventStock",
							"type": "uint256"
						},
						{
							"internalType": "uint256",
							"name": "eventPrice",
							"type": "uint256"
						},
						{
							"internalType": "string",
							"name": "status",
							"type": "string"
						}
					],
					"stateMutability": "payable",
					"type": "function"
				},
				{
					"inputs": [
						{
							"internalType": "address",
							"name": "eventAddr",
							"type": "address"
						}
					],
					"name": "deleteEvent",
					"outputs": [],
					"stateMutability": "nonpayable",
					"type": "function"
				},
				{
					"inputs": [
						{
							"internalType": "address",
							"name": "eventAddr",
							"type": "address"
						}
					],
					"name": "getEvent",
					"outputs": [
						{
							"internalType": "address",
							"name": "eventAddress",
							"type": "address"
						},
						{
							"internalType": "string",
							"name": "eventName",
							"type": "string"
						},
						{
							"internalType": "string",
							"name": "eventLoc",
							"type": "string"
						},
						{
							"internalType": "uint256",
							"name": "eventStock",
							"type": "uint256"
						},
						{
							"internalType": "uint256",
							"name": "eventPrice",
							"type": "uint256"
						}
					],
					"stateMutability": "view",
					"type": "function"
				},
				{
					"inputs": [],
					"name": "ownerAddress",
					"outputs": [
						{
							"internalType": "address",
							"name": "",
							"type": "address"
						}
					],
					"stateMutability": "view",
					"type": "function"
				},
				{
					"inputs": [
						{
							"internalType": "address",
							"name": "eventAddr",
							"type": "address"
						},
						{
							"internalType": "string",
							"name": "name",
							"type": "string"
						},
						{
							"internalType": "string",
							"name": "location",
							"type": "string"
						},
						{
							"internalType": "uint256",
							"name": "stock",
							"type": "uint256"
						},
						{
							"internalType": "uint256",
							"name": "price",
							"type": "uint256"
						}
					],
					"name": "updateEvent",
					"outputs": [
						{
							"internalType": "address",
							"name": "eventAddress",
							"type": "address"
						},
						{
							"internalType": "string",
							"name": "eventName",
							"type": "string"
						},
						{
							"internalType": "string",
							"name": "eventLoc",
							"type": "string"
						},
						{
							"internalType": "uint256",
							"name": "eventStock",
							"type": "uint256"
						},
						{
							"internalType": "uint256",
							"name": "eventPrice",
							"type": "uint256"
						},
						{
							"internalType": "string",
							"name": "status",
							"type": "string"
						}
					],
					"stateMutability": "payable",
					"type": "function"
				},
				{
					"stateMutability": "payable",
					"type": "receive"
				}
			],
			"devdoc": {
				"kind": "dev",
				"methods": {},
				"version": 1
			},
			"evm": {
				"assembly": "    /* \"contracts/event.sol\":60:3855  contract EventContract {... */\n  mstore(0x40, 0x80)\n    /* \"contracts/event.sol\":90:146  constructor() {... */\n  callvalue\n  dup1\n  iszero\n  tag_1\n  jumpi\n  0x00\n  dup1\n  revert\ntag_1:\n  pop\n    /* \"contracts/event.sol\":129:139  msg.sender */\n  caller\n    /* \"contracts/event.sol\":114:126  ownerAddress */\n  0x00\n  dup1\n    /* \"contracts/event.sol\":114:139  ownerAddress = msg.sender */\n  0x0100\n  exp\n  dup2\n  sload\n  dup2\n  0xffffffffffffffffffffffffffffffffffffffff\n  mul\n  not\n  and\n  swap1\n  dup4\n  0xffffffffffffffffffffffffffffffffffffffff\n  and\n  mul\n  or\n  swap1\n  sstore\n  pop\n    /* \"contracts/event.sol\":60:3855  contract EventContract {... */\n  dataSize(sub_0)\n  dup1\n  dataOffset(sub_0)\n  0x00\n  codecopy\n  0x00\n  return\nstop\n\nsub_0: assembly {\n        /* \"contracts/event.sol\":60:3855  contract EventContract {... */\n      mstore(0x40, 0x80)\n      jumpi(tag_1, lt(calldatasize, 0x04))\n      shr(0xe0, calldataload(0x00))\n      dup1\n      0x8f84aa09\n      gt\n      tag_10\n      jumpi\n      dup1\n      0x8f84aa09\n      eq\n      tag_6\n      jumpi\n      dup1\n      0xa35050d2\n      eq\n      tag_7\n      jumpi\n      dup1\n      0xc8179b9b\n      eq\n      tag_8\n      jumpi\n      dup1\n      0xf10b97b6\n      eq\n      tag_9\n      jumpi\n      jump(tag_2)\n    tag_10:\n      dup1\n      0x14a79b39\n      eq\n      tag_3\n      jumpi\n      dup1\n      0x80402564\n      eq\n      tag_4\n      jumpi\n      dup1\n      0x88fcb960\n      eq\n      tag_5\n      jumpi\n      jump(tag_2)\n    tag_1:\n      jumpi(tag_2, calldatasize)\n      stop\n    tag_2:\n      0x00\n      dup1\n      revert\n        /* \"contracts/event.sol\":2884:3853  function buyEvent(address eventAddr, uint amount) public payable... */\n    tag_3:\n      tag_13\n      0x04\n      dup1\n      calldatasize\n      sub\n      dup2\n      add\n      swap1\n      tag_14\n      swap2\n      swap1\n      tag_15\n      jump\t// in\n    tag_14:\n      tag_16\n      jump\t// in\n    tag_13:\n      mload(0x40)\n      tag_17\n      swap7\n      swap6\n      swap5\n      swap4\n      swap3\n      swap2\n      swap1\n      tag_18\n      jump\t// in\n    tag_17:\n      mload(0x40)\n      dup1\n      swap2\n      sub\n      swap1\n      return\n        /* \"contracts/event.sol\":388:413  address[] public addrList */\n    tag_4:\n      callvalue\n      dup1\n      iszero\n      tag_19\n      jumpi\n      0x00\n      dup1\n      revert\n    tag_19:\n      pop\n      tag_20\n      0x04\n      dup1\n      calldatasize\n      sub\n      dup2\n      add\n      swap1\n      tag_21\n      swap2\n      swap1\n      tag_22\n      jump\t// in\n    tag_21:\n      tag_23\n      jump\t// in\n    tag_20:\n      mload(0x40)\n      tag_24\n      swap2\n      swap1\n      tag_25\n      jump\t// in\n    tag_24:\n      mload(0x40)\n      dup1\n      swap2\n      sub\n      swap1\n      return\n        /* \"contracts/event.sol\":539:1113  function addEvent(... */\n    tag_5:\n      callvalue\n      dup1\n      iszero\n      tag_26\n      jumpi\n      0x00\n      dup1\n      revert\n    tag_26:\n      pop\n      tag_27\n      0x04\n      dup1\n      calldatasize\n      sub\n      dup2\n      add\n      swap1\n      tag_28\n      swap2\n      swap1\n      tag_29\n      jump\t// in\n    tag_28:\n      tag_30\n      jump\t// in\n    tag_27:\n      stop\n        /* \"contracts/event.sol\":186:213  address public ownerAddress */\n    tag_6:\n      callvalue\n      dup1\n      iszero\n      tag_31\n      jumpi\n      0x00\n      dup1\n      revert\n    tag_31:\n      pop\n      tag_32\n      tag_33\n      jump\t// in\n    tag_32:\n      mload(0x40)\n      tag_34\n      swap2\n      swap1\n      tag_25\n      jump\t// in\n    tag_34:\n      mload(0x40)\n      dup1\n      swap2\n      sub\n      swap1\n      return\n        /* \"contracts/event.sol\":1977:2468  function deleteEvent(address eventAddr) public onlyOwner {... */\n    tag_7:\n      callvalue\n      dup1\n      iszero\n      tag_35\n      jumpi\n      0x00\n      dup1\n      revert\n    tag_35:\n      pop\n      tag_36\n      0x04\n      dup1\n      calldatasize\n      sub\n      dup2\n      add\n      swap1\n      tag_37\n      swap2\n      swap1\n      tag_38\n      jump\t// in\n    tag_37:\n      tag_39\n      jump\t// in\n    tag_36:\n      stop\n        /* \"contracts/event.sol\":1119:1971  function updateEvent(... */\n    tag_8:\n      tag_40\n      0x04\n      dup1\n      calldatasize\n      sub\n      dup2\n      add\n      swap1\n      tag_41\n      swap2\n      swap1\n      tag_29\n      jump\t// in\n    tag_41:\n      tag_42\n      jump\t// in\n    tag_40:\n      mload(0x40)\n      tag_43\n      swap7\n      swap6\n      swap5\n      swap4\n      swap3\n      swap2\n      swap1\n      tag_18\n      jump\t// in\n    tag_43:\n      mload(0x40)\n      dup1\n      swap2\n      sub\n      swap1\n      return\n        /* \"contracts/event.sol\":2474:2878  function getEvent(address eventAddr) public view ... */\n    tag_9:\n      callvalue\n      dup1\n      iszero\n      tag_44\n      jumpi\n      0x00\n      dup1\n      revert\n    tag_44:\n      pop\n      tag_45\n      0x04\n      dup1\n      calldatasize\n      sub\n      dup2\n      add\n      swap1\n      tag_46\n      swap2\n      swap1\n      tag_38\n      jump\t// in\n    tag_46:\n      tag_47\n      jump\t// in\n    tag_45:\n      mload(0x40)\n      tag_48\n      swap6\n      swap5\n      swap4\n      swap3\n      swap2\n      swap1\n      tag_49\n      jump\t// in\n    tag_48:\n      mload(0x40)\n      dup1\n      swap2\n      sub\n      swap1\n      return\n        /* \"contracts/event.sol\":2884:3853  function buyEvent(address eventAddr, uint amount) public payable... */\n    tag_16:\n        /* \"contracts/event.sol\":2962:2982  address eventAddress */\n      0x00\n        /* \"contracts/event.sol\":2984:3007  string memory eventName */\n      0x60\n        /* \"contracts/event.sol\":3009:3031  string memory eventLoc */\n      dup1\n        /* \"contracts/event.sol\":3033:3048  uint eventStock */\n      0x00\n        /* \"contracts/event.sol\":3050:3065  uint eventPrice */\n      dup1\n        /* \"contracts/event.sol\":3067:3087  string memory status */\n      0x60\n        /* \"contracts/event.sol\":3116:3117  0 */\n      0x00\n        /* \"contracts/event.sol\":3107:3113  amount */\n      dup8\n        /* \"contracts/event.sol\":3107:3117  amount > 0 */\n      gt\n        /* \"contracts/event.sol\":3099:3143  require(amount > 0, \"Invalid event amount.\") */\n      tag_51\n      jumpi\n      mload(0x40)\n      0x08c379a000000000000000000000000000000000000000000000000000000000\n      dup2\n      mstore\n      0x04\n      add\n      tag_52\n      swap1\n      tag_53\n      jump\t// in\n    tag_52:\n      mload(0x40)\n      dup1\n      swap2\n      sub\n      swap1\n      revert\n    tag_51:\n        /* \"contracts/event.sol\":3176:3188  ownerAddress */\n      0x00\n      dup1\n      sload\n      swap1\n      0x0100\n      exp\n      swap1\n      div\n      0xffffffffffffffffffffffffffffffffffffffff\n      and\n        /* \"contracts/event.sol\":3162:3188  msg.sender != ownerAddress */\n      0xffffffffffffffffffffffffffffffffffffffff\n      and\n        /* \"contracts/event.sol\":3162:3172  msg.sender */\n      caller\n        /* \"contracts/event.sol\":3162:3188  msg.sender != ownerAddress */\n      0xffffffffffffffffffffffffffffffffffffffff\n      and\n      eq\n      iszero\n        /* \"contracts/event.sol\":3154:3221  require(msg.sender != ownerAddress, \"Owner can not buy any Event.\") */\n      tag_54\n      jumpi\n      mload(0x40)\n      0x08c379a000000000000000000000000000000000000000000000000000000000\n      dup2\n      mstore\n      0x04\n      add\n      tag_55\n      swap1\n      tag_56\n      jump\t// in\n    tag_55:\n      mload(0x40)\n      dup1\n      swap2\n      sub\n      swap1\n      revert\n    tag_54:\n        /* \"contracts/event.sol\":3245:3254  eventData */\n      0x01\n        /* \"contracts/event.sol\":3245:3265  eventData[eventAddr] */\n      0x00\n        /* \"contracts/event.sol\":3255:3264  eventAddr */\n      dup10\n        /* \"contracts/event.sol\":3245:3265  eventData[eventAddr] */\n      0xffffffffffffffffffffffffffffffffffffffff\n      and\n      0xffffffffffffffffffffffffffffffffffffffff\n      and\n      dup2\n      mstore\n      0x20\n      add\n      swap1\n      dup2\n      mstore\n      0x20\n      add\n      0x00\n      keccak256\n        /* \"contracts/event.sol\":3245:3271  eventData[eventAddr].stock */\n      0x02\n      add\n      sload\n        /* \"contracts/event.sol\":3232:3271  eventStock = eventData[eventAddr].stock */\n      swap3\n      pop\n        /* \"contracts/event.sol\":3303:3304  0 */\n      0x00\n        /* \"contracts/event.sol\":3290:3300  eventStock */\n      dup4\n        /* \"contracts/event.sol\":3290:3304  eventStock > 0 */\n      gt\n        /* \"contracts/event.sol\":3282:3332  require(eventStock > 0, \"Event is not available.\") */\n      tag_57\n      jumpi\n      mload(0x40)\n      0x08c379a000000000000000000000000000000000000000000000000000000000\n      dup2\n      mstore\n      0x04\n      add\n      tag_58\n      swap1\n      tag_59\n      jump\t// in\n    tag_58:\n      mload(0x40)\n      dup1\n      swap2\n      sub\n      swap1\n      revert\n    tag_57:\n        /* \"contracts/event.sol\":3360:3370  eventStock */\n      dup3\n        /* \"contracts/event.sol\":3351:3357  amount */\n      dup8\n        /* \"contracts/event.sol\":3351:3370  amount < eventStock */\n      lt\n        /* \"contracts/event.sol\":3343:3410  require(amount < eventStock, \"Amount exceed event's availability.\") */\n      tag_60\n      jumpi\n      mload(0x40)\n      0x08c379a000000000000000000000000000000000000000000000000000000000\n      dup2\n      mstore\n      0x04\n      add\n      tag_61\n      swap1\n      tag_62\n      jump\t// in\n    tag_61:\n      mload(0x40)\n      dup1\n      swap2\n      sub\n      swap1\n      revert\n    tag_60:\n        /* \"contracts/event.sol\":3436:3445  eventAddr */\n      dup8\n        /* \"contracts/event.sol\":3421:3445  eventAddress = eventAddr */\n      swap6\n      pop\n        /* \"contracts/event.sol\":3467:3476  eventData */\n      0x01\n        /* \"contracts/event.sol\":3467:3487  eventData[eventAddr] */\n      0x00\n        /* \"contracts/event.sol\":3477:3486  eventAddr */\n      dup10\n        /* \"contracts/event.sol\":3467:3487  eventData[eventAddr] */\n      0xffffffffffffffffffffffffffffffffffffffff\n      and\n      0xffffffffffffffffffffffffffffffffffffffff\n      and\n      dup2\n      mstore\n      0x20\n      add\n      swap1\n      dup2\n      mstore\n      0x20\n      add\n      0x00\n      keccak256\n        /* \"contracts/event.sol\":3467:3492  eventData[eventAddr].name */\n      0x00\n      add\n        /* \"contracts/event.sol\":3455:3492  eventName = eventData[eventAddr].name */\n      dup1\n      sload\n      tag_63\n      swap1\n      tag_64\n      jump\t// in\n    tag_63:\n      dup1\n      0x1f\n      add\n      0x20\n      dup1\n      swap2\n      div\n      mul\n      0x20\n      add\n      mload(0x40)\n      swap1\n      dup2\n      add\n      0x40\n      mstore\n      dup1\n      swap3\n      swap2\n      swap1\n      dup2\n      dup2\n      mstore\n      0x20\n      add\n      dup3\n      dup1\n      sload\n      tag_65\n      swap1\n      tag_64\n      jump\t// in\n    tag_65:\n      dup1\n      iszero\n      tag_66\n      jumpi\n      dup1\n      0x1f\n      lt\n      tag_67\n      jumpi\n      0x0100\n      dup1\n      dup4\n      sload\n      div\n      mul\n      dup4\n      mstore\n      swap2\n      0x20\n      add\n      swap2\n      jump(tag_66)\n    tag_67:\n      dup3\n      add\n      swap2\n      swap1\n      0x00\n      mstore\n      keccak256(0x00, 0x20)\n      swap1\n    tag_68:\n      dup2\n      sload\n      dup2\n      mstore\n      swap1\n      0x01\n      add\n      swap1\n      0x20\n      add\n      dup1\n      dup4\n      gt\n      tag_68\n      jumpi\n      dup3\n      swap1\n      sub\n      0x1f\n      and\n      dup3\n      add\n      swap2\n    tag_66:\n      pop\n      pop\n      pop\n      pop\n      pop\n      swap5\n      pop\n        /* \"contracts/event.sol\":3513:3522  eventData */\n      0x01\n        /* \"contracts/event.sol\":3513:3533  eventData[eventAddr] */\n      0x00\n        /* \"contracts/event.sol\":3523:3532  eventAddr */\n      dup10\n        /* \"contracts/event.sol\":3513:3533  eventData[eventAddr] */\n      0xffffffffffffffffffffffffffffffffffffffff\n      and\n      0xffffffffffffffffffffffffffffffffffffffff\n      and\n      dup2\n      mstore\n      0x20\n      add\n      swap1\n      dup2\n      mstore\n      0x20\n      add\n      0x00\n      keccak256\n        /* \"contracts/event.sol\":3513:3542  eventData[eventAddr].location */\n      0x01\n      add\n        /* \"contracts/event.sol\":3502:3542  eventLoc = eventData[eventAddr].location */\n      dup1\n      sload\n      tag_69\n      swap1\n      tag_64\n      jump\t// in\n    tag_69:\n      dup1\n      0x1f\n      add\n      0x20\n      dup1\n      swap2\n      div\n      mul\n      0x20\n      add\n      mload(0x40)\n      swap1\n      dup2\n      add\n      0x40\n      mstore\n      dup1\n      swap3\n      swap2\n      swap1\n      dup2\n      dup2\n      mstore\n      0x20\n      add\n      dup3\n      dup1\n      sload\n      tag_70\n      swap1\n      tag_64\n      jump\t// in\n    tag_70:\n      dup1\n      iszero\n      tag_71\n      jumpi\n      dup1\n      0x1f\n      lt\n      tag_72\n      jumpi\n      0x0100\n      dup1\n      dup4\n      sload\n      div\n      mul\n      dup4\n      mstore\n      swap2\n      0x20\n      add\n      swap2\n      jump(tag_71)\n    tag_72:\n      dup3\n      add\n      swap2\n      swap1\n      0x00\n      mstore\n      keccak256(0x00, 0x20)\n      swap1\n    tag_73:\n      dup2\n      sload\n      dup2\n      mstore\n      swap1\n      0x01\n      add\n      swap1\n      0x20\n      add\n      dup1\n      dup4\n      gt\n      tag_73\n      jumpi\n      dup3\n      swap1\n      sub\n      0x1f\n      and\n      dup3\n      add\n      swap2\n    tag_71:\n      pop\n      pop\n      pop\n      pop\n      pop\n      swap4\n      pop\n        /* \"contracts/event.sol\":3610:3616  amount */\n      dup7\n        /* \"contracts/event.sol\":3581:3590  eventData */\n      0x01\n        /* \"contracts/event.sol\":3581:3601  eventData[eventAddr] */\n      0x00\n        /* \"contracts/event.sol\":3591:3600  eventAddr */\n      dup11\n        /* \"contracts/event.sol\":3581:3601  eventData[eventAddr] */\n      0xffffffffffffffffffffffffffffffffffffffff\n      and\n      0xffffffffffffffffffffffffffffffffffffffff\n      and\n      dup2\n      mstore\n      0x20\n      add\n      swap1\n      dup2\n      mstore\n      0x20\n      add\n      0x00\n      keccak256\n        /* \"contracts/event.sol\":3581:3607  eventData[eventAddr].stock */\n      0x02\n      add\n      sload\n        /* \"contracts/event.sol\":3581:3616  eventData[eventAddr].stock - amount */\n      tag_74\n      swap2\n      swap1\n      tag_75\n      jump\t// in\n    tag_74:\n        /* \"contracts/event.sol\":3552:3561  eventData */\n      0x01\n        /* \"contracts/event.sol\":3552:3572  eventData[eventAddr] */\n      0x00\n        /* \"contracts/event.sol\":3562:3571  eventAddr */\n      dup11\n        /* \"contracts/event.sol\":3552:3572  eventData[eventAddr] */\n      0xffffffffffffffffffffffffffffffffffffffff\n      and\n      0xffffffffffffffffffffffffffffffffffffffff\n      and\n      dup2\n      mstore\n      0x20\n      add\n      swap1\n      dup2\n      mstore\n      0x20\n      add\n      0x00\n      keccak256\n        /* \"contracts/event.sol\":3552:3578  eventData[eventAddr].stock */\n      0x02\n      add\n        /* \"contracts/event.sol\":3552:3616  eventData[eventAddr].stock = eventData[eventAddr].stock - amount */\n      dup2\n      swap1\n      sstore\n      pop\n        /* \"contracts/event.sol\":3639:3648  eventData */\n      0x01\n        /* \"contracts/event.sol\":3639:3659  eventData[eventAddr] */\n      0x00\n        /* \"contracts/event.sol\":3649:3658  eventAddr */\n      dup10\n        /* \"contracts/event.sol\":3639:3659  eventData[eventAddr] */\n      0xffffffffffffffffffffffffffffffffffffffff\n      and\n      0xffffffffffffffffffffffffffffffffffffffff\n      and\n      dup2\n      mstore\n      0x20\n      add\n      swap1\n      dup2\n      mstore\n      0x20\n      add\n      0x00\n      keccak256\n        /* \"contracts/event.sol\":3639:3665  eventData[eventAddr].stock */\n      0x02\n      add\n      sload\n        /* \"contracts/event.sol\":3626:3665  eventStock = eventData[eventAddr].stock */\n      swap3\n      pop\n        /* \"contracts/event.sol\":3710:3716  amount */\n      dup7\n        /* \"contracts/event.sol\":3697:3707  eventPrice */\n      dup3\n        /* \"contracts/event.sol\":3697:3716  eventPrice * amount */\n      tag_76\n      swap2\n      swap1\n      tag_77\n      jump\t// in\n    tag_76:\n        /* \"contracts/event.sol\":3684:3693  msg.value */\n      callvalue\n        /* \"contracts/event.sol\":3684:3716  msg.value >= eventPrice * amount */\n      lt\n      iszero\n        /* \"contracts/event.sol\":3676:3757  require(msg.value >= eventPrice * amount, \"You don't have the sufficient money.\") */\n      tag_78\n      jumpi\n      mload(0x40)\n      0x08c379a000000000000000000000000000000000000000000000000000000000\n      dup2\n      mstore\n      0x04\n      add\n      tag_79\n      swap1\n      tag_80\n      jump\t// in\n    tag_79:\n      mload(0x40)\n      dup1\n      swap2\n      sub\n      swap1\n      revert\n    tag_78:\n        /* \"contracts/event.sol\":3783:3787  this */\n      address\n        /* \"contracts/event.sol\":3767:3798  payable(address(this)).transfer */\n      0xffffffffffffffffffffffffffffffffffffffff\n      and\n        /* \"contracts/event.sol\":3767:3809  payable(address(this)).transfer(msg.value) */\n      0x08fc\n        /* \"contracts/event.sol\":3799:3808  msg.value */\n      callvalue\n        /* \"contracts/event.sol\":3767:3809  payable(address(this)).transfer(msg.value) */\n      swap1\n      dup2\n      iszero\n      mul\n      swap1\n      mload(0x40)\n      0x00\n      mload(0x40)\n      dup1\n      dup4\n      sub\n      dup2\n      dup6\n      dup9\n      dup9\n      call\n      swap4\n      pop\n      pop\n      pop\n      pop\n      iszero\n      dup1\n      iszero\n      tag_82\n      jumpi\n      returndatasize\n      0x00\n      dup1\n      returndatacopy\n      revert(0x00, returndatasize)\n    tag_82:\n      pop\n        /* \"contracts/event.sol\":3828:3846  status = \"Success\" */\n      mload(0x40)\n      dup1\n      0x40\n      add\n      0x40\n      mstore\n      dup1\n      0x07\n      dup2\n      mstore\n      0x20\n      add\n      0x5375636365737300000000000000000000000000000000000000000000000000\n      dup2\n      mstore\n      pop\n      swap1\n      pop\n        /* \"contracts/event.sol\":2884:3853  function buyEvent(address eventAddr, uint amount) public payable... */\n      swap3\n      swap6\n      pop\n      swap3\n      swap6\n      pop\n      swap3\n      swap6\n      jump\t// out\n        /* \"contracts/event.sol\":388:413  address[] public addrList */\n    tag_23:\n      0x02\n      dup2\n      dup2\n      sload\n      dup2\n      lt\n      tag_83\n      jumpi\n      0x00\n      dup1\n      revert\n    tag_83:\n      swap1\n      0x00\n      mstore\n      keccak256(0x00, 0x20)\n      add\n      0x00\n      swap2\n      pop\n      sload\n      swap1\n      0x0100\n      exp\n      swap1\n      div\n      0xffffffffffffffffffffffffffffffffffffffff\n      and\n      dup2\n      jump\t// out\n        /* \"contracts/event.sol\":539:1113  function addEvent(... */\n    tag_30:\n        /* \"contracts/event.sol\":471:483  ownerAddress */\n      0x00\n      dup1\n      sload\n      swap1\n      0x0100\n      exp\n      swap1\n      div\n      0xffffffffffffffffffffffffffffffffffffffff\n      and\n        /* \"contracts/event.sol\":457:483  msg.sender == ownerAddress */\n      0xffffffffffffffffffffffffffffffffffffffff\n      and\n        /* \"contracts/event.sol\":457:467  msg.sender */\n      caller\n        /* \"contracts/event.sol\":457:483  msg.sender == ownerAddress */\n      0xffffffffffffffffffffffffffffffffffffffff\n      and\n      eq\n        /* \"contracts/event.sol\":449:515  require(msg.sender == ownerAddress, \"Only owner can access this!\") */\n      tag_86\n      jumpi\n      mload(0x40)\n      0x08c379a000000000000000000000000000000000000000000000000000000000\n      dup2\n      mstore\n      0x04\n      add\n      tag_87\n      swap1\n      tag_88\n      jump\t// in\n    tag_87:\n      mload(0x40)\n      dup1\n      swap2\n      sub\n      swap1\n      revert\n    tag_86:\n        /* \"contracts/event.sol\":765:766  0 */\n      0x00\n        /* \"contracts/event.sol\":752:762  eventStock */\n      dup3\n        /* \"contracts/event.sol\":752:766  eventStock > 0 */\n      gt\n        /* \"contracts/event.sol\":744:802  require(eventStock > 0, \"Event stock must be more than 0\") */\n      tag_90\n      jumpi\n      mload(0x40)\n      0x08c379a000000000000000000000000000000000000000000000000000000000\n      dup2\n      mstore\n      0x04\n      add\n      tag_91\n      swap1\n      tag_92\n      jump\t// in\n    tag_91:\n      mload(0x40)\n      dup1\n      swap2\n      sub\n      swap1\n      revert\n    tag_90:\n        /* \"contracts/event.sol\":833:834  0 */\n      0x00\n        /* \"contracts/event.sol\":820:830  eventPrice */\n      dup2\n        /* \"contracts/event.sol\":820:834  eventPrice > 0 */\n      gt\n        /* \"contracts/event.sol\":812:870  require(eventPrice > 0, \"Event price must be more than 0\") */\n      tag_93\n      jumpi\n      mload(0x40)\n      0x08c379a000000000000000000000000000000000000000000000000000000000\n      dup2\n      mstore\n      0x04\n      add\n      tag_94\n      swap1\n      tag_95\n      jump\t// in\n    tag_94:\n      mload(0x40)\n      dup1\n      swap2\n      sub\n      swap1\n      revert\n    tag_93:\n        /* \"contracts/event.sol\":909:918  eventName */\n      dup4\n        /* \"contracts/event.sol\":881:890  eventData */\n      0x01\n        /* \"contracts/event.sol\":881:901  eventData[eventAddr] */\n      0x00\n        /* \"contracts/event.sol\":891:900  eventAddr */\n      dup8\n        /* \"contracts/event.sol\":881:901  eventData[eventAddr] */\n      0xffffffffffffffffffffffffffffffffffffffff\n      and\n      0xffffffffffffffffffffffffffffffffffffffff\n      and\n      dup2\n      mstore\n      0x20\n      add\n      swap1\n      dup2\n      mstore\n      0x20\n      add\n      0x00\n      keccak256\n        /* \"contracts/event.sol\":881:906  eventData[eventAddr].name */\n      0x00\n      add\n        /* \"contracts/event.sol\":881:918  eventData[eventAddr].name = eventName */\n      swap1\n      dup1\n      mload\n      swap1\n      0x20\n      add\n      swap1\n      tag_96\n      swap3\n      swap2\n      swap1\n      tag_97\n      jump\t// in\n    tag_96:\n      pop\n        /* \"contracts/event.sol\":960:973  eventLocation */\n      dup3\n        /* \"contracts/event.sol\":928:937  eventData */\n      0x01\n        /* \"contracts/event.sol\":928:948  eventData[eventAddr] */\n      0x00\n        /* \"contracts/event.sol\":938:947  eventAddr */\n      dup8\n        /* \"contracts/event.sol\":928:948  eventData[eventAddr] */\n      0xffffffffffffffffffffffffffffffffffffffff\n      and\n      0xffffffffffffffffffffffffffffffffffffffff\n      and\n      dup2\n      mstore\n      0x20\n      add\n      swap1\n      dup2\n      mstore\n      0x20\n      add\n      0x00\n      keccak256\n        /* \"contracts/event.sol\":928:957  eventData[eventAddr].location */\n      0x01\n      add\n        /* \"contracts/event.sol\":928:973  eventData[eventAddr].location = eventLocation */\n      swap1\n      dup1\n      mload\n      swap1\n      0x20\n      add\n      swap1\n      tag_98\n      swap3\n      swap2\n      swap1\n      tag_97\n      jump\t// in\n    tag_98:\n      pop\n        /* \"contracts/event.sol\":1012:1022  eventStock */\n      dup2\n        /* \"contracts/event.sol\":983:992  eventData */\n      0x01\n        /* \"contracts/event.sol\":983:1003  eventData[eventAddr] */\n      0x00\n        /* \"contracts/event.sol\":993:1002  eventAddr */\n      dup8\n        /* \"contracts/event.sol\":983:1003  eventData[eventAddr] */\n      0xffffffffffffffffffffffffffffffffffffffff\n      and\n      0xffffffffffffffffffffffffffffffffffffffff\n      and\n      dup2\n      mstore\n      0x20\n      add\n      swap1\n      dup2\n      mstore\n      0x20\n      add\n      0x00\n      keccak256\n        /* \"contracts/event.sol\":983:1009  eventData[eventAddr].stock */\n      0x02\n      add\n        /* \"contracts/event.sol\":983:1022  eventData[eventAddr].stock = eventStock */\n      dup2\n      swap1\n      sstore\n      pop\n        /* \"contracts/event.sol\":1061:1071  eventPrice */\n      dup1\n        /* \"contracts/event.sol\":1032:1041  eventData */\n      0x01\n        /* \"contracts/event.sol\":1032:1052  eventData[eventAddr] */\n      0x00\n        /* \"contracts/event.sol\":1042:1051  eventAddr */\n      dup8\n        /* \"contracts/event.sol\":1032:1052  eventData[eventAddr] */\n      0xffffffffffffffffffffffffffffffffffffffff\n      and\n      0xffffffffffffffffffffffffffffffffffffffff\n      and\n      dup2\n      mstore\n      0x20\n      add\n      swap1\n      dup2\n      mstore\n      0x20\n      add\n      0x00\n      keccak256\n        /* \"contracts/event.sol\":1032:1058  eventData[eventAddr].price */\n      0x03\n      add\n        /* \"contracts/event.sol\":1032:1071  eventData[eventAddr].price = eventPrice */\n      dup2\n      swap1\n      sstore\n      pop\n        /* \"contracts/event.sol\":1082:1090  addrList */\n      0x02\n        /* \"contracts/event.sol\":1096:1105  eventAddr */\n      dup6\n        /* \"contracts/event.sol\":1082:1106  addrList.push(eventAddr) */\n      swap1\n      dup1\n      0x01\n      dup2\n      sload\n      add\n      dup1\n      dup3\n      sstore\n      dup1\n      swap2\n      pop\n      pop\n      0x01\n      swap1\n      sub\n      swap1\n      0x00\n      mstore\n      keccak256(0x00, 0x20)\n      add\n      0x00\n      swap1\n      swap2\n      swap1\n      swap2\n      swap1\n      swap2\n      0x0100\n      exp\n      dup2\n      sload\n      dup2\n      0xffffffffffffffffffffffffffffffffffffffff\n      mul\n      not\n      and\n      swap1\n      dup4\n      0xffffffffffffffffffffffffffffffffffffffff\n      and\n      mul\n      or\n      swap1\n      sstore\n      pop\n        /* \"contracts/event.sol\":539:1113  function addEvent(... */\n      pop\n      pop\n      pop\n      pop\n      pop\n      jump\t// out\n        /* \"contracts/event.sol\":186:213  address public ownerAddress */\n    tag_33:\n      0x00\n      dup1\n      sload\n      swap1\n      0x0100\n      exp\n      swap1\n      div\n      0xffffffffffffffffffffffffffffffffffffffff\n      and\n      dup2\n      jump\t// out\n        /* \"contracts/event.sol\":1977:2468  function deleteEvent(address eventAddr) public onlyOwner {... */\n    tag_39:\n        /* \"contracts/event.sol\":471:483  ownerAddress */\n      0x00\n      dup1\n      sload\n      swap1\n      0x0100\n      exp\n      swap1\n      div\n      0xffffffffffffffffffffffffffffffffffffffff\n      and\n        /* \"contracts/event.sol\":457:483  msg.sender == ownerAddress */\n      0xffffffffffffffffffffffffffffffffffffffff\n      and\n        /* \"contracts/event.sol\":457:467  msg.sender */\n      caller\n        /* \"contracts/event.sol\":457:483  msg.sender == ownerAddress */\n      0xffffffffffffffffffffffffffffffffffffffff\n      and\n      eq\n        /* \"contracts/event.sol\":449:515  require(msg.sender == ownerAddress, \"Only owner can access this!\") */\n      tag_101\n      jumpi\n      mload(0x40)\n      0x08c379a000000000000000000000000000000000000000000000000000000000\n      dup2\n      mstore\n      0x04\n      add\n      tag_102\n      swap1\n      tag_88\n      jump\t// in\n    tag_102:\n      mload(0x40)\n      dup1\n      swap2\n      sub\n      swap1\n      revert\n    tag_101:\n        /* \"contracts/event.sol\":2052:2061  eventData */\n      0x01\n        /* \"contracts/event.sol\":2052:2072  eventData[eventAddr] */\n      0x00\n        /* \"contracts/event.sol\":2062:2071  eventAddr */\n      dup3\n        /* \"contracts/event.sol\":2052:2072  eventData[eventAddr] */\n      0xffffffffffffffffffffffffffffffffffffffff\n      and\n      0xffffffffffffffffffffffffffffffffffffffff\n      and\n      dup2\n      mstore\n      0x20\n      add\n      swap1\n      dup2\n      mstore\n      0x20\n      add\n      0x00\n      keccak256\n      0x00\n        /* \"contracts/event.sol\":2045:2072  delete eventData[eventAddr] */\n      dup1\n      dup3\n      add\n      0x00\n      tag_104\n      swap2\n      swap1\n      tag_105\n      jump\t// in\n    tag_104:\n      0x01\n      dup3\n      add\n      0x00\n      tag_106\n      swap2\n      swap1\n      tag_105\n      jump\t// in\n    tag_106:\n      0x02\n      dup3\n      add\n      0x00\n      swap1\n      sstore\n      0x03\n      dup3\n      add\n      0x00\n      swap1\n      sstore\n      pop\n      pop\n        /* \"contracts/event.sol\":2083:2099  uint totalEvents */\n      0x00\n        /* \"contracts/event.sol\":2102:2110  addrList */\n      0x02\n        /* \"contracts/event.sol\":2102:2117  addrList.length */\n      dup1\n      sload\n      swap1\n      pop\n        /* \"contracts/event.sol\":2083:2117  uint totalEvents = addrList.length */\n      swap1\n      pop\n        /* \"contracts/event.sol\":2127:2133  uint j */\n      0x00\n        /* \"contracts/event.sol\":2147:2157  uint index */\n      dup1\n        /* \"contracts/event.sol\":2168:2327  while(j < totalEvents) {... */\n    tag_107:\n        /* \"contracts/event.sol\":2178:2189  totalEvents */\n      dup3\n        /* \"contracts/event.sol\":2174:2175  j */\n      dup3\n        /* \"contracts/event.sol\":2174:2189  j < totalEvents */\n      lt\n        /* \"contracts/event.sol\":2168:2327  while(j < totalEvents) {... */\n      iszero\n      tag_108\n      jumpi\n        /* \"contracts/event.sol\":2223:2232  eventAddr */\n      dup4\n        /* \"contracts/event.sol\":2208:2232  addrList[j] == eventAddr */\n      0xffffffffffffffffffffffffffffffffffffffff\n      and\n        /* \"contracts/event.sol\":2208:2216  addrList */\n      0x02\n        /* \"contracts/event.sol\":2217:2218  j */\n      dup4\n        /* \"contracts/event.sol\":2208:2219  addrList[j] */\n      dup2\n      sload\n      dup2\n      lt\n      tag_109\n      jumpi\n      tag_110\n      tag_111\n      jump\t// in\n    tag_110:\n    tag_109:\n      swap1\n      0x00\n      mstore\n      keccak256(0x00, 0x20)\n      add\n      0x00\n      swap1\n      sload\n      swap1\n      0x0100\n      exp\n      swap1\n      div\n      0xffffffffffffffffffffffffffffffffffffffff\n      and\n        /* \"contracts/event.sol\":2208:2232  addrList[j] == eventAddr */\n      0xffffffffffffffffffffffffffffffffffffffff\n      and\n      eq\n        /* \"contracts/event.sol\":2205:2300  if(addrList[j] == eventAddr) {... */\n      iszero\n      tag_113\n      jumpi\n        /* \"contracts/event.sol\":2260:2261  j */\n      dup2\n        /* \"contracts/event.sol\":2252:2261  index = j */\n      swap1\n      pop\n        /* \"contracts/event.sol\":2280:2285  break */\n      jump(tag_108)\n        /* \"contracts/event.sol\":2205:2300  if(addrList[j] == eventAddr) {... */\n    tag_113:\n        /* \"contracts/event.sol\":2313:2316  j++ */\n      dup2\n      dup1\n      tag_114\n      swap1\n      tag_115\n      jump\t// in\n    tag_114:\n      swap3\n      pop\n      pop\n        /* \"contracts/event.sol\":2168:2327  while(j < totalEvents) {... */\n      jump(tag_107)\n    tag_108:\n        /* \"contracts/event.sol\":2342:2348  uint i */\n      0x00\n        /* \"contracts/event.sol\":2351:2356  index */\n      dup2\n        /* \"contracts/event.sol\":2342:2356  uint i = index */\n      swap1\n      pop\n        /* \"contracts/event.sol\":2337:2437  for (uint i = index; i < addrList.length-1; i++){... */\n    tag_116:\n        /* \"contracts/event.sol\":2378:2379  1 */\n      0x01\n        /* \"contracts/event.sol\":2362:2370  addrList */\n      0x02\n        /* \"contracts/event.sol\":2362:2377  addrList.length */\n      dup1\n      sload\n      swap1\n      pop\n        /* \"contracts/event.sol\":2362:2379  addrList.length-1 */\n      tag_119\n      swap2\n      swap1\n      tag_75\n      jump\t// in\n    tag_119:\n        /* \"contracts/event.sol\":2358:2359  i */\n      dup2\n        /* \"contracts/event.sol\":2358:2379  i < addrList.length-1 */\n      lt\n        /* \"contracts/event.sol\":2337:2437  for (uint i = index; i < addrList.length-1; i++){... */\n      iszero\n      tag_117\n      jumpi\n        /* \"contracts/event.sol\":2413:2421  addrList */\n      0x02\n        /* \"contracts/event.sol\":2424:2425  1 */\n      0x01\n        /* \"contracts/event.sol\":2422:2423  i */\n      dup3\n        /* \"contracts/event.sol\":2422:2425  i+1 */\n      tag_120\n      swap2\n      swap1\n      tag_121\n      jump\t// in\n    tag_120:\n        /* \"contracts/event.sol\":2413:2426  addrList[i+1] */\n      dup2\n      sload\n      dup2\n      lt\n      tag_122\n      jumpi\n      tag_123\n      tag_111\n      jump\t// in\n    tag_123:\n    tag_122:\n      swap1\n      0x00\n      mstore\n      keccak256(0x00, 0x20)\n      add\n      0x00\n      swap1\n      sload\n      swap1\n      0x0100\n      exp\n      swap1\n      div\n      0xffffffffffffffffffffffffffffffffffffffff\n      and\n        /* \"contracts/event.sol\":2399:2407  addrList */\n      0x02\n        /* \"contracts/event.sol\":2408:2409  i */\n      dup3\n        /* \"contracts/event.sol\":2399:2410  addrList[i] */\n      dup2\n      sload\n      dup2\n      lt\n      tag_125\n      jumpi\n      tag_126\n      tag_111\n      jump\t// in\n    tag_126:\n    tag_125:\n      swap1\n      0x00\n      mstore\n      keccak256(0x00, 0x20)\n      add\n      0x00\n        /* \"contracts/event.sol\":2399:2426  addrList[i] = addrList[i+1] */\n      0x0100\n      exp\n      dup2\n      sload\n      dup2\n      0xffffffffffffffffffffffffffffffffffffffff\n      mul\n      not\n      and\n      swap1\n      dup4\n      0xffffffffffffffffffffffffffffffffffffffff\n      and\n      mul\n      or\n      swap1\n      sstore\n      pop\n        /* \"contracts/event.sol\":2381:2384  i++ */\n      dup1\n      dup1\n      tag_128\n      swap1\n      tag_115\n      jump\t// in\n    tag_128:\n      swap2\n      pop\n      pop\n        /* \"contracts/event.sol\":2337:2437  for (uint i = index; i < addrList.length-1; i++){... */\n      jump(tag_116)\n    tag_117:\n      pop\n        /* \"contracts/event.sol\":2447:2455  addrList */\n      0x02\n        /* \"contracts/event.sol\":2447:2461  addrList.pop() */\n      dup1\n      sload\n      dup1\n      tag_129\n      jumpi\n      tag_130\n      tag_131\n      jump\t// in\n    tag_130:\n    tag_129:\n      0x01\n      swap1\n      sub\n      dup2\n      dup2\n      swap1\n      0x00\n      mstore\n      keccak256(0x00, 0x20)\n      add\n      exp(0x0100, 0x00)\n      dup2\n      sload\n      swap1\n      0xffffffffffffffffffffffffffffffffffffffff\n      mul\n      not\n      and\n      swap1\n      sstore\n      swap1\n      sstore\n        /* \"contracts/event.sol\":2034:2468  {... */\n      pop\n      pop\n      pop\n        /* \"contracts/event.sol\":1977:2468  function deleteEvent(address eventAddr) public onlyOwner {... */\n      pop\n      jump\t// out\n        /* \"contracts/event.sol\":1119:1971  function updateEvent(... */\n    tag_42:\n        /* \"contracts/event.sol\":1307:1327  address eventAddress */\n      0x00\n        /* \"contracts/event.sol\":1329:1352  string memory eventName */\n      0x60\n        /* \"contracts/event.sol\":1354:1376  string memory eventLoc */\n      dup1\n        /* \"contracts/event.sol\":1378:1393  uint eventStock */\n      0x00\n        /* \"contracts/event.sol\":1395:1410  uint eventPrice */\n      dup1\n        /* \"contracts/event.sol\":1412:1432  string memory status */\n      0x60\n        /* \"contracts/event.sol\":471:483  ownerAddress */\n      0x00\n      dup1\n      sload\n      swap1\n      0x0100\n      exp\n      swap1\n      div\n      0xffffffffffffffffffffffffffffffffffffffff\n      and\n        /* \"contracts/event.sol\":457:483  msg.sender == ownerAddress */\n      0xffffffffffffffffffffffffffffffffffffffff\n      and\n        /* \"contracts/event.sol\":457:467  msg.sender */\n      caller\n        /* \"contracts/event.sol\":457:483  msg.sender == ownerAddress */\n      0xffffffffffffffffffffffffffffffffffffffff\n      and\n      eq\n        /* \"contracts/event.sol\":449:515  require(msg.sender == ownerAddress, \"Only owner can access this!\") */\n      tag_134\n      jumpi\n      mload(0x40)\n      0x08c379a000000000000000000000000000000000000000000000000000000000\n      dup2\n      mstore\n      0x04\n      add\n      tag_135\n      swap1\n      tag_88\n      jump\t// in\n    tag_135:\n      mload(0x40)\n      dup1\n      swap2\n      sub\n      swap1\n      revert\n    tag_134:\n        /* \"contracts/event.sol\":1460:1461  0 */\n      0x00\n        /* \"contracts/event.sol\":1452:1457  stock */\n      dup9\n        /* \"contracts/event.sol\":1452:1461  stock > 0 */\n      gt\n        /* \"contracts/event.sol\":1444:1497  require(stock > 0, \"Event stock must be more than 0\") */\n      tag_137\n      jumpi\n      mload(0x40)\n      0x08c379a000000000000000000000000000000000000000000000000000000000\n      dup2\n      mstore\n      0x04\n      add\n      tag_138\n      swap1\n      tag_92\n      jump\t// in\n    tag_138:\n      mload(0x40)\n      dup1\n      swap2\n      sub\n      swap1\n      revert\n    tag_137:\n        /* \"contracts/event.sol\":1524:1525  0 */\n      0x00\n        /* \"contracts/event.sol\":1516:1521  price */\n      dup8\n        /* \"contracts/event.sol\":1516:1525  price > 0 */\n      gt\n        /* \"contracts/event.sol\":1508:1561  require(price > 0, \"Event price must be more than 0\") */\n      tag_139\n      jumpi\n      mload(0x40)\n      0x08c379a000000000000000000000000000000000000000000000000000000000\n      dup2\n      mstore\n      0x04\n      add\n      tag_140\n      swap1\n      tag_95\n      jump\t// in\n    tag_140:\n      mload(0x40)\n      dup1\n      swap2\n      sub\n      swap1\n      revert\n    tag_139:\n        /* \"contracts/event.sol\":1572:1597  eventStruct memory eventD */\n      tag_141\n      tag_142\n      jump\t// in\n    tag_141:\n        /* \"contracts/event.sol\":1617:1626  eventData */\n      0x01\n        /* \"contracts/event.sol\":1617:1637  eventData[eventAddr] */\n      0x00\n        /* \"contracts/event.sol\":1627:1636  eventAddr */\n      dup14\n        /* \"contracts/event.sol\":1617:1637  eventData[eventAddr] */\n      0xffffffffffffffffffffffffffffffffffffffff\n      and\n      0xffffffffffffffffffffffffffffffffffffffff\n      and\n      dup2\n      mstore\n      0x20\n      add\n      swap1\n      dup2\n      mstore\n      0x20\n      add\n      0x00\n      keccak256\n        /* \"contracts/event.sol\":1608:1637  eventD = eventData[eventAddr] */\n      mload(0x40)\n      dup1\n      0x80\n      add\n      0x40\n      mstore\n      swap1\n      dup2\n      0x00\n      dup3\n      add\n      dup1\n      sload\n      tag_143\n      swap1\n      tag_64\n      jump\t// in\n    tag_143:\n      dup1\n      0x1f\n      add\n      0x20\n      dup1\n      swap2\n      div\n      mul\n      0x20\n      add\n      mload(0x40)\n      swap1\n      dup2\n      add\n      0x40\n      mstore\n      dup1\n      swap3\n      swap2\n      swap1\n      dup2\n      dup2\n      mstore\n      0x20\n      add\n      dup3\n      dup1\n      sload\n      tag_144\n      swap1\n      tag_64\n      jump\t// in\n    tag_144:\n      dup1\n      iszero\n      tag_145\n      jumpi\n      dup1\n      0x1f\n      lt\n      tag_146\n      jumpi\n      0x0100\n      dup1\n      dup4\n      sload\n      div\n      mul\n      dup4\n      mstore\n      swap2\n      0x20\n      add\n      swap2\n      jump(tag_145)\n    tag_146:\n      dup3\n      add\n      swap2\n      swap1\n      0x00\n      mstore\n      keccak256(0x00, 0x20)\n      swap1\n    tag_147:\n      dup2\n      sload\n      dup2\n      mstore\n      swap1\n      0x01\n      add\n      swap1\n      0x20\n      add\n      dup1\n      dup4\n      gt\n      tag_147\n      jumpi\n      dup3\n      swap1\n      sub\n      0x1f\n      and\n      dup3\n      add\n      swap2\n    tag_145:\n      pop\n      pop\n      pop\n      pop\n      pop\n      dup2\n      mstore\n      0x20\n      add\n      0x01\n      dup3\n      add\n      dup1\n      sload\n      tag_148\n      swap1\n      tag_64\n      jump\t// in\n    tag_148:\n      dup1\n      0x1f\n      add\n      0x20\n      dup1\n      swap2\n      div\n      mul\n      0x20\n      add\n      mload(0x40)\n      swap1\n      dup2\n      add\n      0x40\n      mstore\n      dup1\n      swap3\n      swap2\n      swap1\n      dup2\n      dup2\n      mstore\n      0x20\n      add\n      dup3\n      dup1\n      sload\n      tag_149\n      swap1\n      tag_64\n      jump\t// in\n    tag_149:\n      dup1\n      iszero\n      tag_150\n      jumpi\n      dup1\n      0x1f\n      lt\n      tag_151\n      jumpi\n      0x0100\n      dup1\n      dup4\n      sload\n      div\n      mul\n      dup4\n      mstore\n      swap2\n      0x20\n      add\n      swap2\n      jump(tag_150)\n    tag_151:\n      dup3\n      add\n      swap2\n      swap1\n      0x00\n      mstore\n      keccak256(0x00, 0x20)\n      swap1\n    tag_152:\n      dup2\n      sload\n      dup2\n      mstore\n      swap1\n      0x01\n      add\n      swap1\n      0x20\n      add\n      dup1\n      dup4\n      gt\n      tag_152\n      jumpi\n      dup3\n      swap1\n      sub\n      0x1f\n      and\n      dup3\n      add\n      swap2\n    tag_150:\n      pop\n      pop\n      pop\n      pop\n      pop\n      dup2\n      mstore\n      0x20\n      add\n      0x02\n      dup3\n      add\n      sload\n      dup2\n      mstore\n      0x20\n      add\n      0x03\n      dup3\n      add\n      sload\n      dup2\n      mstore\n      pop\n      pop\n      swap1\n      pop\n        /* \"contracts/event.sol\":1661:1665  name */\n      dup11\n        /* \"contracts/event.sol\":1647:1653  eventD */\n      dup2\n        /* \"contracts/event.sol\":1647:1658  eventD.name */\n      0x00\n      add\n        /* \"contracts/event.sol\":1647:1665  eventD.name = name */\n      dup2\n      swap1\n      mstore\n      pop\n        /* \"contracts/event.sol\":1693:1701  location */\n      dup10\n        /* \"contracts/event.sol\":1675:1681  eventD */\n      dup2\n        /* \"contracts/event.sol\":1675:1690  eventD.location */\n      0x20\n      add\n        /* \"contracts/event.sol\":1675:1701  eventD.location = location */\n      dup2\n      swap1\n      mstore\n      pop\n        /* \"contracts/event.sol\":1726:1731  stock */\n      dup9\n        /* \"contracts/event.sol\":1711:1717  eventD */\n      dup2\n        /* \"contracts/event.sol\":1711:1723  eventD.stock */\n      0x40\n      add\n        /* \"contracts/event.sol\":1711:1731  eventD.stock = stock */\n      dup2\n      dup2\n      mstore\n      pop\n      pop\n        /* \"contracts/event.sol\":1756:1761  price */\n      dup8\n        /* \"contracts/event.sol\":1741:1747  eventD */\n      dup2\n        /* \"contracts/event.sol\":1741:1753  eventD.price */\n      0x60\n      add\n        /* \"contracts/event.sol\":1741:1761  eventD.price = price */\n      dup2\n      dup2\n      mstore\n      pop\n      pop\n        /* \"contracts/event.sol\":1787:1796  eventAddr */\n      dup12\n        /* \"contracts/event.sol\":1772:1796  eventAddress = eventAddr */\n      swap7\n      pop\n        /* \"contracts/event.sol\":1818:1824  eventD */\n      dup1\n        /* \"contracts/event.sol\":1818:1829  eventD.name */\n      0x00\n      add\n      mload\n        /* \"contracts/event.sol\":1806:1829  eventName = eventD.name */\n      swap6\n      pop\n        /* \"contracts/event.sol\":1850:1856  eventD */\n      dup1\n        /* \"contracts/event.sol\":1850:1865  eventD.location */\n      0x20\n      add\n      mload\n        /* \"contracts/event.sol\":1839:1865  eventLoc = eventD.location */\n      swap5\n      pop\n        /* \"contracts/event.sol\":1888:1894  eventD */\n      dup1\n        /* \"contracts/event.sol\":1888:1900  eventD.stock */\n      0x40\n      add\n      mload\n        /* \"contracts/event.sol\":1875:1900  eventStock = eventD.stock */\n      swap4\n      pop\n        /* \"contracts/event.sol\":1923:1929  eventD */\n      dup1\n        /* \"contracts/event.sol\":1923:1935  eventD.price */\n      0x60\n      add\n      mload\n        /* \"contracts/event.sol\":1910:1935  eventPrice = eventD.price */\n      swap3\n      pop\n        /* \"contracts/event.sol\":1945:1964  status = \"Updated.\" */\n      mload(0x40)\n      dup1\n      0x40\n      add\n      0x40\n      mstore\n      dup1\n      0x08\n      dup2\n      mstore\n      0x20\n      add\n      0x557064617465642e000000000000000000000000000000000000000000000000\n      dup2\n      mstore\n      pop\n      swap2\n      pop\n        /* \"contracts/event.sol\":1434:1971  {... */\n      pop\n        /* \"contracts/event.sol\":1119:1971  function updateEvent(... */\n      swap6\n      pop\n      swap6\n      pop\n      swap6\n      pop\n      swap6\n      pop\n      swap6\n      pop\n      swap6\n      jump\t// out\n        /* \"contracts/event.sol\":2474:2878  function getEvent(address eventAddr) public view ... */\n    tag_47:\n        /* \"contracts/event.sol\":2537:2557  address eventAddress */\n      0x00\n        /* \"contracts/event.sol\":2559:2582  string memory eventName */\n      0x60\n        /* \"contracts/event.sol\":2584:2606  string memory eventLoc */\n      dup1\n        /* \"contracts/event.sol\":2608:2623  uint eventStock */\n      0x00\n        /* \"contracts/event.sol\":2625:2640  uint eventPrice */\n      dup1\n        /* \"contracts/event.sol\":2667:2676  eventAddr */\n      dup6\n        /* \"contracts/event.sol\":2652:2676  eventAddress = eventAddr */\n      swap5\n      pop\n        /* \"contracts/event.sol\":2698:2707  eventData */\n      0x01\n        /* \"contracts/event.sol\":2698:2718  eventData[eventAddr] */\n      0x00\n        /* \"contracts/event.sol\":2708:2717  eventAddr */\n      dup8\n        /* \"contracts/event.sol\":2698:2718  eventData[eventAddr] */\n      0xffffffffffffffffffffffffffffffffffffffff\n      and\n      0xffffffffffffffffffffffffffffffffffffffff\n      and\n      dup2\n      mstore\n      0x20\n      add\n      swap1\n      dup2\n      mstore\n      0x20\n      add\n      0x00\n      keccak256\n        /* \"contracts/event.sol\":2698:2723  eventData[eventAddr].name */\n      0x00\n      add\n        /* \"contracts/event.sol\":2686:2723  eventName = eventData[eventAddr].name */\n      dup1\n      sload\n      tag_154\n      swap1\n      tag_64\n      jump\t// in\n    tag_154:\n      dup1\n      0x1f\n      add\n      0x20\n      dup1\n      swap2\n      div\n      mul\n      0x20\n      add\n      mload(0x40)\n      swap1\n      dup2\n      add\n      0x40\n      mstore\n      dup1\n      swap3\n      swap2\n      swap1\n      dup2\n      dup2\n      mstore\n      0x20\n      add\n      dup3\n      dup1\n      sload\n      tag_155\n      swap1\n      tag_64\n      jump\t// in\n    tag_155:\n      dup1\n      iszero\n      tag_156\n      jumpi\n      dup1\n      0x1f\n      lt\n      tag_157\n      jumpi\n      0x0100\n      dup1\n      dup4\n      sload\n      div\n      mul\n      dup4\n      mstore\n      swap2\n      0x20\n      add\n      swap2\n      jump(tag_156)\n    tag_157:\n      dup3\n      add\n      swap2\n      swap1\n      0x00\n      mstore\n      keccak256(0x00, 0x20)\n      swap1\n    tag_158:\n      dup2\n      sload\n      dup2\n      mstore\n      swap1\n      0x01\n      add\n      swap1\n      0x20\n      add\n      dup1\n      dup4\n      gt\n      tag_158\n      jumpi\n      dup3\n      swap1\n      sub\n      0x1f\n      and\n      dup3\n      add\n      swap2\n    tag_156:\n      pop\n      pop\n      pop\n      pop\n      pop\n      swap4\n      pop\n        /* \"contracts/event.sol\":2744:2753  eventData */\n      0x01\n        /* \"contracts/event.sol\":2744:2764  eventData[eventAddr] */\n      0x00\n        /* \"contracts/event.sol\":2754:2763  eventAddr */\n      dup8\n        /* \"contracts/event.sol\":2744:2764  eventData[eventAddr] */\n      0xffffffffffffffffffffffffffffffffffffffff\n      and\n      0xffffffffffffffffffffffffffffffffffffffff\n      and\n      dup2\n      mstore\n      0x20\n      add\n      swap1\n      dup2\n      mstore\n      0x20\n      add\n      0x00\n      keccak256\n        /* \"contracts/event.sol\":2744:2773  eventData[eventAddr].location */\n      0x01\n      add\n        /* \"contracts/event.sol\":2733:2773  eventLoc = eventData[eventAddr].location */\n      dup1\n      sload\n      tag_159\n      swap1\n      tag_64\n      jump\t// in\n    tag_159:\n      dup1\n      0x1f\n      add\n      0x20\n      dup1\n      swap2\n      div\n      mul\n      0x20\n      add\n      mload(0x40)\n      swap1\n      dup2\n      add\n      0x40\n      mstore\n      dup1\n      swap3\n      swap2\n      swap1\n      dup2\n      dup2\n      mstore\n      0x20\n      add\n      dup3\n      dup1\n      sload\n      tag_160\n      swap1\n      tag_64\n      jump\t// in\n    tag_160:\n      dup1\n      iszero\n      tag_161\n      jumpi\n      dup1\n      0x1f\n      lt\n      tag_162\n      jumpi\n      0x0100\n      dup1\n      dup4\n      sload\n      div\n      mul\n      dup4\n      mstore\n      swap2\n      0x20\n      add\n      swap2\n      jump(tag_161)\n    tag_162:\n      dup3\n      add\n      swap2\n      swap1\n      0x00\n      mstore\n      keccak256(0x00, 0x20)\n      swap1\n    tag_163:\n      dup2\n      sload\n      dup2\n      mstore\n      swap1\n      0x01\n      add\n      swap1\n      0x20\n      add\n      dup1\n      dup4\n      gt\n      tag_163\n      jumpi\n      dup3\n      swap1\n      sub\n      0x1f\n      and\n      dup3\n      add\n      swap2\n    tag_161:\n      pop\n      pop\n      pop\n      pop\n      pop\n      swap3\n      pop\n        /* \"contracts/event.sol\":2796:2805  eventData */\n      0x01\n        /* \"contracts/event.sol\":2796:2816  eventData[eventAddr] */\n      0x00\n        /* \"contracts/event.sol\":2806:2815  eventAddr */\n      dup8\n        /* \"contracts/event.sol\":2796:2816  eventData[eventAddr] */\n      0xffffffffffffffffffffffffffffffffffffffff\n      and\n      0xffffffffffffffffffffffffffffffffffffffff\n      and\n      dup2\n      mstore\n      0x20\n      add\n      swap1\n      dup2\n      mstore\n      0x20\n      add\n      0x00\n      keccak256\n        /* \"contracts/event.sol\":2796:2822  eventData[eventAddr].stock */\n      0x02\n      add\n      sload\n        /* \"contracts/event.sol\":2783:2822  eventStock = eventData[eventAddr].stock */\n      swap2\n      pop\n        /* \"contracts/event.sol\":2845:2854  eventData */\n      0x01\n        /* \"contracts/event.sol\":2845:2865  eventData[eventAddr] */\n      0x00\n        /* \"contracts/event.sol\":2855:2864  eventAddr */\n      dup8\n        /* \"contracts/event.sol\":2845:2865  eventData[eventAddr] */\n      0xffffffffffffffffffffffffffffffffffffffff\n      and\n      0xffffffffffffffffffffffffffffffffffffffff\n      and\n      dup2\n      mstore\n      0x20\n      add\n      swap1\n      dup2\n      mstore\n      0x20\n      add\n      0x00\n      keccak256\n        /* \"contracts/event.sol\":2845:2871  eventData[eventAddr].price */\n      0x03\n      add\n      sload\n        /* \"contracts/event.sol\":2832:2871  eventPrice = eventData[eventAddr].price */\n      swap1\n      pop\n        /* \"contracts/event.sol\":2474:2878  function getEvent(address eventAddr) public view ... */\n      swap2\n      swap4\n      swap6\n      swap1\n      swap3\n      swap5\n      pop\n      jump\t// out\n    tag_97:\n      dup3\n      dup1\n      sload\n      tag_164\n      swap1\n      tag_64\n      jump\t// in\n    tag_164:\n      swap1\n      0x00\n      mstore\n      keccak256(0x00, 0x20)\n      swap1\n      0x1f\n      add\n      0x20\n      swap1\n      div\n      dup2\n      add\n      swap3\n      dup3\n      tag_166\n      jumpi\n      0x00\n      dup6\n      sstore\n      jump(tag_165)\n    tag_166:\n      dup3\n      0x1f\n      lt\n      tag_167\n      jumpi\n      dup1\n      mload\n      not(0xff)\n      and\n      dup4\n      dup1\n      add\n      or\n      dup6\n      sstore\n      jump(tag_165)\n    tag_167:\n      dup3\n      dup1\n      add\n      0x01\n      add\n      dup6\n      sstore\n      dup3\n      iszero\n      tag_165\n      jumpi\n      swap2\n      dup3\n      add\n    tag_168:\n      dup3\n      dup2\n      gt\n      iszero\n      tag_169\n      jumpi\n      dup3\n      mload\n      dup3\n      sstore\n      swap2\n      0x20\n      add\n      swap2\n      swap1\n      0x01\n      add\n      swap1\n      jump(tag_168)\n    tag_169:\n    tag_165:\n      pop\n      swap1\n      pop\n      tag_170\n      swap2\n      swap1\n      tag_171\n      jump\t// in\n    tag_170:\n      pop\n      swap1\n      jump\t// out\n    tag_105:\n      pop\n      dup1\n      sload\n      tag_172\n      swap1\n      tag_64\n      jump\t// in\n    tag_172:\n      0x00\n      dup3\n      sstore\n      dup1\n      0x1f\n      lt\n      tag_174\n      jumpi\n      pop\n      jump(tag_173)\n    tag_174:\n      0x1f\n      add\n      0x20\n      swap1\n      div\n      swap1\n      0x00\n      mstore\n      keccak256(0x00, 0x20)\n      swap1\n      dup2\n      add\n      swap1\n      tag_175\n      swap2\n      swap1\n      tag_171\n      jump\t// in\n    tag_175:\n    tag_173:\n      pop\n      jump\t// out\n    tag_142:\n      mload(0x40)\n      dup1\n      0x80\n      add\n      0x40\n      mstore\n      dup1\n      0x60\n      dup2\n      mstore\n      0x20\n      add\n      0x60\n      dup2\n      mstore\n      0x20\n      add\n      0x00\n      dup2\n      mstore\n      0x20\n      add\n      0x00\n      dup2\n      mstore\n      pop\n      swap1\n      jump\t// out\n    tag_171:\n    tag_176:\n      dup1\n      dup3\n      gt\n      iszero\n      tag_177\n      jumpi\n      0x00\n      dup2\n      0x00\n      swap1\n      sstore\n      pop\n      0x01\n      add\n      jump(tag_176)\n    tag_177:\n      pop\n      swap1\n      jump\t// out\n        /* \"#utility.yul\":7:419   */\n    tag_179:\n        /* \"#utility.yul\":85:90   */\n      0x00\n        /* \"#utility.yul\":110:176   */\n      tag_181\n        /* \"#utility.yul\":126:175   */\n      tag_182\n        /* \"#utility.yul\":168:174   */\n      dup5\n        /* \"#utility.yul\":126:175   */\n      tag_183\n      jump\t// in\n    tag_182:\n        /* \"#utility.yul\":110:176   */\n      tag_184\n      jump\t// in\n    tag_181:\n        /* \"#utility.yul\":101:176   */\n      swap1\n      pop\n        /* \"#utility.yul\":199:205   */\n      dup3\n        /* \"#utility.yul\":192:197   */\n      dup2\n        /* \"#utility.yul\":185:206   */\n      mstore\n        /* \"#utility.yul\":237:241   */\n      0x20\n        /* \"#utility.yul\":230:235   */\n      dup2\n        /* \"#utility.yul\":226:242   */\n      add\n        /* \"#utility.yul\":275:278   */\n      dup5\n        /* \"#utility.yul\":266:272   */\n      dup5\n        /* \"#utility.yul\":261:264   */\n      dup5\n        /* \"#utility.yul\":257:273   */\n      add\n        /* \"#utility.yul\":254:279   */\n      gt\n        /* \"#utility.yul\":251:363   */\n      iszero\n      tag_185\n      jumpi\n        /* \"#utility.yul\":282:361   */\n      tag_186\n      tag_187\n      jump\t// in\n    tag_186:\n        /* \"#utility.yul\":251:363   */\n    tag_185:\n        /* \"#utility.yul\":372:413   */\n      tag_188\n        /* \"#utility.yul\":406:412   */\n      dup5\n        /* \"#utility.yul\":401:404   */\n      dup3\n        /* \"#utility.yul\":396:399   */\n      dup6\n        /* \"#utility.yul\":372:413   */\n      tag_189\n      jump\t// in\n    tag_188:\n        /* \"#utility.yul\":91:419   */\n      pop\n        /* \"#utility.yul\":7:419   */\n      swap4\n      swap3\n      pop\n      pop\n      pop\n      jump\t// out\n        /* \"#utility.yul\":425:564   */\n    tag_190:\n        /* \"#utility.yul\":471:476   */\n      0x00\n        /* \"#utility.yul\":509:515   */\n      dup2\n        /* \"#utility.yul\":496:516   */\n      calldataload\n        /* \"#utility.yul\":487:516   */\n      swap1\n      pop\n        /* \"#utility.yul\":525:558   */\n      tag_192\n        /* \"#utility.yul\":552:557   */\n      dup2\n        /* \"#utility.yul\":525:558   */\n      tag_193\n      jump\t// in\n    tag_192:\n        /* \"#utility.yul\":425:564   */\n      swap3\n      swap2\n      pop\n      pop\n      jump\t// out\n        /* \"#utility.yul\":584:924   */\n    tag_194:\n        /* \"#utility.yul\":640:645   */\n      0x00\n        /* \"#utility.yul\":689:692   */\n      dup3\n        /* \"#utility.yul\":682:686   */\n      0x1f\n        /* \"#utility.yul\":674:680   */\n      dup4\n        /* \"#utility.yul\":670:687   */\n      add\n        /* \"#utility.yul\":666:693   */\n      slt\n        /* \"#utility.yul\":656:778   */\n      tag_196\n      jumpi\n        /* \"#utility.yul\":697:776   */\n      tag_197\n      tag_198\n      jump\t// in\n    tag_197:\n        /* \"#utility.yul\":656:778   */\n    tag_196:\n        /* \"#utility.yul\":814:820   */\n      dup2\n        /* \"#utility.yul\":801:821   */\n      calldataload\n        /* \"#utility.yul\":839:918   */\n      tag_199\n        /* \"#utility.yul\":914:917   */\n      dup5\n        /* \"#utility.yul\":906:912   */\n      dup3\n        /* \"#utility.yul\":899:903   */\n      0x20\n        /* \"#utility.yul\":891:897   */\n      dup7\n        /* \"#utility.yul\":887:904   */\n      add\n        /* \"#utility.yul\":839:918   */\n      tag_179\n      jump\t// in\n    tag_199:\n        /* \"#utility.yul\":830:918   */\n      swap2\n      pop\n        /* \"#utility.yul\":646:924   */\n      pop\n        /* \"#utility.yul\":584:924   */\n      swap3\n      swap2\n      pop\n      pop\n      jump\t// out\n        /* \"#utility.yul\":930:1069   */\n    tag_200:\n        /* \"#utility.yul\":976:981   */\n      0x00\n        /* \"#utility.yul\":1014:1020   */\n      dup2\n        /* \"#utility.yul\":1001:1021   */\n      calldataload\n        /* \"#utility.yul\":992:1021   */\n      swap1\n      pop\n        /* \"#utility.yul\":1030:1063   */\n      tag_202\n        /* \"#utility.yul\":1057:1062   */\n      dup2\n        /* \"#utility.yul\":1030:1063   */\n      tag_203\n      jump\t// in\n    tag_202:\n        /* \"#utility.yul\":930:1069   */\n      swap3\n      swap2\n      pop\n      pop\n      jump\t// out\n        /* \"#utility.yul\":1075:1404   */\n    tag_38:\n        /* \"#utility.yul\":1134:1140   */\n      0x00\n        /* \"#utility.yul\":1183:1185   */\n      0x20\n        /* \"#utility.yul\":1171:1180   */\n      dup3\n        /* \"#utility.yul\":1162:1169   */\n      dup5\n        /* \"#utility.yul\":1158:1181   */\n      sub\n        /* \"#utility.yul\":1154:1186   */\n      slt\n        /* \"#utility.yul\":1151:1270   */\n      iszero\n      tag_205\n      jumpi\n        /* \"#utility.yul\":1189:1268   */\n      tag_206\n      tag_207\n      jump\t// in\n    tag_206:\n        /* \"#utility.yul\":1151:1270   */\n    tag_205:\n        /* \"#utility.yul\":1309:1310   */\n      0x00\n        /* \"#utility.yul\":1334:1387   */\n      tag_208\n        /* \"#utility.yul\":1379:1386   */\n      dup5\n        /* \"#utility.yul\":1370:1376   */\n      dup3\n        /* \"#utility.yul\":1359:1368   */\n      dup6\n        /* \"#utility.yul\":1355:1377   */\n      add\n        /* \"#utility.yul\":1334:1387   */\n      tag_190\n      jump\t// in\n    tag_208:\n        /* \"#utility.yul\":1324:1387   */\n      swap2\n      pop\n        /* \"#utility.yul\":1280:1397   */\n      pop\n        /* \"#utility.yul\":1075:1404   */\n      swap3\n      swap2\n      pop\n      pop\n      jump\t// out\n        /* \"#utility.yul\":1410:2681   */\n    tag_29:\n        /* \"#utility.yul\":1525:1531   */\n      0x00\n        /* \"#utility.yul\":1533:1539   */\n      dup1\n        /* \"#utility.yul\":1541:1547   */\n      0x00\n        /* \"#utility.yul\":1549:1555   */\n      dup1\n        /* \"#utility.yul\":1557:1563   */\n      0x00\n        /* \"#utility.yul\":1606:1609   */\n      0xa0\n        /* \"#utility.yul\":1594:1603   */\n      dup7\n        /* \"#utility.yul\":1585:1592   */\n      dup9\n        /* \"#utility.yul\":1581:1604   */\n      sub\n        /* \"#utility.yul\":1577:1610   */\n      slt\n        /* \"#utility.yul\":1574:1694   */\n      iszero\n      tag_210\n      jumpi\n        /* \"#utility.yul\":1613:1692   */\n      tag_211\n      tag_207\n      jump\t// in\n    tag_211:\n        /* \"#utility.yul\":1574:1694   */\n    tag_210:\n        /* \"#utility.yul\":1733:1734   */\n      0x00\n        /* \"#utility.yul\":1758:1811   */\n      tag_212\n        /* \"#utility.yul\":1803:1810   */\n      dup9\n        /* \"#utility.yul\":1794:1800   */\n      dup3\n        /* \"#utility.yul\":1783:1792   */\n      dup10\n        /* \"#utility.yul\":1779:1801   */\n      add\n        /* \"#utility.yul\":1758:1811   */\n      tag_190\n      jump\t// in\n    tag_212:\n        /* \"#utility.yul\":1748:1811   */\n      swap6\n      pop\n        /* \"#utility.yul\":1704:1821   */\n      pop\n        /* \"#utility.yul\":1888:1890   */\n      0x20\n        /* \"#utility.yul\":1877:1886   */\n      dup7\n        /* \"#utility.yul\":1873:1891   */\n      add\n        /* \"#utility.yul\":1860:1892   */\n      calldataload\n        /* \"#utility.yul\":1919:1937   */\n      0xffffffffffffffff\n        /* \"#utility.yul\":1911:1917   */\n      dup2\n        /* \"#utility.yul\":1908:1938   */\n      gt\n        /* \"#utility.yul\":1905:2022   */\n      iszero\n      tag_213\n      jumpi\n        /* \"#utility.yul\":1941:2020   */\n      tag_214\n      tag_215\n      jump\t// in\n    tag_214:\n        /* \"#utility.yul\":1905:2022   */\n    tag_213:\n        /* \"#utility.yul\":2046:2109   */\n      tag_216\n        /* \"#utility.yul\":2101:2108   */\n      dup9\n        /* \"#utility.yul\":2092:2098   */\n      dup3\n        /* \"#utility.yul\":2081:2090   */\n      dup10\n        /* \"#utility.yul\":2077:2099   */\n      add\n        /* \"#utility.yul\":2046:2109   */\n      tag_194\n      jump\t// in\n    tag_216:\n        /* \"#utility.yul\":2036:2109   */\n      swap5\n      pop\n        /* \"#utility.yul\":1831:2119   */\n      pop\n        /* \"#utility.yul\":2186:2188   */\n      0x40\n        /* \"#utility.yul\":2175:2184   */\n      dup7\n        /* \"#utility.yul\":2171:2189   */\n      add\n        /* \"#utility.yul\":2158:2190   */\n      calldataload\n        /* \"#utility.yul\":2217:2235   */\n      0xffffffffffffffff\n        /* \"#utility.yul\":2209:2215   */\n      dup2\n        /* \"#utility.yul\":2206:2236   */\n      gt\n        /* \"#utility.yul\":2203:2320   */\n      iszero\n      tag_217\n      jumpi\n        /* \"#utility.yul\":2239:2318   */\n      tag_218\n      tag_215\n      jump\t// in\n    tag_218:\n        /* \"#utility.yul\":2203:2320   */\n    tag_217:\n        /* \"#utility.yul\":2344:2407   */\n      tag_219\n        /* \"#utility.yul\":2399:2406   */\n      dup9\n        /* \"#utility.yul\":2390:2396   */\n      dup3\n        /* \"#utility.yul\":2379:2388   */\n      dup10\n        /* \"#utility.yul\":2375:2397   */\n      add\n        /* \"#utility.yul\":2344:2407   */\n      tag_194\n      jump\t// in\n    tag_219:\n        /* \"#utility.yul\":2334:2407   */\n      swap4\n      pop\n        /* \"#utility.yul\":2129:2417   */\n      pop\n        /* \"#utility.yul\":2456:2458   */\n      0x60\n        /* \"#utility.yul\":2482:2535   */\n      tag_220\n        /* \"#utility.yul\":2527:2534   */\n      dup9\n        /* \"#utility.yul\":2518:2524   */\n      dup3\n        /* \"#utility.yul\":2507:2516   */\n      dup10\n        /* \"#utility.yul\":2503:2525   */\n      add\n        /* \"#utility.yul\":2482:2535   */\n      tag_200\n      jump\t// in\n    tag_220:\n        /* \"#utility.yul\":2472:2535   */\n      swap3\n      pop\n        /* \"#utility.yul\":2427:2545   */\n      pop\n        /* \"#utility.yul\":2584:2587   */\n      0x80\n        /* \"#utility.yul\":2611:2664   */\n      tag_221\n        /* \"#utility.yul\":2656:2663   */\n      dup9\n        /* \"#utility.yul\":2647:2653   */\n      dup3\n        /* \"#utility.yul\":2636:2645   */\n      dup10\n        /* \"#utility.yul\":2632:2654   */\n      add\n        /* \"#utility.yul\":2611:2664   */\n      tag_200\n      jump\t// in\n    tag_221:\n        /* \"#utility.yul\":2601:2664   */\n      swap2\n      pop\n        /* \"#utility.yul\":2555:2674   */\n      pop\n        /* \"#utility.yul\":1410:2681   */\n      swap3\n      swap6\n      pop\n      swap3\n      swap6\n      swap1\n      swap4\n      pop\n      jump\t// out\n        /* \"#utility.yul\":2687:3161   */\n    tag_15:\n        /* \"#utility.yul\":2755:2761   */\n      0x00\n        /* \"#utility.yul\":2763:2769   */\n      dup1\n        /* \"#utility.yul\":2812:2814   */\n      0x40\n        /* \"#utility.yul\":2800:2809   */\n      dup4\n        /* \"#utility.yul\":2791:2798   */\n      dup6\n        /* \"#utility.yul\":2787:2810   */\n      sub\n        /* \"#utility.yul\":2783:2815   */\n      slt\n        /* \"#utility.yul\":2780:2899   */\n      iszero\n      tag_223\n      jumpi\n        /* \"#utility.yul\":2818:2897   */\n      tag_224\n      tag_207\n      jump\t// in\n    tag_224:\n        /* \"#utility.yul\":2780:2899   */\n    tag_223:\n        /* \"#utility.yul\":2938:2939   */\n      0x00\n        /* \"#utility.yul\":2963:3016   */\n      tag_225\n        /* \"#utility.yul\":3008:3015   */\n      dup6\n        /* \"#utility.yul\":2999:3005   */\n      dup3\n        /* \"#utility.yul\":2988:2997   */\n      dup7\n        /* \"#utility.yul\":2984:3006   */\n      add\n        /* \"#utility.yul\":2963:3016   */\n      tag_190\n      jump\t// in\n    tag_225:\n        /* \"#utility.yul\":2953:3016   */\n      swap3\n      pop\n        /* \"#utility.yul\":2909:3026   */\n      pop\n        /* \"#utility.yul\":3065:3067   */\n      0x20\n        /* \"#utility.yul\":3091:3144   */\n      tag_226\n        /* \"#utility.yul\":3136:3143   */\n      dup6\n        /* \"#utility.yul\":3127:3133   */\n      dup3\n        /* \"#utility.yul\":3116:3125   */\n      dup7\n        /* \"#utility.yul\":3112:3134   */\n      add\n        /* \"#utility.yul\":3091:3144   */\n      tag_200\n      jump\t// in\n    tag_226:\n        /* \"#utility.yul\":3081:3144   */\n      swap2\n      pop\n        /* \"#utility.yul\":3036:3154   */\n      pop\n        /* \"#utility.yul\":2687:3161   */\n      swap3\n      pop\n      swap3\n      swap1\n      pop\n      jump\t// out\n        /* \"#utility.yul\":3167:3496   */\n    tag_22:\n        /* \"#utility.yul\":3226:3232   */\n      0x00\n        /* \"#utility.yul\":3275:3277   */\n      0x20\n        /* \"#utility.yul\":3263:3272   */\n      dup3\n        /* \"#utility.yul\":3254:3261   */\n      dup5\n        /* \"#utility.yul\":3250:3273   */\n      sub\n        /* \"#utility.yul\":3246:3278   */\n      slt\n        /* \"#utility.yul\":3243:3362   */\n      iszero\n      tag_228\n      jumpi\n        /* \"#utility.yul\":3281:3360   */\n      tag_229\n      tag_207\n      jump\t// in\n    tag_229:\n        /* \"#utility.yul\":3243:3362   */\n    tag_228:\n        /* \"#utility.yul\":3401:3402   */\n      0x00\n        /* \"#utility.yul\":3426:3479   */\n      tag_230\n        /* \"#utility.yul\":3471:3478   */\n      dup5\n        /* \"#utility.yul\":3462:3468   */\n      dup3\n        /* \"#utility.yul\":3451:3460   */\n      dup6\n        /* \"#utility.yul\":3447:3469   */\n      add\n        /* \"#utility.yul\":3426:3479   */\n      tag_200\n      jump\t// in\n    tag_230:\n        /* \"#utility.yul\":3416:3479   */\n      swap2\n      pop\n        /* \"#utility.yul\":3372:3489   */\n      pop\n        /* \"#utility.yul\":3167:3496   */\n      swap3\n      swap2\n      pop\n      pop\n      jump\t// out\n        /* \"#utility.yul\":3502:3620   */\n    tag_231:\n        /* \"#utility.yul\":3589:3613   */\n      tag_233\n        /* \"#utility.yul\":3607:3612   */\n      dup2\n        /* \"#utility.yul\":3589:3613   */\n      tag_234\n      jump\t// in\n    tag_233:\n        /* \"#utility.yul\":3584:3587   */\n      dup3\n        /* \"#utility.yul\":3577:3614   */\n      mstore\n        /* \"#utility.yul\":3502:3620   */\n      pop\n      pop\n      jump\t// out\n        /* \"#utility.yul\":3626:3990   */\n    tag_235:\n        /* \"#utility.yul\":3714:3717   */\n      0x00\n        /* \"#utility.yul\":3742:3781   */\n      tag_237\n        /* \"#utility.yul\":3775:3780   */\n      dup3\n        /* \"#utility.yul\":3742:3781   */\n      tag_238\n      jump\t// in\n    tag_237:\n        /* \"#utility.yul\":3797:3868   */\n      tag_239\n        /* \"#utility.yul\":3861:3867   */\n      dup2\n        /* \"#utility.yul\":3856:3859   */\n      dup6\n        /* \"#utility.yul\":3797:3868   */\n      tag_240\n      jump\t// in\n    tag_239:\n        /* \"#utility.yul\":3790:3868   */\n      swap4\n      pop\n        /* \"#utility.yul\":3877:3929   */\n      tag_241\n        /* \"#utility.yul\":3922:3928   */\n      dup2\n        /* \"#utility.yul\":3917:3920   */\n      dup6\n        /* \"#utility.yul\":3910:3914   */\n      0x20\n        /* \"#utility.yul\":3903:3908   */\n      dup7\n        /* \"#utility.yul\":3899:3915   */\n      add\n        /* \"#utility.yul\":3877:3929   */\n      tag_242\n      jump\t// in\n    tag_241:\n        /* \"#utility.yul\":3954:3983   */\n      tag_243\n        /* \"#utility.yul\":3976:3982   */\n      dup2\n        /* \"#utility.yul\":3954:3983   */\n      tag_244\n      jump\t// in\n    tag_243:\n        /* \"#utility.yul\":3949:3952   */\n      dup5\n        /* \"#utility.yul\":3945:3984   */\n      add\n        /* \"#utility.yul\":3938:3984   */\n      swap2\n      pop\n        /* \"#utility.yul\":3718:3990   */\n      pop\n        /* \"#utility.yul\":3626:3990   */\n      swap3\n      swap2\n      pop\n      pop\n      jump\t// out\n        /* \"#utility.yul\":3996:4362   */\n    tag_245:\n        /* \"#utility.yul\":4138:4141   */\n      0x00\n        /* \"#utility.yul\":4159:4226   */\n      tag_247\n        /* \"#utility.yul\":4223:4225   */\n      0x1b\n        /* \"#utility.yul\":4218:4221   */\n      dup4\n        /* \"#utility.yul\":4159:4226   */\n      tag_240\n      jump\t// in\n    tag_247:\n        /* \"#utility.yul\":4152:4226   */\n      swap2\n      pop\n        /* \"#utility.yul\":4235:4328   */\n      tag_248\n        /* \"#utility.yul\":4324:4327   */\n      dup3\n        /* \"#utility.yul\":4235:4328   */\n      tag_249\n      jump\t// in\n    tag_248:\n        /* \"#utility.yul\":4353:4355   */\n      0x20\n        /* \"#utility.yul\":4348:4351   */\n      dup3\n        /* \"#utility.yul\":4344:4356   */\n      add\n        /* \"#utility.yul\":4337:4356   */\n      swap1\n      pop\n        /* \"#utility.yul\":3996:4362   */\n      swap2\n      swap1\n      pop\n      jump\t// out\n        /* \"#utility.yul\":4368:4734   */\n    tag_250:\n        /* \"#utility.yul\":4510:4513   */\n      0x00\n        /* \"#utility.yul\":4531:4598   */\n      tag_252\n        /* \"#utility.yul\":4595:4597   */\n      0x23\n        /* \"#utility.yul\":4590:4593   */\n      dup4\n        /* \"#utility.yul\":4531:4598   */\n      tag_240\n      jump\t// in\n    tag_252:\n        /* \"#utility.yul\":4524:4598   */\n      swap2\n      pop\n        /* \"#utility.yul\":4607:4700   */\n      tag_253\n        /* \"#utility.yul\":4696:4699   */\n      dup3\n        /* \"#utility.yul\":4607:4700   */\n      tag_254\n      jump\t// in\n    tag_253:\n        /* \"#utility.yul\":4725:4727   */\n      0x40\n        /* \"#utility.yul\":4720:4723   */\n      dup3\n        /* \"#utility.yul\":4716:4728   */\n      add\n        /* \"#utility.yul\":4709:4728   */\n      swap1\n      pop\n        /* \"#utility.yul\":4368:4734   */\n      swap2\n      swap1\n      pop\n      jump\t// out\n        /* \"#utility.yul\":4740:5106   */\n    tag_255:\n        /* \"#utility.yul\":4882:4885   */\n      0x00\n        /* \"#utility.yul\":4903:4970   */\n      tag_257\n        /* \"#utility.yul\":4967:4969   */\n      0x17\n        /* \"#utility.yul\":4962:4965   */\n      dup4\n        /* \"#utility.yul\":4903:4970   */\n      tag_240\n      jump\t// in\n    tag_257:\n        /* \"#utility.yul\":4896:4970   */\n      swap2\n      pop\n        /* \"#utility.yul\":4979:5072   */\n      tag_258\n        /* \"#utility.yul\":5068:5071   */\n      dup3\n        /* \"#utility.yul\":4979:5072   */\n      tag_259\n      jump\t// in\n    tag_258:\n        /* \"#utility.yul\":5097:5099   */\n      0x20\n        /* \"#utility.yul\":5092:5095   */\n      dup3\n        /* \"#utility.yul\":5088:5100   */\n      add\n        /* \"#utility.yul\":5081:5100   */\n      swap1\n      pop\n        /* \"#utility.yul\":4740:5106   */\n      swap2\n      swap1\n      pop\n      jump\t// out\n        /* \"#utility.yul\":5112:5478   */\n    tag_260:\n        /* \"#utility.yul\":5254:5257   */\n      0x00\n        /* \"#utility.yul\":5275:5342   */\n      tag_262\n        /* \"#utility.yul\":5339:5341   */\n      0x1f\n        /* \"#utility.yul\":5334:5337   */\n      dup4\n        /* \"#utility.yul\":5275:5342   */\n      tag_240\n      jump\t// in\n    tag_262:\n        /* \"#utility.yul\":5268:5342   */\n      swap2\n      pop\n        /* \"#utility.yul\":5351:5444   */\n      tag_263\n        /* \"#utility.yul\":5440:5443   */\n      dup3\n        /* \"#utility.yul\":5351:5444   */\n      tag_264\n      jump\t// in\n    tag_263:\n        /* \"#utility.yul\":5469:5471   */\n      0x20\n        /* \"#utility.yul\":5464:5467   */\n      dup3\n        /* \"#utility.yul\":5460:5472   */\n      add\n        /* \"#utility.yul\":5453:5472   */\n      swap1\n      pop\n        /* \"#utility.yul\":5112:5478   */\n      swap2\n      swap1\n      pop\n      jump\t// out\n        /* \"#utility.yul\":5484:5850   */\n    tag_265:\n        /* \"#utility.yul\":5626:5629   */\n      0x00\n        /* \"#utility.yul\":5647:5714   */\n      tag_267\n        /* \"#utility.yul\":5711:5713   */\n      0x15\n        /* \"#utility.yul\":5706:5709   */\n      dup4\n        /* \"#utility.yul\":5647:5714   */\n      tag_240\n      jump\t// in\n    tag_267:\n        /* \"#utility.yul\":5640:5714   */\n      swap2\n      pop\n        /* \"#utility.yul\":5723:5816   */\n      tag_268\n        /* \"#utility.yul\":5812:5815   */\n      dup3\n        /* \"#utility.yul\":5723:5816   */\n      tag_269\n      jump\t// in\n    tag_268:\n        /* \"#utility.yul\":5841:5843   */\n      0x20\n        /* \"#utility.yul\":5836:5839   */\n      dup3\n        /* \"#utility.yul\":5832:5844   */\n      add\n        /* \"#utility.yul\":5825:5844   */\n      swap1\n      pop\n        /* \"#utility.yul\":5484:5850   */\n      swap2\n      swap1\n      pop\n      jump\t// out\n        /* \"#utility.yul\":5856:6222   */\n    tag_270:\n        /* \"#utility.yul\":5998:6001   */\n      0x00\n        /* \"#utility.yul\":6019:6086   */\n      tag_272\n        /* \"#utility.yul\":6083:6085   */\n      0x1c\n        /* \"#utility.yul\":6078:6081   */\n      dup4\n        /* \"#utility.yul\":6019:6086   */\n      tag_240\n      jump\t// in\n    tag_272:\n        /* \"#utility.yul\":6012:6086   */\n      swap2\n      pop\n        /* \"#utility.yul\":6095:6188   */\n      tag_273\n        /* \"#utility.yul\":6184:6187   */\n      dup3\n        /* \"#utility.yul\":6095:6188   */\n      tag_274\n      jump\t// in\n    tag_273:\n        /* \"#utility.yul\":6213:6215   */\n      0x20\n        /* \"#utility.yul\":6208:6211   */\n      dup3\n        /* \"#utility.yul\":6204:6216   */\n      add\n        /* \"#utility.yul\":6197:6216   */\n      swap1\n      pop\n        /* \"#utility.yul\":5856:6222   */\n      swap2\n      swap1\n      pop\n      jump\t// out\n        /* \"#utility.yul\":6228:6594   */\n    tag_275:\n        /* \"#utility.yul\":6370:6373   */\n      0x00\n        /* \"#utility.yul\":6391:6458   */\n      tag_277\n        /* \"#utility.yul\":6455:6457   */\n      0x24\n        /* \"#utility.yul\":6450:6453   */\n      dup4\n        /* \"#utility.yul\":6391:6458   */\n      tag_240\n      jump\t// in\n    tag_277:\n        /* \"#utility.yul\":6384:6458   */\n      swap2\n      pop\n        /* \"#utility.yul\":6467:6560   */\n      tag_278\n        /* \"#utility.yul\":6556:6559   */\n      dup3\n        /* \"#utility.yul\":6467:6560   */\n      tag_279\n      jump\t// in\n    tag_278:\n        /* \"#utility.yul\":6585:6587   */\n      0x40\n        /* \"#utility.yul\":6580:6583   */\n      dup3\n        /* \"#utility.yul\":6576:6588   */\n      add\n        /* \"#utility.yul\":6569:6588   */\n      swap1\n      pop\n        /* \"#utility.yul\":6228:6594   */\n      swap2\n      swap1\n      pop\n      jump\t// out\n        /* \"#utility.yul\":6600:6966   */\n    tag_280:\n        /* \"#utility.yul\":6742:6745   */\n      0x00\n        /* \"#utility.yul\":6763:6830   */\n      tag_282\n        /* \"#utility.yul\":6827:6829   */\n      0x1f\n        /* \"#utility.yul\":6822:6825   */\n      dup4\n        /* \"#utility.yul\":6763:6830   */\n      tag_240\n      jump\t// in\n    tag_282:\n        /* \"#utility.yul\":6756:6830   */\n      swap2\n      pop\n        /* \"#utility.yul\":6839:6932   */\n      tag_283\n        /* \"#utility.yul\":6928:6931   */\n      dup3\n        /* \"#utility.yul\":6839:6932   */\n      tag_284\n      jump\t// in\n    tag_283:\n        /* \"#utility.yul\":6957:6959   */\n      0x20\n        /* \"#utility.yul\":6952:6955   */\n      dup3\n        /* \"#utility.yul\":6948:6960   */\n      add\n        /* \"#utility.yul\":6941:6960   */\n      swap1\n      pop\n        /* \"#utility.yul\":6600:6966   */\n      swap2\n      swap1\n      pop\n      jump\t// out\n        /* \"#utility.yul\":6972:7090   */\n    tag_285:\n        /* \"#utility.yul\":7059:7083   */\n      tag_287\n        /* \"#utility.yul\":7077:7082   */\n      dup2\n        /* \"#utility.yul\":7059:7083   */\n      tag_288\n      jump\t// in\n    tag_287:\n        /* \"#utility.yul\":7054:7057   */\n      dup3\n        /* \"#utility.yul\":7047:7084   */\n      mstore\n        /* \"#utility.yul\":6972:7090   */\n      pop\n      pop\n      jump\t// out\n        /* \"#utility.yul\":7096:7318   */\n    tag_25:\n        /* \"#utility.yul\":7189:7193   */\n      0x00\n        /* \"#utility.yul\":7227:7229   */\n      0x20\n        /* \"#utility.yul\":7216:7225   */\n      dup3\n        /* \"#utility.yul\":7212:7230   */\n      add\n        /* \"#utility.yul\":7204:7230   */\n      swap1\n      pop\n        /* \"#utility.yul\":7240:7311   */\n      tag_290\n        /* \"#utility.yul\":7308:7309   */\n      0x00\n        /* \"#utility.yul\":7297:7306   */\n      dup4\n        /* \"#utility.yul\":7293:7310   */\n      add\n        /* \"#utility.yul\":7284:7290   */\n      dup5\n        /* \"#utility.yul\":7240:7311   */\n      tag_231\n      jump\t// in\n    tag_290:\n        /* \"#utility.yul\":7096:7318   */\n      swap3\n      swap2\n      pop\n      pop\n      jump\t// out\n        /* \"#utility.yul\":7324:8170   */\n    tag_49:\n        /* \"#utility.yul\":7569:7573   */\n      0x00\n        /* \"#utility.yul\":7607:7610   */\n      0xa0\n        /* \"#utility.yul\":7596:7605   */\n      dup3\n        /* \"#utility.yul\":7592:7611   */\n      add\n        /* \"#utility.yul\":7584:7611   */\n      swap1\n      pop\n        /* \"#utility.yul\":7621:7692   */\n      tag_292\n        /* \"#utility.yul\":7689:7690   */\n      0x00\n        /* \"#utility.yul\":7678:7687   */\n      dup4\n        /* \"#utility.yul\":7674:7691   */\n      add\n        /* \"#utility.yul\":7665:7671   */\n      dup9\n        /* \"#utility.yul\":7621:7692   */\n      tag_231\n      jump\t// in\n    tag_292:\n        /* \"#utility.yul\":7739:7748   */\n      dup2\n        /* \"#utility.yul\":7733:7737   */\n      dup2\n        /* \"#utility.yul\":7729:7749   */\n      sub\n        /* \"#utility.yul\":7724:7726   */\n      0x20\n        /* \"#utility.yul\":7713:7722   */\n      dup4\n        /* \"#utility.yul\":7709:7727   */\n      add\n        /* \"#utility.yul\":7702:7750   */\n      mstore\n        /* \"#utility.yul\":7767:7845   */\n      tag_293\n        /* \"#utility.yul\":7840:7844   */\n      dup2\n        /* \"#utility.yul\":7831:7837   */\n      dup8\n        /* \"#utility.yul\":7767:7845   */\n      tag_235\n      jump\t// in\n    tag_293:\n        /* \"#utility.yul\":7759:7845   */\n      swap1\n      pop\n        /* \"#utility.yul\":7892:7901   */\n      dup2\n        /* \"#utility.yul\":7886:7890   */\n      dup2\n        /* \"#utility.yul\":7882:7902   */\n      sub\n        /* \"#utility.yul\":7877:7879   */\n      0x40\n        /* \"#utility.yul\":7866:7875   */\n      dup4\n        /* \"#utility.yul\":7862:7880   */\n      add\n        /* \"#utility.yul\":7855:7903   */\n      mstore\n        /* \"#utility.yul\":7920:7998   */\n      tag_294\n        /* \"#utility.yul\":7993:7997   */\n      dup2\n        /* \"#utility.yul\":7984:7990   */\n      dup7\n        /* \"#utility.yul\":7920:7998   */\n      tag_235\n      jump\t// in\n    tag_294:\n        /* \"#utility.yul\":7912:7998   */\n      swap1\n      pop\n        /* \"#utility.yul\":8008:8080   */\n      tag_295\n        /* \"#utility.yul\":8076:8078   */\n      0x60\n        /* \"#utility.yul\":8065:8074   */\n      dup4\n        /* \"#utility.yul\":8061:8079   */\n      add\n        /* \"#utility.yul\":8052:8058   */\n      dup6\n        /* \"#utility.yul\":8008:8080   */\n      tag_285\n      jump\t// in\n    tag_295:\n        /* \"#utility.yul\":8090:8163   */\n      tag_296\n        /* \"#utility.yul\":8158:8161   */\n      0x80\n        /* \"#utility.yul\":8147:8156   */\n      dup4\n        /* \"#utility.yul\":8143:8162   */\n      add\n        /* \"#utility.yul\":8134:8140   */\n      dup5\n        /* \"#utility.yul\":8090:8163   */\n      tag_285\n      jump\t// in\n    tag_296:\n        /* \"#utility.yul\":7324:8170   */\n      swap7\n      swap6\n      pop\n      pop\n      pop\n      pop\n      pop\n      pop\n      jump\t// out\n        /* \"#utility.yul\":8176:9224   */\n    tag_18:\n        /* \"#utility.yul\":8469:8473   */\n      0x00\n        /* \"#utility.yul\":8507:8510   */\n      0xc0\n        /* \"#utility.yul\":8496:8505   */\n      dup3\n        /* \"#utility.yul\":8492:8511   */\n      add\n        /* \"#utility.yul\":8484:8511   */\n      swap1\n      pop\n        /* \"#utility.yul\":8521:8592   */\n      tag_298\n        /* \"#utility.yul\":8589:8590   */\n      0x00\n        /* \"#utility.yul\":8578:8587   */\n      dup4\n        /* \"#utility.yul\":8574:8591   */\n      add\n        /* \"#utility.yul\":8565:8571   */\n      dup10\n        /* \"#utility.yul\":8521:8592   */\n      tag_231\n      jump\t// in\n    tag_298:\n        /* \"#utility.yul\":8639:8648   */\n      dup2\n        /* \"#utility.yul\":8633:8637   */\n      dup2\n        /* \"#utility.yul\":8629:8649   */\n      sub\n        /* \"#utility.yul\":8624:8626   */\n      0x20\n        /* \"#utility.yul\":8613:8622   */\n      dup4\n        /* \"#utility.yul\":8609:8627   */\n      add\n        /* \"#utility.yul\":8602:8650   */\n      mstore\n        /* \"#utility.yul\":8667:8745   */\n      tag_299\n        /* \"#utility.yul\":8740:8744   */\n      dup2\n        /* \"#utility.yul\":8731:8737   */\n      dup9\n        /* \"#utility.yul\":8667:8745   */\n      tag_235\n      jump\t// in\n    tag_299:\n        /* \"#utility.yul\":8659:8745   */\n      swap1\n      pop\n        /* \"#utility.yul\":8792:8801   */\n      dup2\n        /* \"#utility.yul\":8786:8790   */\n      dup2\n        /* \"#utility.yul\":8782:8802   */\n      sub\n        /* \"#utility.yul\":8777:8779   */\n      0x40\n        /* \"#utility.yul\":8766:8775   */\n      dup4\n        /* \"#utility.yul\":8762:8780   */\n      add\n        /* \"#utility.yul\":8755:8803   */\n      mstore\n        /* \"#utility.yul\":8820:8898   */\n      tag_300\n        /* \"#utility.yul\":8893:8897   */\n      dup2\n        /* \"#utility.yul\":8884:8890   */\n      dup8\n        /* \"#utility.yul\":8820:8898   */\n      tag_235\n      jump\t// in\n    tag_300:\n        /* \"#utility.yul\":8812:8898   */\n      swap1\n      pop\n        /* \"#utility.yul\":8908:8980   */\n      tag_301\n        /* \"#utility.yul\":8976:8978   */\n      0x60\n        /* \"#utility.yul\":8965:8974   */\n      dup4\n        /* \"#utility.yul\":8961:8979   */\n      add\n        /* \"#utility.yul\":8952:8958   */\n      dup7\n        /* \"#utility.yul\":8908:8980   */\n      tag_285\n      jump\t// in\n    tag_301:\n        /* \"#utility.yul\":8990:9063   */\n      tag_302\n        /* \"#utility.yul\":9058:9061   */\n      0x80\n        /* \"#utility.yul\":9047:9056   */\n      dup4\n        /* \"#utility.yul\":9043:9062   */\n      add\n        /* \"#utility.yul\":9034:9040   */\n      dup6\n        /* \"#utility.yul\":8990:9063   */\n      tag_285\n      jump\t// in\n    tag_302:\n        /* \"#utility.yul\":9111:9120   */\n      dup2\n        /* \"#utility.yul\":9105:9109   */\n      dup2\n        /* \"#utility.yul\":9101:9121   */\n      sub\n        /* \"#utility.yul\":9095:9098   */\n      0xa0\n        /* \"#utility.yul\":9084:9093   */\n      dup4\n        /* \"#utility.yul\":9080:9099   */\n      add\n        /* \"#utility.yul\":9073:9122   */\n      mstore\n        /* \"#utility.yul\":9139:9217   */\n      tag_303\n        /* \"#utility.yul\":9212:9216   */\n      dup2\n        /* \"#utility.yul\":9203:9209   */\n      dup5\n        /* \"#utility.yul\":9139:9217   */\n      tag_235\n      jump\t// in\n    tag_303:\n        /* \"#utility.yul\":9131:9217   */\n      swap1\n      pop\n        /* \"#utility.yul\":8176:9224   */\n      swap8\n      swap7\n      pop\n      pop\n      pop\n      pop\n      pop\n      pop\n      pop\n      jump\t// out\n        /* \"#utility.yul\":9230:9649   */\n    tag_88:\n        /* \"#utility.yul\":9396:9400   */\n      0x00\n        /* \"#utility.yul\":9434:9436   */\n      0x20\n        /* \"#utility.yul\":9423:9432   */\n      dup3\n        /* \"#utility.yul\":9419:9437   */\n      add\n        /* \"#utility.yul\":9411:9437   */\n      swap1\n      pop\n        /* \"#utility.yul\":9483:9492   */\n      dup2\n        /* \"#utility.yul\":9477:9481   */\n      dup2\n        /* \"#utility.yul\":9473:9493   */\n      sub\n        /* \"#utility.yul\":9469:9470   */\n      0x00\n        /* \"#utility.yul\":9458:9467   */\n      dup4\n        /* \"#utility.yul\":9454:9471   */\n      add\n        /* \"#utility.yul\":9447:9494   */\n      mstore\n        /* \"#utility.yul\":9511:9642   */\n      tag_305\n        /* \"#utility.yul\":9637:9641   */\n      dup2\n        /* \"#utility.yul\":9511:9642   */\n      tag_245\n      jump\t// in\n    tag_305:\n        /* \"#utility.yul\":9503:9642   */\n      swap1\n      pop\n        /* \"#utility.yul\":9230:9649   */\n      swap2\n      swap1\n      pop\n      jump\t// out\n        /* \"#utility.yul\":9655:10074   */\n    tag_62:\n        /* \"#utility.yul\":9821:9825   */\n      0x00\n        /* \"#utility.yul\":9859:9861   */\n      0x20\n        /* \"#utility.yul\":9848:9857   */\n      dup3\n        /* \"#utility.yul\":9844:9862   */\n      add\n        /* \"#utility.yul\":9836:9862   */\n      swap1\n      pop\n        /* \"#utility.yul\":9908:9917   */\n      dup2\n        /* \"#utility.yul\":9902:9906   */\n      dup2\n        /* \"#utility.yul\":9898:9918   */\n      sub\n        /* \"#utility.yul\":9894:9895   */\n      0x00\n        /* \"#utility.yul\":9883:9892   */\n      dup4\n        /* \"#utility.yul\":9879:9896   */\n      add\n        /* \"#utility.yul\":9872:9919   */\n      mstore\n        /* \"#utility.yul\":9936:10067   */\n      tag_307\n        /* \"#utility.yul\":10062:10066   */\n      dup2\n        /* \"#utility.yul\":9936:10067   */\n      tag_250\n      jump\t// in\n    tag_307:\n        /* \"#utility.yul\":9928:10067   */\n      swap1\n      pop\n        /* \"#utility.yul\":9655:10074   */\n      swap2\n      swap1\n      pop\n      jump\t// out\n        /* \"#utility.yul\":10080:10499   */\n    tag_59:\n        /* \"#utility.yul\":10246:10250   */\n      0x00\n        /* \"#utility.yul\":10284:10286   */\n      0x20\n        /* \"#utility.yul\":10273:10282   */\n      dup3\n        /* \"#utility.yul\":10269:10287   */\n      add\n        /* \"#utility.yul\":10261:10287   */\n      swap1\n      pop\n        /* \"#utility.yul\":10333:10342   */\n      dup2\n        /* \"#utility.yul\":10327:10331   */\n      dup2\n        /* \"#utility.yul\":10323:10343   */\n      sub\n        /* \"#utility.yul\":10319:10320   */\n      0x00\n        /* \"#utility.yul\":10308:10317   */\n      dup4\n        /* \"#utility.yul\":10304:10321   */\n      add\n        /* \"#utility.yul\":10297:10344   */\n      mstore\n        /* \"#utility.yul\":10361:10492   */\n      tag_309\n        /* \"#utility.yul\":10487:10491   */\n      dup2\n        /* \"#utility.yul\":10361:10492   */\n      tag_255\n      jump\t// in\n    tag_309:\n        /* \"#utility.yul\":10353:10492   */\n      swap1\n      pop\n        /* \"#utility.yul\":10080:10499   */\n      swap2\n      swap1\n      pop\n      jump\t// out\n        /* \"#utility.yul\":10505:10924   */\n    tag_95:\n        /* \"#utility.yul\":10671:10675   */\n      0x00\n        /* \"#utility.yul\":10709:10711   */\n      0x20\n        /* \"#utility.yul\":10698:10707   */\n      dup3\n        /* \"#utility.yul\":10694:10712   */\n      add\n        /* \"#utility.yul\":10686:10712   */\n      swap1\n      pop\n        /* \"#utility.yul\":10758:10767   */\n      dup2\n        /* \"#utility.yul\":10752:10756   */\n      dup2\n        /* \"#utility.yul\":10748:10768   */\n      sub\n        /* \"#utility.yul\":10744:10745   */\n      0x00\n        /* \"#utility.yul\":10733:10742   */\n      dup4\n        /* \"#utility.yul\":10729:10746   */\n      add\n        /* \"#utility.yul\":10722:10769   */\n      mstore\n        /* \"#utility.yul\":10786:10917   */\n      tag_311\n        /* \"#utility.yul\":10912:10916   */\n      dup2\n        /* \"#utility.yul\":10786:10917   */\n      tag_260\n      jump\t// in\n    tag_311:\n        /* \"#utility.yul\":10778:10917   */\n      swap1\n      pop\n        /* \"#utility.yul\":10505:10924   */\n      swap2\n      swap1\n      pop\n      jump\t// out\n        /* \"#utility.yul\":10930:11349   */\n    tag_53:\n        /* \"#utility.yul\":11096:11100   */\n      0x00\n        /* \"#utility.yul\":11134:11136   */\n      0x20\n        /* \"#utility.yul\":11123:11132   */\n      dup3\n        /* \"#utility.yul\":11119:11137   */\n      add\n        /* \"#utility.yul\":11111:11137   */\n      swap1\n      pop\n        /* \"#utility.yul\":11183:11192   */\n      dup2\n        /* \"#utility.yul\":11177:11181   */\n      dup2\n        /* \"#utility.yul\":11173:11193   */\n      sub\n        /* \"#utility.yul\":11169:11170   */\n      0x00\n        /* \"#utility.yul\":11158:11167   */\n      dup4\n        /* \"#utility.yul\":11154:11171   */\n      add\n        /* \"#utility.yul\":11147:11194   */\n      mstore\n        /* \"#utility.yul\":11211:11342   */\n      tag_313\n        /* \"#utility.yul\":11337:11341   */\n      dup2\n        /* \"#utility.yul\":11211:11342   */\n      tag_265\n      jump\t// in\n    tag_313:\n        /* \"#utility.yul\":11203:11342   */\n      swap1\n      pop\n        /* \"#utility.yul\":10930:11349   */\n      swap2\n      swap1\n      pop\n      jump\t// out\n        /* \"#utility.yul\":11355:11774   */\n    tag_56:\n        /* \"#utility.yul\":11521:11525   */\n      0x00\n        /* \"#utility.yul\":11559:11561   */\n      0x20\n        /* \"#utility.yul\":11548:11557   */\n      dup3\n        /* \"#utility.yul\":11544:11562   */\n      add\n        /* \"#utility.yul\":11536:11562   */\n      swap1\n      pop\n        /* \"#utility.yul\":11608:11617   */\n      dup2\n        /* \"#utility.yul\":11602:11606   */\n      dup2\n        /* \"#utility.yul\":11598:11618   */\n      sub\n        /* \"#utility.yul\":11594:11595   */\n      0x00\n        /* \"#utility.yul\":11583:11592   */\n      dup4\n        /* \"#utility.yul\":11579:11596   */\n      add\n        /* \"#utility.yul\":11572:11619   */\n      mstore\n        /* \"#utility.yul\":11636:11767   */\n      tag_315\n        /* \"#utility.yul\":11762:11766   */\n      dup2\n        /* \"#utility.yul\":11636:11767   */\n      tag_270\n      jump\t// in\n    tag_315:\n        /* \"#utility.yul\":11628:11767   */\n      swap1\n      pop\n        /* \"#utility.yul\":11355:11774   */\n      swap2\n      swap1\n      pop\n      jump\t// out\n        /* \"#utility.yul\":11780:12199   */\n    tag_80:\n        /* \"#utility.yul\":11946:11950   */\n      0x00\n        /* \"#utility.yul\":11984:11986   */\n      0x20\n        /* \"#utility.yul\":11973:11982   */\n      dup3\n        /* \"#utility.yul\":11969:11987   */\n      add\n        /* \"#utility.yul\":11961:11987   */\n      swap1\n      pop\n        /* \"#utility.yul\":12033:12042   */\n      dup2\n        /* \"#utility.yul\":12027:12031   */\n      dup2\n        /* \"#utility.yul\":12023:12043   */\n      sub\n        /* \"#utility.yul\":12019:12020   */\n      0x00\n        /* \"#utility.yul\":12008:12017   */\n      dup4\n        /* \"#utility.yul\":12004:12021   */\n      add\n        /* \"#utility.yul\":11997:12044   */\n      mstore\n        /* \"#utility.yul\":12061:12192   */\n      tag_317\n        /* \"#utility.yul\":12187:12191   */\n      dup2\n        /* \"#utility.yul\":12061:12192   */\n      tag_275\n      jump\t// in\n    tag_317:\n        /* \"#utility.yul\":12053:12192   */\n      swap1\n      pop\n        /* \"#utility.yul\":11780:12199   */\n      swap2\n      swap1\n      pop\n      jump\t// out\n        /* \"#utility.yul\":12205:12624   */\n    tag_92:\n        /* \"#utility.yul\":12371:12375   */\n      0x00\n        /* \"#utility.yul\":12409:12411   */\n      0x20\n        /* \"#utility.yul\":12398:12407   */\n      dup3\n        /* \"#utility.yul\":12394:12412   */\n      add\n        /* \"#utility.yul\":12386:12412   */\n      swap1\n      pop\n        /* \"#utility.yul\":12458:12467   */\n      dup2\n        /* \"#utility.yul\":12452:12456   */\n      dup2\n        /* \"#utility.yul\":12448:12468   */\n      sub\n        /* \"#utility.yul\":12444:12445   */\n      0x00\n        /* \"#utility.yul\":12433:12442   */\n      dup4\n        /* \"#utility.yul\":12429:12446   */\n      add\n        /* \"#utility.yul\":12422:12469   */\n      mstore\n        /* \"#utility.yul\":12486:12617   */\n      tag_319\n        /* \"#utility.yul\":12612:12616   */\n      dup2\n        /* \"#utility.yul\":12486:12617   */\n      tag_280\n      jump\t// in\n    tag_319:\n        /* \"#utility.yul\":12478:12617   */\n      swap1\n      pop\n        /* \"#utility.yul\":12205:12624   */\n      swap2\n      swap1\n      pop\n      jump\t// out\n        /* \"#utility.yul\":12630:12759   */\n    tag_184:\n        /* \"#utility.yul\":12664:12670   */\n      0x00\n        /* \"#utility.yul\":12691:12711   */\n      tag_321\n      tag_322\n      jump\t// in\n    tag_321:\n        /* \"#utility.yul\":12681:12711   */\n      swap1\n      pop\n        /* \"#utility.yul\":12720:12753   */\n      tag_323\n        /* \"#utility.yul\":12748:12752   */\n      dup3\n        /* \"#utility.yul\":12740:12746   */\n      dup3\n        /* \"#utility.yul\":12720:12753   */\n      tag_324\n      jump\t// in\n    tag_323:\n        /* \"#utility.yul\":12630:12759   */\n      swap2\n      swap1\n      pop\n      jump\t// out\n        /* \"#utility.yul\":12765:12840   */\n    tag_322:\n        /* \"#utility.yul\":12798:12804   */\n      0x00\n        /* \"#utility.yul\":12831:12833   */\n      0x40\n        /* \"#utility.yul\":12825:12834   */\n      mload\n        /* \"#utility.yul\":12815:12834   */\n      swap1\n      pop\n        /* \"#utility.yul\":12765:12840   */\n      swap1\n      jump\t// out\n        /* \"#utility.yul\":12846:13154   */\n    tag_183:\n        /* \"#utility.yul\":12908:12912   */\n      0x00\n        /* \"#utility.yul\":12998:13016   */\n      0xffffffffffffffff\n        /* \"#utility.yul\":12990:12996   */\n      dup3\n        /* \"#utility.yul\":12987:13017   */\n      gt\n        /* \"#utility.yul\":12984:13040   */\n      iszero\n      tag_327\n      jumpi\n        /* \"#utility.yul\":13020:13038   */\n      tag_328\n      tag_329\n      jump\t// in\n    tag_328:\n        /* \"#utility.yul\":12984:13040   */\n    tag_327:\n        /* \"#utility.yul\":13058:13087   */\n      tag_330\n        /* \"#utility.yul\":13080:13086   */\n      dup3\n        /* \"#utility.yul\":13058:13087   */\n      tag_244\n      jump\t// in\n    tag_330:\n        /* \"#utility.yul\":13050:13087   */\n      swap1\n      pop\n        /* \"#utility.yul\":13142:13146   */\n      0x20\n        /* \"#utility.yul\":13136:13140   */\n      dup2\n        /* \"#utility.yul\":13132:13147   */\n      add\n        /* \"#utility.yul\":13124:13147   */\n      swap1\n      pop\n        /* \"#utility.yul\":12846:13154   */\n      swap2\n      swap1\n      pop\n      jump\t// out\n        /* \"#utility.yul\":13160:13259   */\n    tag_238:\n        /* \"#utility.yul\":13212:13218   */\n      0x00\n        /* \"#utility.yul\":13246:13251   */\n      dup2\n        /* \"#utility.yul\":13240:13252   */\n      mload\n        /* \"#utility.yul\":13230:13252   */\n      swap1\n      pop\n        /* \"#utility.yul\":13160:13259   */\n      swap2\n      swap1\n      pop\n      jump\t// out\n        /* \"#utility.yul\":13265:13434   */\n    tag_240:\n        /* \"#utility.yul\":13349:13360   */\n      0x00\n        /* \"#utility.yul\":13383:13389   */\n      dup3\n        /* \"#utility.yul\":13378:13381   */\n      dup3\n        /* \"#utility.yul\":13371:13390   */\n      mstore\n        /* \"#utility.yul\":13423:13427   */\n      0x20\n        /* \"#utility.yul\":13418:13421   */\n      dup3\n        /* \"#utility.yul\":13414:13428   */\n      add\n        /* \"#utility.yul\":13399:13428   */\n      swap1\n      pop\n        /* \"#utility.yul\":13265:13434   */\n      swap3\n      swap2\n      pop\n      pop\n      jump\t// out\n        /* \"#utility.yul\":13440:13745   */\n    tag_121:\n        /* \"#utility.yul\":13480:13483   */\n      0x00\n        /* \"#utility.yul\":13499:13519   */\n      tag_334\n        /* \"#utility.yul\":13517:13518   */\n      dup3\n        /* \"#utility.yul\":13499:13519   */\n      tag_288\n      jump\t// in\n    tag_334:\n        /* \"#utility.yul\":13494:13519   */\n      swap2\n      pop\n        /* \"#utility.yul\":13533:13553   */\n      tag_335\n        /* \"#utility.yul\":13551:13552   */\n      dup4\n        /* \"#utility.yul\":13533:13553   */\n      tag_288\n      jump\t// in\n    tag_335:\n        /* \"#utility.yul\":13528:13553   */\n      swap3\n      pop\n        /* \"#utility.yul\":13687:13688   */\n      dup3\n        /* \"#utility.yul\":13619:13685   */\n      0xffffffffffffffffffffffffffffffffffffffffffffffffffffffffffffffff\n        /* \"#utility.yul\":13615:13689   */\n      sub\n        /* \"#utility.yul\":13612:13613   */\n      dup3\n        /* \"#utility.yul\":13609:13690   */\n      gt\n        /* \"#utility.yul\":13606:13713   */\n      iszero\n      tag_336\n      jumpi\n        /* \"#utility.yul\":13693:13711   */\n      tag_337\n      tag_338\n      jump\t// in\n    tag_337:\n        /* \"#utility.yul\":13606:13713   */\n    tag_336:\n        /* \"#utility.yul\":13737:13738   */\n      dup3\n        /* \"#utility.yul\":13734:13735   */\n      dup3\n        /* \"#utility.yul\":13730:13739   */\n      add\n        /* \"#utility.yul\":13723:13739   */\n      swap1\n      pop\n        /* \"#utility.yul\":13440:13745   */\n      swap3\n      swap2\n      pop\n      pop\n      jump\t// out\n        /* \"#utility.yul\":13751:14099   */\n    tag_77:\n        /* \"#utility.yul\":13791:13798   */\n      0x00\n        /* \"#utility.yul\":13814:13834   */\n      tag_340\n        /* \"#utility.yul\":13832:13833   */\n      dup3\n        /* \"#utility.yul\":13814:13834   */\n      tag_288\n      jump\t// in\n    tag_340:\n        /* \"#utility.yul\":13809:13834   */\n      swap2\n      pop\n        /* \"#utility.yul\":13848:13868   */\n      tag_341\n        /* \"#utility.yul\":13866:13867   */\n      dup4\n        /* \"#utility.yul\":13848:13868   */\n      tag_288\n      jump\t// in\n    tag_341:\n        /* \"#utility.yul\":13843:13868   */\n      swap3\n      pop\n        /* \"#utility.yul\":14036:14037   */\n      dup2\n        /* \"#utility.yul\":13968:14034   */\n      0xffffffffffffffffffffffffffffffffffffffffffffffffffffffffffffffff\n        /* \"#utility.yul\":13964:14038   */\n      div\n        /* \"#utility.yul\":13961:13962   */\n      dup4\n        /* \"#utility.yul\":13958:14039   */\n      gt\n        /* \"#utility.yul\":13953:13954   */\n      dup3\n        /* \"#utility.yul\":13946:13955   */\n      iszero\n        /* \"#utility.yul\":13939:13956   */\n      iszero\n        /* \"#utility.yul\":13935:14040   */\n      and\n        /* \"#utility.yul\":13932:14063   */\n      iszero\n      tag_342\n      jumpi\n        /* \"#utility.yul\":14043:14061   */\n      tag_343\n      tag_338\n      jump\t// in\n    tag_343:\n        /* \"#utility.yul\":13932:14063   */\n    tag_342:\n        /* \"#utility.yul\":14091:14092   */\n      dup3\n        /* \"#utility.yul\":14088:14089   */\n      dup3\n        /* \"#utility.yul\":14084:14093   */\n      mul\n        /* \"#utility.yul\":14073:14093   */\n      swap1\n      pop\n        /* \"#utility.yul\":13751:14099   */\n      swap3\n      swap2\n      pop\n      pop\n      jump\t// out\n        /* \"#utility.yul\":14105:14296   */\n    tag_75:\n        /* \"#utility.yul\":14145:14149   */\n      0x00\n        /* \"#utility.yul\":14165:14185   */\n      tag_345\n        /* \"#utility.yul\":14183:14184   */\n      dup3\n        /* \"#utility.yul\":14165:14185   */\n      tag_288\n      jump\t// in\n    tag_345:\n        /* \"#utility.yul\":14160:14185   */\n      swap2\n      pop\n        /* \"#utility.yul\":14199:14219   */\n      tag_346\n        /* \"#utility.yul\":14217:14218   */\n      dup4\n        /* \"#utility.yul\":14199:14219   */\n      tag_288\n      jump\t// in\n    tag_346:\n        /* \"#utility.yul\":14194:14219   */\n      swap3\n      pop\n        /* \"#utility.yul\":14238:14239   */\n      dup3\n        /* \"#utility.yul\":14235:14236   */\n      dup3\n        /* \"#utility.yul\":14232:14240   */\n      lt\n        /* \"#utility.yul\":14229:14263   */\n      iszero\n      tag_347\n      jumpi\n        /* \"#utility.yul\":14243:14261   */\n      tag_348\n      tag_338\n      jump\t// in\n    tag_348:\n        /* \"#utility.yul\":14229:14263   */\n    tag_347:\n        /* \"#utility.yul\":14288:14289   */\n      dup3\n        /* \"#utility.yul\":14285:14286   */\n      dup3\n        /* \"#utility.yul\":14281:14290   */\n      sub\n        /* \"#utility.yul\":14273:14290   */\n      swap1\n      pop\n        /* \"#utility.yul\":14105:14296   */\n      swap3\n      swap2\n      pop\n      pop\n      jump\t// out\n        /* \"#utility.yul\":14302:14398   */\n    tag_234:\n        /* \"#utility.yul\":14339:14346   */\n      0x00\n        /* \"#utility.yul\":14368:14392   */\n      tag_350\n        /* \"#utility.yul\":14386:14391   */\n      dup3\n        /* \"#utility.yul\":14368:14392   */\n      tag_351\n      jump\t// in\n    tag_350:\n        /* \"#utility.yul\":14357:14392   */\n      swap1\n      pop\n        /* \"#utility.yul\":14302:14398   */\n      swap2\n      swap1\n      pop\n      jump\t// out\n        /* \"#utility.yul\":14404:14530   */\n    tag_351:\n        /* \"#utility.yul\":14441:14448   */\n      0x00\n        /* \"#utility.yul\":14481:14523   */\n      0xffffffffffffffffffffffffffffffffffffffff\n        /* \"#utility.yul\":14474:14479   */\n      dup3\n        /* \"#utility.yul\":14470:14524   */\n      and\n        /* \"#utility.yul\":14459:14524   */\n      swap1\n      pop\n        /* \"#utility.yul\":14404:14530   */\n      swap2\n      swap1\n      pop\n      jump\t// out\n        /* \"#utility.yul\":14536:14613   */\n    tag_288:\n        /* \"#utility.yul\":14573:14580   */\n      0x00\n        /* \"#utility.yul\":14602:14607   */\n      dup2\n        /* \"#utility.yul\":14591:14607   */\n      swap1\n      pop\n        /* \"#utility.yul\":14536:14613   */\n      swap2\n      swap1\n      pop\n      jump\t// out\n        /* \"#utility.yul\":14619:14773   */\n    tag_189:\n        /* \"#utility.yul\":14703:14709   */\n      dup3\n        /* \"#utility.yul\":14698:14701   */\n      dup2\n        /* \"#utility.yul\":14693:14696   */\n      dup4\n        /* \"#utility.yul\":14680:14710   */\n      calldatacopy\n        /* \"#utility.yul\":14765:14766   */\n      0x00\n        /* \"#utility.yul\":14756:14762   */\n      dup4\n        /* \"#utility.yul\":14751:14754   */\n      dup4\n        /* \"#utility.yul\":14747:14763   */\n      add\n        /* \"#utility.yul\":14740:14767   */\n      mstore\n        /* \"#utility.yul\":14619:14773   */\n      pop\n      pop\n      pop\n      jump\t// out\n        /* \"#utility.yul\":14779:15086   */\n    tag_242:\n        /* \"#utility.yul\":14847:14848   */\n      0x00\n        /* \"#utility.yul\":14857:14970   */\n    tag_356:\n        /* \"#utility.yul\":14871:14877   */\n      dup4\n        /* \"#utility.yul\":14868:14869   */\n      dup2\n        /* \"#utility.yul\":14865:14878   */\n      lt\n        /* \"#utility.yul\":14857:14970   */\n      iszero\n      tag_358\n      jumpi\n        /* \"#utility.yul\":14956:14957   */\n      dup1\n        /* \"#utility.yul\":14951:14954   */\n      dup3\n        /* \"#utility.yul\":14947:14958   */\n      add\n        /* \"#utility.yul\":14941:14959   */\n      mload\n        /* \"#utility.yul\":14937:14938   */\n      dup2\n        /* \"#utility.yul\":14932:14935   */\n      dup5\n        /* \"#utility.yul\":14928:14939   */\n      add\n        /* \"#utility.yul\":14921:14960   */\n      mstore\n        /* \"#utility.yul\":14893:14895   */\n      0x20\n        /* \"#utility.yul\":14890:14891   */\n      dup2\n        /* \"#utility.yul\":14886:14896   */\n      add\n        /* \"#utility.yul\":14881:14896   */\n      swap1\n      pop\n        /* \"#utility.yul\":14857:14970   */\n      jump(tag_356)\n    tag_358:\n        /* \"#utility.yul\":14988:14994   */\n      dup4\n        /* \"#utility.yul\":14985:14986   */\n      dup2\n        /* \"#utility.yul\":14982:14995   */\n      gt\n        /* \"#utility.yul\":14979:15080   */\n      iszero\n      tag_359\n      jumpi\n        /* \"#utility.yul\":15068:15069   */\n      0x00\n        /* \"#utility.yul\":15059:15065   */\n      dup5\n        /* \"#utility.yul\":15054:15057   */\n      dup5\n        /* \"#utility.yul\":15050:15066   */\n      add\n        /* \"#utility.yul\":15043:15070   */\n      mstore\n        /* \"#utility.yul\":14979:15080   */\n    tag_359:\n        /* \"#utility.yul\":14828:15086   */\n      pop\n        /* \"#utility.yul\":14779:15086   */\n      pop\n      pop\n      pop\n      jump\t// out\n        /* \"#utility.yul\":15092:15412   */\n    tag_64:\n        /* \"#utility.yul\":15136:15142   */\n      0x00\n        /* \"#utility.yul\":15173:15174   */\n      0x02\n        /* \"#utility.yul\":15167:15171   */\n      dup3\n        /* \"#utility.yul\":15163:15175   */\n      div\n        /* \"#utility.yul\":15153:15175   */\n      swap1\n      pop\n        /* \"#utility.yul\":15220:15221   */\n      0x01\n        /* \"#utility.yul\":15214:15218   */\n      dup3\n        /* \"#utility.yul\":15210:15222   */\n      and\n        /* \"#utility.yul\":15241:15259   */\n      dup1\n        /* \"#utility.yul\":15231:15312   */\n      tag_361\n      jumpi\n        /* \"#utility.yul\":15297:15301   */\n      0x7f\n        /* \"#utility.yul\":15289:15295   */\n      dup3\n        /* \"#utility.yul\":15285:15302   */\n      and\n        /* \"#utility.yul\":15275:15302   */\n      swap2\n      pop\n        /* \"#utility.yul\":15231:15312   */\n    tag_361:\n        /* \"#utility.yul\":15359:15361   */\n      0x20\n        /* \"#utility.yul\":15351:15357   */\n      dup3\n        /* \"#utility.yul\":15348:15362   */\n      lt\n        /* \"#utility.yul\":15328:15346   */\n      dup2\n        /* \"#utility.yul\":15325:15363   */\n      eq\n        /* \"#utility.yul\":15322:15406   */\n      iszero\n      tag_362\n      jumpi\n        /* \"#utility.yul\":15378:15396   */\n      tag_363\n      tag_364\n      jump\t// in\n    tag_363:\n        /* \"#utility.yul\":15322:15406   */\n    tag_362:\n        /* \"#utility.yul\":15143:15412   */\n      pop\n        /* \"#utility.yul\":15092:15412   */\n      swap2\n      swap1\n      pop\n      jump\t// out\n        /* \"#utility.yul\":15418:15699   */\n    tag_324:\n        /* \"#utility.yul\":15501:15528   */\n      tag_366\n        /* \"#utility.yul\":15523:15527   */\n      dup3\n        /* \"#utility.yul\":15501:15528   */\n      tag_244\n      jump\t// in\n    tag_366:\n        /* \"#utility.yul\":15493:15499   */\n      dup2\n        /* \"#utility.yul\":15489:15529   */\n      add\n        /* \"#utility.yul\":15631:15637   */\n      dup2\n        /* \"#utility.yul\":15619:15629   */\n      dup2\n        /* \"#utility.yul\":15616:15638   */\n      lt\n        /* \"#utility.yul\":15595:15613   */\n      0xffffffffffffffff\n        /* \"#utility.yul\":15583:15593   */\n      dup3\n        /* \"#utility.yul\":15580:15614   */\n      gt\n        /* \"#utility.yul\":15577:15639   */\n      or\n        /* \"#utility.yul\":15574:15662   */\n      iszero\n      tag_367\n      jumpi\n        /* \"#utility.yul\":15642:15660   */\n      tag_368\n      tag_329\n      jump\t// in\n    tag_368:\n        /* \"#utility.yul\":15574:15662   */\n    tag_367:\n        /* \"#utility.yul\":15682:15692   */\n      dup1\n        /* \"#utility.yul\":15678:15680   */\n      0x40\n        /* \"#utility.yul\":15671:15693   */\n      mstore\n        /* \"#utility.yul\":15461:15699   */\n      pop\n        /* \"#utility.yul\":15418:15699   */\n      pop\n      pop\n      jump\t// out\n        /* \"#utility.yul\":15705:15938   */\n    tag_115:\n        /* \"#utility.yul\":15744:15747   */\n      0x00\n        /* \"#utility.yul\":15767:15791   */\n      tag_370\n        /* \"#utility.yul\":15785:15790   */\n      dup3\n        /* \"#utility.yul\":15767:15791   */\n      tag_288\n      jump\t// in\n    tag_370:\n        /* \"#utility.yul\":15758:15791   */\n      swap2\n      pop\n        /* \"#utility.yul\":15813:15879   */\n      0xffffffffffffffffffffffffffffffffffffffffffffffffffffffffffffffff\n        /* \"#utility.yul\":15806:15811   */\n      dup3\n        /* \"#utility.yul\":15803:15880   */\n      eq\n        /* \"#utility.yul\":15800:15903   */\n      iszero\n      tag_371\n      jumpi\n        /* \"#utility.yul\":15883:15901   */\n      tag_372\n      tag_338\n      jump\t// in\n    tag_372:\n        /* \"#utility.yul\":15800:15903   */\n    tag_371:\n        /* \"#utility.yul\":15930:15931   */\n      0x01\n        /* \"#utility.yul\":15923:15928   */\n      dup3\n        /* \"#utility.yul\":15919:15932   */\n      add\n        /* \"#utility.yul\":15912:15932   */\n      swap1\n      pop\n        /* \"#utility.yul\":15705:15938   */\n      swap2\n      swap1\n      pop\n      jump\t// out\n        /* \"#utility.yul\":15944:16124   */\n    tag_338:\n        /* \"#utility.yul\":15992:16069   */\n      0x4e487b7100000000000000000000000000000000000000000000000000000000\n        /* \"#utility.yul\":15989:15990   */\n      0x00\n        /* \"#utility.yul\":15982:16070   */\n      mstore\n        /* \"#utility.yul\":16089:16093   */\n      0x11\n        /* \"#utility.yul\":16086:16087   */\n      0x04\n        /* \"#utility.yul\":16079:16094   */\n      mstore\n        /* \"#utility.yul\":16113:16117   */\n      0x24\n        /* \"#utility.yul\":16110:16111   */\n      0x00\n        /* \"#utility.yul\":16103:16118   */\n      revert\n        /* \"#utility.yul\":16130:16310   */\n    tag_364:\n        /* \"#utility.yul\":16178:16255   */\n      0x4e487b7100000000000000000000000000000000000000000000000000000000\n        /* \"#utility.yul\":16175:16176   */\n      0x00\n        /* \"#utility.yul\":16168:16256   */\n      mstore\n        /* \"#utility.yul\":16275:16279   */\n      0x22\n        /* \"#utility.yul\":16272:16273   */\n      0x04\n        /* \"#utility.yul\":16265:16280   */\n      mstore\n        /* \"#utility.yul\":16299:16303   */\n      0x24\n        /* \"#utility.yul\":16296:16297   */\n      0x00\n        /* \"#utility.yul\":16289:16304   */\n      revert\n        /* \"#utility.yul\":16316:16496   */\n    tag_131:\n        /* \"#utility.yul\":16364:16441   */\n      0x4e487b7100000000000000000000000000000000000000000000000000000000\n        /* \"#utility.yul\":16361:16362   */\n      0x00\n        /* \"#utility.yul\":16354:16442   */\n      mstore\n        /* \"#utility.yul\":16461:16465   */\n      0x31\n        /* \"#utility.yul\":16458:16459   */\n      0x04\n        /* \"#utility.yul\":16451:16466   */\n      mstore\n        /* \"#utility.yul\":16485:16489   */\n      0x24\n        /* \"#utility.yul\":16482:16483   */\n      0x00\n        /* \"#utility.yul\":16475:16490   */\n      revert\n        /* \"#utility.yul\":16502:16682   */\n    tag_111:\n        /* \"#utility.yul\":16550:16627   */\n      0x4e487b7100000000000000000000000000000000000000000000000000000000\n        /* \"#utility.yul\":16547:16548   */\n      0x00\n        /* \"#utility.yul\":16540:16628   */\n      mstore\n        /* \"#utility.yul\":16647:16651   */\n      0x32\n        /* \"#utility.yul\":16644:16645   */\n      0x04\n        /* \"#utility.yul\":16637:16652   */\n      mstore\n        /* \"#utility.yul\":16671:16675   */\n      0x24\n        /* \"#utility.yul\":16668:16669   */\n      0x00\n        /* \"#utility.yul\":16661:16676   */\n      revert\n        /* \"#utility.yul\":16688:16868   */\n    tag_329:\n        /* \"#utility.yul\":16736:16813   */\n      0x4e487b7100000000000000000000000000000000000000000000000000000000\n        /* \"#utility.yul\":16733:16734   */\n      0x00\n        /* \"#utility.yul\":16726:16814   */\n      mstore\n        /* \"#utility.yul\":16833:16837   */\n      0x41\n        /* \"#utility.yul\":16830:16831   */\n      0x04\n        /* \"#utility.yul\":16823:16838   */\n      mstore\n        /* \"#utility.yul\":16857:16861   */\n      0x24\n        /* \"#utility.yul\":16854:16855   */\n      0x00\n        /* \"#utility.yul\":16847:16862   */\n      revert\n        /* \"#utility.yul\":16874:16991   */\n    tag_198:\n        /* \"#utility.yul\":16983:16984   */\n      0x00\n        /* \"#utility.yul\":16980:16981   */\n      dup1\n        /* \"#utility.yul\":16973:16985   */\n      revert\n        /* \"#utility.yul\":16997:17114   */\n    tag_187:\n        /* \"#utility.yul\":17106:17107   */\n      0x00\n        /* \"#utility.yul\":17103:17104   */\n      dup1\n        /* \"#utility.yul\":17096:17108   */\n      revert\n        /* \"#utility.yul\":17120:17237   */\n    tag_215:\n        /* \"#utility.yul\":17229:17230   */\n      0x00\n        /* \"#utility.yul\":17226:17227   */\n      dup1\n        /* \"#utility.yul\":17219:17231   */\n      revert\n        /* \"#utility.yul\":17243:17360   */\n    tag_207:\n        /* \"#utility.yul\":17352:17353   */\n      0x00\n        /* \"#utility.yul\":17349:17350   */\n      dup1\n        /* \"#utility.yul\":17342:17354   */\n      revert\n        /* \"#utility.yul\":17366:17468   */\n    tag_244:\n        /* \"#utility.yul\":17407:17413   */\n      0x00\n        /* \"#utility.yul\":17458:17460   */\n      0x1f\n        /* \"#utility.yul\":17454:17461   */\n      not\n        /* \"#utility.yul\":17449:17451   */\n      0x1f\n        /* \"#utility.yul\":17442:17447   */\n      dup4\n        /* \"#utility.yul\":17438:17452   */\n      add\n        /* \"#utility.yul\":17434:17462   */\n      and\n        /* \"#utility.yul\":17424:17462   */\n      swap1\n      pop\n        /* \"#utility.yul\":17366:17468   */\n      swap2\n      swap1\n      pop\n      jump\t// out\n        /* \"#utility.yul\":17474:17651   */\n    tag_249:\n        /* \"#utility.yul\":17614:17643   */\n      0x4f6e6c79206f776e65722063616e206163636573732074686973210000000000\n        /* \"#utility.yul\":17610:17611   */\n      0x00\n        /* \"#utility.yul\":17602:17608   */\n      dup3\n        /* \"#utility.yul\":17598:17612   */\n      add\n        /* \"#utility.yul\":17591:17644   */\n      mstore\n        /* \"#utility.yul\":17474:17651   */\n      pop\n      jump\t// out\n        /* \"#utility.yul\":17657:17879   */\n    tag_254:\n        /* \"#utility.yul\":17797:17831   */\n      0x416d6f756e7420657863656564206576656e74277320617661696c6162696c69\n        /* \"#utility.yul\":17793:17794   */\n      0x00\n        /* \"#utility.yul\":17785:17791   */\n      dup3\n        /* \"#utility.yul\":17781:17795   */\n      add\n        /* \"#utility.yul\":17774:17832   */\n      mstore\n        /* \"#utility.yul\":17866:17871   */\n      0x74792e0000000000000000000000000000000000000000000000000000000000\n        /* \"#utility.yul\":17861:17863   */\n      0x20\n        /* \"#utility.yul\":17853:17859   */\n      dup3\n        /* \"#utility.yul\":17849:17864   */\n      add\n        /* \"#utility.yul\":17842:17872   */\n      mstore\n        /* \"#utility.yul\":17657:17879   */\n      pop\n      jump\t// out\n        /* \"#utility.yul\":17885:18058   */\n    tag_259:\n        /* \"#utility.yul\":18025:18050   */\n      0x4576656e74206973206e6f7420617661696c61626c652e000000000000000000\n        /* \"#utility.yul\":18021:18022   */\n      0x00\n        /* \"#utility.yul\":18013:18019   */\n      dup3\n        /* \"#utility.yul\":18009:18023   */\n      add\n        /* \"#utility.yul\":18002:18051   */\n      mstore\n        /* \"#utility.yul\":17885:18058   */\n      pop\n      jump\t// out\n        /* \"#utility.yul\":18064:18245   */\n    tag_264:\n        /* \"#utility.yul\":18204:18237   */\n      0x4576656e74207072696365206d757374206265206d6f7265207468616e203000\n        /* \"#utility.yul\":18200:18201   */\n      0x00\n        /* \"#utility.yul\":18192:18198   */\n      dup3\n        /* \"#utility.yul\":18188:18202   */\n      add\n        /* \"#utility.yul\":18181:18238   */\n      mstore\n        /* \"#utility.yul\":18064:18245   */\n      pop\n      jump\t// out\n        /* \"#utility.yul\":18251:18422   */\n    tag_269:\n        /* \"#utility.yul\":18391:18414   */\n      0x496e76616c6964206576656e7420616d6f756e742e0000000000000000000000\n        /* \"#utility.yul\":18387:18388   */\n      0x00\n        /* \"#utility.yul\":18379:18385   */\n      dup3\n        /* \"#utility.yul\":18375:18389   */\n      add\n        /* \"#utility.yul\":18368:18415   */\n      mstore\n        /* \"#utility.yul\":18251:18422   */\n      pop\n      jump\t// out\n        /* \"#utility.yul\":18428:18606   */\n    tag_274:\n        /* \"#utility.yul\":18568:18598   */\n      0x4f776e65722063616e206e6f742062757920616e79204576656e742e00000000\n        /* \"#utility.yul\":18564:18565   */\n      0x00\n        /* \"#utility.yul\":18556:18562   */\n      dup3\n        /* \"#utility.yul\":18552:18566   */\n      add\n        /* \"#utility.yul\":18545:18599   */\n      mstore\n        /* \"#utility.yul\":18428:18606   */\n      pop\n      jump\t// out\n        /* \"#utility.yul\":18612:18835   */\n    tag_279:\n        /* \"#utility.yul\":18752:18786   */\n      0x596f7520646f6e27742068617665207468652073756666696369656e74206d6f\n        /* \"#utility.yul\":18748:18749   */\n      0x00\n        /* \"#utility.yul\":18740:18746   */\n      dup3\n        /* \"#utility.yul\":18736:18750   */\n      add\n        /* \"#utility.yul\":18729:18787   */\n      mstore\n        /* \"#utility.yul\":18821:18827   */\n      0x6e65792e00000000000000000000000000000000000000000000000000000000\n        /* \"#utility.yul\":18816:18818   */\n      0x20\n        /* \"#utility.yul\":18808:18814   */\n      dup3\n        /* \"#utility.yul\":18804:18819   */\n      add\n        /* \"#utility.yul\":18797:18828   */\n      mstore\n        /* \"#utility.yul\":18612:18835   */\n      pop\n      jump\t// out\n        /* \"#utility.yul\":18841:19022   */\n    tag_284:\n        /* \"#utility.yul\":18981:19014   */\n      0x4576656e742073746f636b206d757374206265206d6f7265207468616e203000\n        /* \"#utility.yul\":18977:18978   */\n      0x00\n        /* \"#utility.yul\":18969:18975   */\n      dup3\n        /* \"#utility.yul\":18965:18979   */\n      add\n        /* \"#utility.yul\":18958:19015   */\n      mstore\n        /* \"#utility.yul\":18841:19022   */\n      pop\n      jump\t// out\n        /* \"#utility.yul\":19028:19150   */\n    tag_193:\n        /* \"#utility.yul\":19101:19125   */\n      tag_392\n        /* \"#utility.yul\":19119:19124   */\n      dup2\n        /* \"#utility.yul\":19101:19125   */\n      tag_234\n      jump\t// in\n    tag_392:\n        /* \"#utility.yul\":19094:19099   */\n      dup2\n        /* \"#utility.yul\":19091:19126   */\n      eq\n        /* \"#utility.yul\":19081:19144   */\n      tag_393\n      jumpi\n        /* \"#utility.yul\":19140:19141   */\n      0x00\n        /* \"#utility.yul\":19137:19138   */\n      dup1\n        /* \"#utility.yul\":19130:19142   */\n      revert\n        /* \"#utility.yul\":19081:19144   */\n    tag_393:\n        /* \"#utility.yul\":19028:19150   */\n      pop\n      jump\t// out\n        /* \"#utility.yul\":19156:19278   */\n    tag_203:\n        /* \"#utility.yul\":19229:19253   */\n      tag_395\n        /* \"#utility.yul\":19247:19252   */\n      dup2\n        /* \"#utility.yul\":19229:19253   */\n      tag_288\n      jump\t// in\n    tag_395:\n        /* \"#utility.yul\":19222:19227   */\n      dup2\n        /* \"#utility.yul\":19219:19254   */\n      eq\n        /* \"#utility.yul\":19209:19272   */\n      tag_396\n      jumpi\n        /* \"#utility.yul\":19268:19269   */\n      0x00\n        /* \"#utility.yul\":19265:19266   */\n      dup1\n        /* \"#utility.yul\":19258:19270   */\n      revert\n        /* \"#utility.yul\":19209:19272   */\n    tag_396:\n        /* \"#utility.yul\":19156:19278   */\n      pop\n      jump\t// out\n\n    auxdata: 0xa26469706673582212205a7821d057b7ea11b61439e55e7fec53018e089519537d4396cc82698d9689bc64736f6c63430008070033\n}\n",
				"bytecode": {
					"linkReferences": {},
					"object": "608060405234801561001057600080fd5b50336000806101000a81548173ffffffffffffffffffffffffffffffffffffffff021916908373ffffffffffffffffffffffffffffffffffffffff160217905550611e07806100606000396000f3fe6080604052600436106100745760003560e01c80638f84aa091161004e5780638f84aa091461011b578063a35050d214610146578063c8179b9b1461016f578063f10b97b6146101a45761007b565b806314a79b391461008057806380402564146100b557806388fcb960146100f25761007b565b3661007b57005b600080fd5b61009a600480360381019061009591906114b1565b6101e5565b6040516100ac96959493929190611709565b60405180910390f35b3480156100c157600080fd5b506100dc60048036038101906100d791906114f1565b6106d8565b6040516100e9919061168d565b60405180910390f35b3480156100fe57600080fd5b50610119600480360381019061011491906113fe565b610717565b005b34801561012757600080fd5b506101306109d1565b60405161013d919061168d565b60405180910390f35b34801561015257600080fd5b5061016d600480360381019061016891906113d1565b6109f5565b005b610189600480360381019061018491906113fe565b610cbf565b60405161019b96959493929190611709565b60405180910390f35b3480156101b057600080fd5b506101cb60048036038101906101c691906113d1565b610ff4565b6040516101dc9594939291906116a8565b60405180910390f35b6000606080600080606060008711610232576040517f08c379a0000000000000000000000000000000000000000000000000000000008152600401610229906117ff565b60405180910390fd5b60008054906101000a900473ffffffffffffffffffffffffffffffffffffffff1673ffffffffffffffffffffffffffffffffffffffff163373ffffffffffffffffffffffffffffffffffffffff1614156102c1576040517f08c379a00000000000000000000000000000000000000000000000000000000081526004016102b89061181f565b60405180910390fd5b600160008973ffffffffffffffffffffffffffffffffffffffff1673ffffffffffffffffffffffffffffffffffffffff16815260200190815260200160002060020154925060008311610349576040517f08c379a0000000000000000000000000000000000000000000000000000000008152600401610340906117bf565b60405180910390fd5b82871061038b576040517f08c379a00000000000000000000000000000000000000000000000000000000081526004016103829061179f565b60405180910390fd5b879550600160008973ffffffffffffffffffffffffffffffffffffffff1673ffffffffffffffffffffffffffffffffffffffff16815260200190815260200160002060000180546103db90611a53565b80601f016020809104026020016040519081016040528092919081815260200182805461040790611a53565b80156104545780601f1061042957610100808354040283529160200191610454565b820191906000526020600020905b81548152906001019060200180831161043757829003601f168201915b50505050509450600160008973ffffffffffffffffffffffffffffffffffffffff1673ffffffffffffffffffffffffffffffffffffffff16815260200190815260200160002060010180546104a890611a53565b80601f01602080910402602001604051908101604052809291908181526020018280546104d490611a53565b80156105215780601f106104f657610100808354040283529160200191610521565b820191906000526020600020905b81548152906001019060200180831161050457829003601f168201915b5050505050935086600160008a73ffffffffffffffffffffffffffffffffffffffff1673ffffffffffffffffffffffffffffffffffffffff1681526020019081526020016000206002015461057691906119a1565b600160008a73ffffffffffffffffffffffffffffffffffffffff1673ffffffffffffffffffffffffffffffffffffffff16815260200190815260200160002060020181905550600160008973ffffffffffffffffffffffffffffffffffffffff1673ffffffffffffffffffffffffffffffffffffffff168152602001908152602001600020600201549250868261060d9190611947565b34101561064f576040517f08c379a00000000000000000000000000000000000000000000000000000000081526004016106469061183f565b60405180910390fd5b3073ffffffffffffffffffffffffffffffffffffffff166108fc349081150290604051600060405180830381858888f19350505050158015610695573d6000803e3d6000fd5b506040518060400160405280600781526020017f537563636573730000000000000000000000000000000000000000000000000081525090509295509295509295565b600281815481106106e857600080fd5b906000526020600020016000915054906101000a900473ffffffffffffffffffffffffffffffffffffffff1681565b60008054906101000a900473ffffffffffffffffffffffffffffffffffffffff1673ffffffffffffffffffffffffffffffffffffffff163373ffffffffffffffffffffffffffffffffffffffff16146107a5576040517f08c379a000000000000000000000000000000000000000000000000000000000815260040161079c9061177f565b60405180910390fd5b600082116107e8576040517f08c379a00000000000000000000000000000000000000000000000000000000081526004016107df9061185f565b60405180910390fd5b6000811161082b576040517f08c379a0000000000000000000000000000000000000000000000000000000008152600401610822906117df565b60405180910390fd5b83600160008773ffffffffffffffffffffffffffffffffffffffff1673ffffffffffffffffffffffffffffffffffffffff168152602001908152602001600020600001908051906020019061088192919061122c565b5082600160008773ffffffffffffffffffffffffffffffffffffffff1673ffffffffffffffffffffffffffffffffffffffff16815260200190815260200160002060010190805190602001906108d892919061122c565b5081600160008773ffffffffffffffffffffffffffffffffffffffff1673ffffffffffffffffffffffffffffffffffffffff1681526020019081526020016000206002018190555080600160008773ffffffffffffffffffffffffffffffffffffffff1673ffffffffffffffffffffffffffffffffffffffff168152602001908152602001600020600301819055506002859080600181540180825580915050600190039060005260206000200160009091909190916101000a81548173ffffffffffffffffffffffffffffffffffffffff021916908373ffffffffffffffffffffffffffffffffffffffff1602179055505050505050565b60008054906101000a900473ffffffffffffffffffffffffffffffffffffffff1681565b60008054906101000a900473ffffffffffffffffffffffffffffffffffffffff1673ffffffffffffffffffffffffffffffffffffffff163373ffffffffffffffffffffffffffffffffffffffff1614610a83576040517f08c379a0000000000000000000000000000000000000000000000000000000008152600401610a7a9061177f565b60405180910390fd5b600160008273ffffffffffffffffffffffffffffffffffffffff1673ffffffffffffffffffffffffffffffffffffffff16815260200190815260200160002060008082016000610ad391906112b2565b600182016000610ae391906112b2565b600282016000905560038201600090555050600060028054905090506000805b82821015610b98578373ffffffffffffffffffffffffffffffffffffffff1660028381548110610b3657610b35611b8c565b5b9060005260206000200160009054906101000a900473ffffffffffffffffffffffffffffffffffffffff1673ffffffffffffffffffffffffffffffffffffffff161415610b8557819050610b98565b8180610b9090611ab6565b925050610b03565b60008190505b6001600280549050610bb091906119a1565b811015610c71576002600182610bc691906118f1565b81548110610bd757610bd6611b8c565b5b9060005260206000200160009054906101000a900473ffffffffffffffffffffffffffffffffffffffff1660028281548110610c1657610c15611b8c565b5b9060005260206000200160006101000a81548173ffffffffffffffffffffffffffffffffffffffff021916908373ffffffffffffffffffffffffffffffffffffffff1602179055508080610c6990611ab6565b915050610b9e565b506002805480610c8457610c83611b5d565b5b6001900381819060005260206000200160006101000a81549073ffffffffffffffffffffffffffffffffffffffff0219169055905550505050565b6000606080600080606060008054906101000a900473ffffffffffffffffffffffffffffffffffffffff1673ffffffffffffffffffffffffffffffffffffffff163373ffffffffffffffffffffffffffffffffffffffff1614610d57576040517f08c379a0000000000000000000000000000000000000000000000000000000008152600401610d4e9061177f565b60405180910390fd5b60008811610d9a576040517f08c379a0000000000000000000000000000000000000000000000000000000008152600401610d919061185f565b60405180910390fd5b60008711610ddd576040517f08c379a0000000000000000000000000000000000000000000000000000000008152600401610dd4906117df565b60405180910390fd5b610de56112f2565b600160008d73ffffffffffffffffffffffffffffffffffffffff1673ffffffffffffffffffffffffffffffffffffffff168152602001908152602001600020604051806080016040529081600082018054610e3f90611a53565b80601f0160208091040260200160405190810160405280929190818152602001828054610e6b90611a53565b8015610eb85780601f10610e8d57610100808354040283529160200191610eb8565b820191906000526020600020905b815481529060010190602001808311610e9b57829003601f168201915b50505050508152602001600182018054610ed190611a53565b80601f0160208091040260200160405190810160405280929190818152602001828054610efd90611a53565b8015610f4a5780601f10610f1f57610100808354040283529160200191610f4a565b820191906000526020600020905b815481529060010190602001808311610f2d57829003601f168201915b505050505081526020016002820154815260200160038201548152505090508a816000018190525089816020018190525088816040018181525050878160600181815250508b9650806000015195508060200151945080604001519350806060015192506040518060400160405280600881526020017f557064617465642e0000000000000000000000000000000000000000000000008152509150509550955095509550955095565b6000606080600080859450600160008773ffffffffffffffffffffffffffffffffffffffff1673ffffffffffffffffffffffffffffffffffffffff168152602001908152602001600020600001805461104c90611a53565b80601f016020809104026020016040519081016040528092919081815260200182805461107890611a53565b80156110c55780601f1061109a576101008083540402835291602001916110c5565b820191906000526020600020905b8154815290600101906020018083116110a857829003601f168201915b50505050509350600160008773ffffffffffffffffffffffffffffffffffffffff1673ffffffffffffffffffffffffffffffffffffffff168152602001908152602001600020600101805461111990611a53565b80601f016020809104026020016040519081016040528092919081815260200182805461114590611a53565b80156111925780601f1061116757610100808354040283529160200191611192565b820191906000526020600020905b81548152906001019060200180831161117557829003601f168201915b50505050509250600160008773ffffffffffffffffffffffffffffffffffffffff1673ffffffffffffffffffffffffffffffffffffffff168152602001908152602001600020600201549150600160008773ffffffffffffffffffffffffffffffffffffffff1673ffffffffffffffffffffffffffffffffffffffff16815260200190815260200160002060030154905091939590929450565b82805461123890611a53565b90600052602060002090601f01602090048101928261125a57600085556112a1565b82601f1061127357805160ff19168380011785556112a1565b828001600101855582156112a1579182015b828111156112a0578251825591602001919060010190611285565b5b5090506112ae919061131a565b5090565b5080546112be90611a53565b6000825580601f106112d057506112ef565b601f0160209004906000526020600020908101906112ee919061131a565b5b50565b6040518060800160405280606081526020016060815260200160008152602001600081525090565b5b8082111561133357600081600090555060010161131b565b5090565b600061134a611345846118a4565b61187f565b90508281526020810184848401111561136657611365611bef565b5b611371848285611a11565b509392505050565b60008135905061138881611da3565b92915050565b600082601f8301126113a3576113a2611bea565b5b81356113b3848260208601611337565b91505092915050565b6000813590506113cb81611dba565b92915050565b6000602082840312156113e7576113e6611bf9565b5b60006113f584828501611379565b91505092915050565b600080600080600060a0868803121561141a57611419611bf9565b5b600061142888828901611379565b955050602086013567ffffffffffffffff81111561144957611448611bf4565b5b6114558882890161138e565b945050604086013567ffffffffffffffff81111561147657611475611bf4565b5b6114828882890161138e565b9350506060611493888289016113bc565b92505060806114a4888289016113bc565b9150509295509295909350565b600080604083850312156114c8576114c7611bf9565b5b60006114d685828601611379565b92505060206114e7858286016113bc565b9150509250929050565b60006020828403121561150757611506611bf9565b5b6000611515848285016113bc565b91505092915050565b611527816119d5565b82525050565b6000611538826118d5565b61154281856118e0565b9350611552818560208601611a20565b61155b81611bfe565b840191505092915050565b6000611573601b836118e0565b915061157e82611c0f565b602082019050919050565b60006115966023836118e0565b91506115a182611c38565b604082019050919050565b60006115b96017836118e0565b91506115c482611c87565b602082019050919050565b60006115dc601f836118e0565b91506115e782611cb0565b602082019050919050565b60006115ff6015836118e0565b915061160a82611cd9565b602082019050919050565b6000611622601c836118e0565b915061162d82611d02565b602082019050919050565b60006116456024836118e0565b915061165082611d2b565b604082019050919050565b6000611668601f836118e0565b915061167382611d7a565b602082019050919050565b61168781611a07565b82525050565b60006020820190506116a2600083018461151e565b92915050565b600060a0820190506116bd600083018861151e565b81810360208301526116cf818761152d565b905081810360408301526116e3818661152d565b90506116f2606083018561167e565b6116ff608083018461167e565b9695505050505050565b600060c08201905061171e600083018961151e565b8181036020830152611730818861152d565b90508181036040830152611744818761152d565b9050611753606083018661167e565b611760608083018561167e565b81810360a0830152611772818461152d565b9050979650505050505050565b6000602082019050818103600083015261179881611566565b9050919050565b600060208201905081810360008301526117b881611589565b9050919050565b600060208201905081810360008301526117d8816115ac565b9050919050565b600060208201905081810360008301526117f8816115cf565b9050919050565b60006020820190508181036000830152611818816115f2565b9050919050565b6000602082019050818103600083015261183881611615565b9050919050565b6000602082019050818103600083015261185881611638565b9050919050565b600060208201905081810360008301526118788161165b565b9050919050565b600061188961189a565b90506118958282611a85565b919050565b6000604051905090565b600067ffffffffffffffff8211156118bf576118be611bbb565b5b6118c882611bfe565b9050602081019050919050565b600081519050919050565b600082825260208201905092915050565b60006118fc82611a07565b915061190783611a07565b9250827fffffffffffffffffffffffffffffffffffffffffffffffffffffffffffffffff0382111561193c5761193b611aff565b5b828201905092915050565b600061195282611a07565b915061195d83611a07565b9250817fffffffffffffffffffffffffffffffffffffffffffffffffffffffffffffffff048311821515161561199657611995611aff565b5b828202905092915050565b60006119ac82611a07565b91506119b783611a07565b9250828210156119ca576119c9611aff565b5b828203905092915050565b60006119e0826119e7565b9050919050565b600073ffffffffffffffffffffffffffffffffffffffff82169050919050565b6000819050919050565b82818337600083830152505050565b60005b83811015611a3e578082015181840152602081019050611a23565b83811115611a4d576000848401525b50505050565b60006002820490506001821680611a6b57607f821691505b60208210811415611a7f57611a7e611b2e565b5b50919050565b611a8e82611bfe565b810181811067ffffffffffffffff82111715611aad57611aac611bbb565b5b80604052505050565b6000611ac182611a07565b91507fffffffffffffffffffffffffffffffffffffffffffffffffffffffffffffffff821415611af457611af3611aff565b5b600182019050919050565b7f4e487b7100000000000000000000000000000000000000000000000000000000600052601160045260246000fd5b7f4e487b7100000000000000000000000000000000000000000000000000000000600052602260045260246000fd5b7f4e487b7100000000000000000000000000000000000000000000000000000000600052603160045260246000fd5b7f4e487b7100000000000000000000000000000000000000000000000000000000600052603260045260246000fd5b7f4e487b7100000000000000000000000000000000000000000000000000000000600052604160045260246000fd5b600080fd5b600080fd5b600080fd5b600080fd5b6000601f19601f8301169050919050565b7f4f6e6c79206f776e65722063616e206163636573732074686973210000000000600082015250565b7f416d6f756e7420657863656564206576656e74277320617661696c6162696c6960008201527f74792e0000000000000000000000000000000000000000000000000000000000602082015250565b7f4576656e74206973206e6f7420617661696c61626c652e000000000000000000600082015250565b7f4576656e74207072696365206d757374206265206d6f7265207468616e203000600082015250565b7f496e76616c6964206576656e7420616d6f756e742e0000000000000000000000600082015250565b7f4f776e65722063616e206e6f742062757920616e79204576656e742e00000000600082015250565b7f596f7520646f6e27742068617665207468652073756666696369656e74206d6f60008201527f6e65792e00000000000000000000000000000000000000000000000000000000602082015250565b7f4576656e742073746f636b206d757374206265206d6f7265207468616e203000600082015250565b611dac816119d5565b8114611db757600080fd5b50565b611dc381611a07565b8114611dce57600080fd5b5056fea26469706673582212205a7821d057b7ea11b61439e55e7fec53018e089519537d4396cc82698d9689bc64736f6c63430008070033",
					"opcodes": "PUSH1 0x80 PUSH1 0x40 MSTORE CALLVALUE DUP1 ISZERO PUSH2 0x10 JUMPI PUSH1 0x0 DUP1 REVERT JUMPDEST POP CALLER PUSH1 0x0 DUP1 PUSH2 0x100 EXP DUP2 SLOAD DUP2 PUSH20 0xFFFFFFFFFFFFFFFFFFFFFFFFFFFFFFFFFFFFFFFF MUL NOT AND SWAP1 DUP4 PUSH20 0xFFFFFFFFFFFFFFFFFFFFFFFFFFFFFFFFFFFFFFFF AND MUL OR SWAP1 SSTORE POP PUSH2 0x1E07 DUP1 PUSH2 0x60 PUSH1 0x0 CODECOPY PUSH1 0x0 RETURN INVALID PUSH1 0x80 PUSH1 0x40 MSTORE PUSH1 0x4 CALLDATASIZE LT PUSH2 0x74 JUMPI PUSH1 0x0 CALLDATALOAD PUSH1 0xE0 SHR DUP1 PUSH4 0x8F84AA09 GT PUSH2 0x4E JUMPI DUP1 PUSH4 0x8F84AA09 EQ PUSH2 0x11B JUMPI DUP1 PUSH4 0xA35050D2 EQ PUSH2 0x146 JUMPI DUP1 PUSH4 0xC8179B9B EQ PUSH2 0x16F JUMPI DUP1 PUSH4 0xF10B97B6 EQ PUSH2 0x1A4 JUMPI PUSH2 0x7B JUMP JUMPDEST DUP1 PUSH4 0x14A79B39 EQ PUSH2 0x80 JUMPI DUP1 PUSH4 0x80402564 EQ PUSH2 0xB5 JUMPI DUP1 PUSH4 0x88FCB960 EQ PUSH2 0xF2 JUMPI PUSH2 0x7B JUMP JUMPDEST CALLDATASIZE PUSH2 0x7B JUMPI STOP JUMPDEST PUSH1 0x0 DUP1 REVERT JUMPDEST PUSH2 0x9A PUSH1 0x4 DUP1 CALLDATASIZE SUB DUP2 ADD SWAP1 PUSH2 0x95 SWAP2 SWAP1 PUSH2 0x14B1 JUMP JUMPDEST PUSH2 0x1E5 JUMP JUMPDEST PUSH1 0x40 MLOAD PUSH2 0xAC SWAP7 SWAP6 SWAP5 SWAP4 SWAP3 SWAP2 SWAP1 PUSH2 0x1709 JUMP JUMPDEST PUSH1 0x40 MLOAD DUP1 SWAP2 SUB SWAP1 RETURN JUMPDEST CALLVALUE DUP1 ISZERO PUSH2 0xC1 JUMPI PUSH1 0x0 DUP1 REVERT JUMPDEST POP PUSH2 0xDC PUSH1 0x4 DUP1 CALLDATASIZE SUB DUP2 ADD SWAP1 PUSH2 0xD7 SWAP2 SWAP1 PUSH2 0x14F1 JUMP JUMPDEST PUSH2 0x6D8 JUMP JUMPDEST PUSH1 0x40 MLOAD PUSH2 0xE9 SWAP2 SWAP1 PUSH2 0x168D JUMP JUMPDEST PUSH1 0x40 MLOAD DUP1 SWAP2 SUB SWAP1 RETURN JUMPDEST CALLVALUE DUP1 ISZERO PUSH2 0xFE JUMPI PUSH1 0x0 DUP1 REVERT JUMPDEST POP PUSH2 0x119 PUSH1 0x4 DUP1 CALLDATASIZE SUB DUP2 ADD SWAP1 PUSH2 0x114 SWAP2 SWAP1 PUSH2 0x13FE JUMP JUMPDEST PUSH2 0x717 JUMP JUMPDEST STOP JUMPDEST CALLVALUE DUP1 ISZERO PUSH2 0x127 JUMPI PUSH1 0x0 DUP1 REVERT JUMPDEST POP PUSH2 0x130 PUSH2 0x9D1 JUMP JUMPDEST PUSH1 0x40 MLOAD PUSH2 0x13D SWAP2 SWAP1 PUSH2 0x168D JUMP JUMPDEST PUSH1 0x40 MLOAD DUP1 SWAP2 SUB SWAP1 RETURN JUMPDEST CALLVALUE DUP1 ISZERO PUSH2 0x152 JUMPI PUSH1 0x0 DUP1 REVERT JUMPDEST POP PUSH2 0x16D PUSH1 0x4 DUP1 CALLDATASIZE SUB DUP2 ADD SWAP1 PUSH2 0x168 SWAP2 SWAP1 PUSH2 0x13D1 JUMP JUMPDEST PUSH2 0x9F5 JUMP JUMPDEST STOP JUMPDEST PUSH2 0x189 PUSH1 0x4 DUP1 CALLDATASIZE SUB DUP2 ADD SWAP1 PUSH2 0x184 SWAP2 SWAP1 PUSH2 0x13FE JUMP JUMPDEST PUSH2 0xCBF JUMP JUMPDEST PUSH1 0x40 MLOAD PUSH2 0x19B SWAP7 SWAP6 SWAP5 SWAP4 SWAP3 SWAP2 SWAP1 PUSH2 0x1709 JUMP JUMPDEST PUSH1 0x40 MLOAD DUP1 SWAP2 SUB SWAP1 RETURN JUMPDEST CALLVALUE DUP1 ISZERO PUSH2 0x1B0 JUMPI PUSH1 0x0 DUP1 REVERT JUMPDEST POP PUSH2 0x1CB PUSH1 0x4 DUP1 CALLDATASIZE SUB DUP2 ADD SWAP1 PUSH2 0x1C6 SWAP2 SWAP1 PUSH2 0x13D1 JUMP JUMPDEST PUSH2 0xFF4 JUMP JUMPDEST PUSH1 0x40 MLOAD PUSH2 0x1DC SWAP6 SWAP5 SWAP4 SWAP3 SWAP2 SWAP1 PUSH2 0x16A8 JUMP JUMPDEST PUSH1 0x40 MLOAD DUP1 SWAP2 SUB SWAP1 RETURN JUMPDEST PUSH1 0x0 PUSH1 0x60 DUP1 PUSH1 0x0 DUP1 PUSH1 0x60 PUSH1 0x0 DUP8 GT PUSH2 0x232 JUMPI PUSH1 0x40 MLOAD PUSH32 0x8C379A000000000000000000000000000000000000000000000000000000000 DUP2 MSTORE PUSH1 0x4 ADD PUSH2 0x229 SWAP1 PUSH2 0x17FF JUMP JUMPDEST PUSH1 0x40 MLOAD DUP1 SWAP2 SUB SWAP1 REVERT JUMPDEST PUSH1 0x0 DUP1 SLOAD SWAP1 PUSH2 0x100 EXP SWAP1 DIV PUSH20 0xFFFFFFFFFFFFFFFFFFFFFFFFFFFFFFFFFFFFFFFF AND PUSH20 0xFFFFFFFFFFFFFFFFFFFFFFFFFFFFFFFFFFFFFFFF AND CALLER PUSH20 0xFFFFFFFFFFFFFFFFFFFFFFFFFFFFFFFFFFFFFFFF AND EQ ISZERO PUSH2 0x2C1 JUMPI PUSH1 0x40 MLOAD PUSH32 0x8C379A000000000000000000000000000000000000000000000000000000000 DUP2 MSTORE PUSH1 0x4 ADD PUSH2 0x2B8 SWAP1 PUSH2 0x181F JUMP JUMPDEST PUSH1 0x40 MLOAD DUP1 SWAP2 SUB SWAP1 REVERT JUMPDEST PUSH1 0x1 PUSH1 0x0 DUP10 PUSH20 0xFFFFFFFFFFFFFFFFFFFFFFFFFFFFFFFFFFFFFFFF AND PUSH20 0xFFFFFFFFFFFFFFFFFFFFFFFFFFFFFFFFFFFFFFFF AND DUP2 MSTORE PUSH1 0x20 ADD SWAP1 DUP2 MSTORE PUSH1 0x20 ADD PUSH1 0x0 KECCAK256 PUSH1 0x2 ADD SLOAD SWAP3 POP PUSH1 0x0 DUP4 GT PUSH2 0x349 JUMPI PUSH1 0x40 MLOAD PUSH32 0x8C379A000000000000000000000000000000000000000000000000000000000 DUP2 MSTORE PUSH1 0x4 ADD PUSH2 0x340 SWAP1 PUSH2 0x17BF JUMP JUMPDEST PUSH1 0x40 MLOAD DUP1 SWAP2 SUB SWAP1 REVERT JUMPDEST DUP3 DUP8 LT PUSH2 0x38B JUMPI PUSH1 0x40 MLOAD PUSH32 0x8C379A000000000000000000000000000000000000000000000000000000000 DUP2 MSTORE PUSH1 0x4 ADD PUSH2 0x382 SWAP1 PUSH2 0x179F JUMP JUMPDEST PUSH1 0x40 MLOAD DUP1 SWAP2 SUB SWAP1 REVERT JUMPDEST DUP8 SWAP6 POP PUSH1 0x1 PUSH1 0x0 DUP10 PUSH20 0xFFFFFFFFFFFFFFFFFFFFFFFFFFFFFFFFFFFFFFFF AND PUSH20 0xFFFFFFFFFFFFFFFFFFFFFFFFFFFFFFFFFFFFFFFF AND DUP2 MSTORE PUSH1 0x20 ADD SWAP1 DUP2 MSTORE PUSH1 0x20 ADD PUSH1 0x0 KECCAK256 PUSH1 0x0 ADD DUP1 SLOAD PUSH2 0x3DB SWAP1 PUSH2 0x1A53 JUMP JUMPDEST DUP1 PUSH1 0x1F ADD PUSH1 0x20 DUP1 SWAP2 DIV MUL PUSH1 0x20 ADD PUSH1 0x40 MLOAD SWAP1 DUP2 ADD PUSH1 0x40 MSTORE DUP1 SWAP3 SWAP2 SWAP1 DUP2 DUP2 MSTORE PUSH1 0x20 ADD DUP3 DUP1 SLOAD PUSH2 0x407 SWAP1 PUSH2 0x1A53 JUMP JUMPDEST DUP1 ISZERO PUSH2 0x454 JUMPI DUP1 PUSH1 0x1F LT PUSH2 0x429 JUMPI PUSH2 0x100 DUP1 DUP4 SLOAD DIV MUL DUP4 MSTORE SWAP2 PUSH1 0x20 ADD SWAP2 PUSH2 0x454 JUMP JUMPDEST DUP3 ADD SWAP2 SWAP1 PUSH1 0x0 MSTORE PUSH1 0x20 PUSH1 0x0 KECCAK256 SWAP1 JUMPDEST DUP2 SLOAD DUP2 MSTORE SWAP1 PUSH1 0x1 ADD SWAP1 PUSH1 0x20 ADD DUP1 DUP4 GT PUSH2 0x437 JUMPI DUP3 SWAP1 SUB PUSH1 0x1F AND DUP3 ADD SWAP2 JUMPDEST POP POP POP POP POP SWAP5 POP PUSH1 0x1 PUSH1 0x0 DUP10 PUSH20 0xFFFFFFFFFFFFFFFFFFFFFFFFFFFFFFFFFFFFFFFF AND PUSH20 0xFFFFFFFFFFFFFFFFFFFFFFFFFFFFFFFFFFFFFFFF AND DUP2 MSTORE PUSH1 0x20 ADD SWAP1 DUP2 MSTORE PUSH1 0x20 ADD PUSH1 0x0 KECCAK256 PUSH1 0x1 ADD DUP1 SLOAD PUSH2 0x4A8 SWAP1 PUSH2 0x1A53 JUMP JUMPDEST DUP1 PUSH1 0x1F ADD PUSH1 0x20 DUP1 SWAP2 DIV MUL PUSH1 0x20 ADD PUSH1 0x40 MLOAD SWAP1 DUP2 ADD PUSH1 0x40 MSTORE DUP1 SWAP3 SWAP2 SWAP1 DUP2 DUP2 MSTORE PUSH1 0x20 ADD DUP3 DUP1 SLOAD PUSH2 0x4D4 SWAP1 PUSH2 0x1A53 JUMP JUMPDEST DUP1 ISZERO PUSH2 0x521 JUMPI DUP1 PUSH1 0x1F LT PUSH2 0x4F6 JUMPI PUSH2 0x100 DUP1 DUP4 SLOAD DIV MUL DUP4 MSTORE SWAP2 PUSH1 0x20 ADD SWAP2 PUSH2 0x521 JUMP JUMPDEST DUP3 ADD SWAP2 SWAP1 PUSH1 0x0 MSTORE PUSH1 0x20 PUSH1 0x0 KECCAK256 SWAP1 JUMPDEST DUP2 SLOAD DUP2 MSTORE SWAP1 PUSH1 0x1 ADD SWAP1 PUSH1 0x20 ADD DUP1 DUP4 GT PUSH2 0x504 JUMPI DUP3 SWAP1 SUB PUSH1 0x1F AND DUP3 ADD SWAP2 JUMPDEST POP POP POP POP POP SWAP4 POP DUP7 PUSH1 0x1 PUSH1 0x0 DUP11 PUSH20 0xFFFFFFFFFFFFFFFFFFFFFFFFFFFFFFFFFFFFFFFF AND PUSH20 0xFFFFFFFFFFFFFFFFFFFFFFFFFFFFFFFFFFFFFFFF AND DUP2 MSTORE PUSH1 0x20 ADD SWAP1 DUP2 MSTORE PUSH1 0x20 ADD PUSH1 0x0 KECCAK256 PUSH1 0x2 ADD SLOAD PUSH2 0x576 SWAP2 SWAP1 PUSH2 0x19A1 JUMP JUMPDEST PUSH1 0x1 PUSH1 0x0 DUP11 PUSH20 0xFFFFFFFFFFFFFFFFFFFFFFFFFFFFFFFFFFFFFFFF AND PUSH20 0xFFFFFFFFFFFFFFFFFFFFFFFFFFFFFFFFFFFFFFFF AND DUP2 MSTORE PUSH1 0x20 ADD SWAP1 DUP2 MSTORE PUSH1 0x20 ADD PUSH1 0x0 KECCAK256 PUSH1 0x2 ADD DUP2 SWAP1 SSTORE POP PUSH1 0x1 PUSH1 0x0 DUP10 PUSH20 0xFFFFFFFFFFFFFFFFFFFFFFFFFFFFFFFFFFFFFFFF AND PUSH20 0xFFFFFFFFFFFFFFFFFFFFFFFFFFFFFFFFFFFFFFFF AND DUP2 MSTORE PUSH1 0x20 ADD SWAP1 DUP2 MSTORE PUSH1 0x20 ADD PUSH1 0x0 KECCAK256 PUSH1 0x2 ADD SLOAD SWAP3 POP DUP7 DUP3 PUSH2 0x60D SWAP2 SWAP1 PUSH2 0x1947 JUMP JUMPDEST CALLVALUE LT ISZERO PUSH2 0x64F JUMPI PUSH1 0x40 MLOAD PUSH32 0x8C379A000000000000000000000000000000000000000000000000000000000 DUP2 MSTORE PUSH1 0x4 ADD PUSH2 0x646 SWAP1 PUSH2 0x183F JUMP JUMPDEST PUSH1 0x40 MLOAD DUP1 SWAP2 SUB SWAP1 REVERT JUMPDEST ADDRESS PUSH20 0xFFFFFFFFFFFFFFFFFFFFFFFFFFFFFFFFFFFFFFFF AND PUSH2 0x8FC CALLVALUE SWAP1 DUP2 ISZERO MUL SWAP1 PUSH1 0x40 MLOAD PUSH1 0x0 PUSH1 0x40 MLOAD DUP1 DUP4 SUB DUP2 DUP6 DUP9 DUP9 CALL SWAP4 POP POP POP POP ISZERO DUP1 ISZERO PUSH2 0x695 JUMPI RETURNDATASIZE PUSH1 0x0 DUP1 RETURNDATACOPY RETURNDATASIZE PUSH1 0x0 REVERT JUMPDEST POP PUSH1 0x40 MLOAD DUP1 PUSH1 0x40 ADD PUSH1 0x40 MSTORE DUP1 PUSH1 0x7 DUP2 MSTORE PUSH1 0x20 ADD PUSH32 0x5375636365737300000000000000000000000000000000000000000000000000 DUP2 MSTORE POP SWAP1 POP SWAP3 SWAP6 POP SWAP3 SWAP6 POP SWAP3 SWAP6 JUMP JUMPDEST PUSH1 0x2 DUP2 DUP2 SLOAD DUP2 LT PUSH2 0x6E8 JUMPI PUSH1 0x0 DUP1 REVERT JUMPDEST SWAP1 PUSH1 0x0 MSTORE PUSH1 0x20 PUSH1 0x0 KECCAK256 ADD PUSH1 0x0 SWAP2 POP SLOAD SWAP1 PUSH2 0x100 EXP SWAP1 DIV PUSH20 0xFFFFFFFFFFFFFFFFFFFFFFFFFFFFFFFFFFFFFFFF AND DUP2 JUMP JUMPDEST PUSH1 0x0 DUP1 SLOAD SWAP1 PUSH2 0x100 EXP SWAP1 DIV PUSH20 0xFFFFFFFFFFFFFFFFFFFFFFFFFFFFFFFFFFFFFFFF AND PUSH20 0xFFFFFFFFFFFFFFFFFFFFFFFFFFFFFFFFFFFFFFFF AND CALLER PUSH20 0xFFFFFFFFFFFFFFFFFFFFFFFFFFFFFFFFFFFFFFFF AND EQ PUSH2 0x7A5 JUMPI PUSH1 0x40 MLOAD PUSH32 0x8C379A000000000000000000000000000000000000000000000000000000000 DUP2 MSTORE PUSH1 0x4 ADD PUSH2 0x79C SWAP1 PUSH2 0x177F JUMP JUMPDEST PUSH1 0x40 MLOAD DUP1 SWAP2 SUB SWAP1 REVERT JUMPDEST PUSH1 0x0 DUP3 GT PUSH2 0x7E8 JUMPI PUSH1 0x40 MLOAD PUSH32 0x8C379A000000000000000000000000000000000000000000000000000000000 DUP2 MSTORE PUSH1 0x4 ADD PUSH2 0x7DF SWAP1 PUSH2 0x185F JUMP JUMPDEST PUSH1 0x40 MLOAD DUP1 SWAP2 SUB SWAP1 REVERT JUMPDEST PUSH1 0x0 DUP2 GT PUSH2 0x82B JUMPI PUSH1 0x40 MLOAD PUSH32 0x8C379A000000000000000000000000000000000000000000000000000000000 DUP2 MSTORE PUSH1 0x4 ADD PUSH2 0x822 SWAP1 PUSH2 0x17DF JUMP JUMPDEST PUSH1 0x40 MLOAD DUP1 SWAP2 SUB SWAP1 REVERT JUMPDEST DUP4 PUSH1 0x1 PUSH1 0x0 DUP8 PUSH20 0xFFFFFFFFFFFFFFFFFFFFFFFFFFFFFFFFFFFFFFFF AND PUSH20 0xFFFFFFFFFFFFFFFFFFFFFFFFFFFFFFFFFFFFFFFF AND DUP2 MSTORE PUSH1 0x20 ADD SWAP1 DUP2 MSTORE PUSH1 0x20 ADD PUSH1 0x0 KECCAK256 PUSH1 0x0 ADD SWAP1 DUP1 MLOAD SWAP1 PUSH1 0x20 ADD SWAP1 PUSH2 0x881 SWAP3 SWAP2 SWAP1 PUSH2 0x122C JUMP JUMPDEST POP DUP3 PUSH1 0x1 PUSH1 0x0 DUP8 PUSH20 0xFFFFFFFFFFFFFFFFFFFFFFFFFFFFFFFFFFFFFFFF AND PUSH20 0xFFFFFFFFFFFFFFFFFFFFFFFFFFFFFFFFFFFFFFFF AND DUP2 MSTORE PUSH1 0x20 ADD SWAP1 DUP2 MSTORE PUSH1 0x20 ADD PUSH1 0x0 KECCAK256 PUSH1 0x1 ADD SWAP1 DUP1 MLOAD SWAP1 PUSH1 0x20 ADD SWAP1 PUSH2 0x8D8 SWAP3 SWAP2 SWAP1 PUSH2 0x122C JUMP JUMPDEST POP DUP2 PUSH1 0x1 PUSH1 0x0 DUP8 PUSH20 0xFFFFFFFFFFFFFFFFFFFFFFFFFFFFFFFFFFFFFFFF AND PUSH20 0xFFFFFFFFFFFFFFFFFFFFFFFFFFFFFFFFFFFFFFFF AND DUP2 MSTORE PUSH1 0x20 ADD SWAP1 DUP2 MSTORE PUSH1 0x20 ADD PUSH1 0x0 KECCAK256 PUSH1 0x2 ADD DUP2 SWAP1 SSTORE POP DUP1 PUSH1 0x1 PUSH1 0x0 DUP8 PUSH20 0xFFFFFFFFFFFFFFFFFFFFFFFFFFFFFFFFFFFFFFFF AND PUSH20 0xFFFFFFFFFFFFFFFFFFFFFFFFFFFFFFFFFFFFFFFF AND DUP2 MSTORE PUSH1 0x20 ADD SWAP1 DUP2 MSTORE PUSH1 0x20 ADD PUSH1 0x0 KECCAK256 PUSH1 0x3 ADD DUP2 SWAP1 SSTORE POP PUSH1 0x2 DUP6 SWAP1 DUP1 PUSH1 0x1 DUP2 SLOAD ADD DUP1 DUP3 SSTORE DUP1 SWAP2 POP POP PUSH1 0x1 SWAP1 SUB SWAP1 PUSH1 0x0 MSTORE PUSH1 0x20 PUSH1 0x0 KECCAK256 ADD PUSH1 0x0 SWAP1 SWAP2 SWAP1 SWAP2 SWAP1 SWAP2 PUSH2 0x100 EXP DUP2 SLOAD DUP2 PUSH20 0xFFFFFFFFFFFFFFFFFFFFFFFFFFFFFFFFFFFFFFFF MUL NOT AND SWAP1 DUP4 PUSH20 0xFFFFFFFFFFFFFFFFFFFFFFFFFFFFFFFFFFFFFFFF AND MUL OR SWAP1 SSTORE POP POP POP POP POP POP JUMP JUMPDEST PUSH1 0x0 DUP1 SLOAD SWAP1 PUSH2 0x100 EXP SWAP1 DIV PUSH20 0xFFFFFFFFFFFFFFFFFFFFFFFFFFFFFFFFFFFFFFFF AND DUP2 JUMP JUMPDEST PUSH1 0x0 DUP1 SLOAD SWAP1 PUSH2 0x100 EXP SWAP1 DIV PUSH20 0xFFFFFFFFFFFFFFFFFFFFFFFFFFFFFFFFFFFFFFFF AND PUSH20 0xFFFFFFFFFFFFFFFFFFFFFFFFFFFFFFFFFFFFFFFF AND CALLER PUSH20 0xFFFFFFFFFFFFFFFFFFFFFFFFFFFFFFFFFFFFFFFF AND EQ PUSH2 0xA83 JUMPI PUSH1 0x40 MLOAD PUSH32 0x8C379A000000000000000000000000000000000000000000000000000000000 DUP2 MSTORE PUSH1 0x4 ADD PUSH2 0xA7A SWAP1 PUSH2 0x177F JUMP JUMPDEST PUSH1 0x40 MLOAD DUP1 SWAP2 SUB SWAP1 REVERT JUMPDEST PUSH1 0x1 PUSH1 0x0 DUP3 PUSH20 0xFFFFFFFFFFFFFFFFFFFFFFFFFFFFFFFFFFFFFFFF AND PUSH20 0xFFFFFFFFFFFFFFFFFFFFFFFFFFFFFFFFFFFFFFFF AND DUP2 MSTORE PUSH1 0x20 ADD SWAP1 DUP2 MSTORE PUSH1 0x20 ADD PUSH1 0x0 KECCAK256 PUSH1 0x0 DUP1 DUP3 ADD PUSH1 0x0 PUSH2 0xAD3 SWAP2 SWAP1 PUSH2 0x12B2 JUMP JUMPDEST PUSH1 0x1 DUP3 ADD PUSH1 0x0 PUSH2 0xAE3 SWAP2 SWAP1 PUSH2 0x12B2 JUMP JUMPDEST PUSH1 0x2 DUP3 ADD PUSH1 0x0 SWAP1 SSTORE PUSH1 0x3 DUP3 ADD PUSH1 0x0 SWAP1 SSTORE POP POP PUSH1 0x0 PUSH1 0x2 DUP1 SLOAD SWAP1 POP SWAP1 POP PUSH1 0x0 DUP1 JUMPDEST DUP3 DUP3 LT ISZERO PUSH2 0xB98 JUMPI DUP4 PUSH20 0xFFFFFFFFFFFFFFFFFFFFFFFFFFFFFFFFFFFFFFFF AND PUSH1 0x2 DUP4 DUP2 SLOAD DUP2 LT PUSH2 0xB36 JUMPI PUSH2 0xB35 PUSH2 0x1B8C JUMP JUMPDEST JUMPDEST SWAP1 PUSH1 0x0 MSTORE PUSH1 0x20 PUSH1 0x0 KECCAK256 ADD PUSH1 0x0 SWAP1 SLOAD SWAP1 PUSH2 0x100 EXP SWAP1 DIV PUSH20 0xFFFFFFFFFFFFFFFFFFFFFFFFFFFFFFFFFFFFFFFF AND PUSH20 0xFFFFFFFFFFFFFFFFFFFFFFFFFFFFFFFFFFFFFFFF AND EQ ISZERO PUSH2 0xB85 JUMPI DUP2 SWAP1 POP PUSH2 0xB98 JUMP JUMPDEST DUP2 DUP1 PUSH2 0xB90 SWAP1 PUSH2 0x1AB6 JUMP JUMPDEST SWAP3 POP POP PUSH2 0xB03 JUMP JUMPDEST PUSH1 0x0 DUP2 SWAP1 POP JUMPDEST PUSH1 0x1 PUSH1 0x2 DUP1 SLOAD SWAP1 POP PUSH2 0xBB0 SWAP2 SWAP1 PUSH2 0x19A1 JUMP JUMPDEST DUP2 LT ISZERO PUSH2 0xC71 JUMPI PUSH1 0x2 PUSH1 0x1 DUP3 PUSH2 0xBC6 SWAP2 SWAP1 PUSH2 0x18F1 JUMP JUMPDEST DUP2 SLOAD DUP2 LT PUSH2 0xBD7 JUMPI PUSH2 0xBD6 PUSH2 0x1B8C JUMP JUMPDEST JUMPDEST SWAP1 PUSH1 0x0 MSTORE PUSH1 0x20 PUSH1 0x0 KECCAK256 ADD PUSH1 0x0 SWAP1 SLOAD SWAP1 PUSH2 0x100 EXP SWAP1 DIV PUSH20 0xFFFFFFFFFFFFFFFFFFFFFFFFFFFFFFFFFFFFFFFF AND PUSH1 0x2 DUP3 DUP2 SLOAD DUP2 LT PUSH2 0xC16 JUMPI PUSH2 0xC15 PUSH2 0x1B8C JUMP JUMPDEST JUMPDEST SWAP1 PUSH1 0x0 MSTORE PUSH1 0x20 PUSH1 0x0 KECCAK256 ADD PUSH1 0x0 PUSH2 0x100 EXP DUP2 SLOAD DUP2 PUSH20 0xFFFFFFFFFFFFFFFFFFFFFFFFFFFFFFFFFFFFFFFF MUL NOT AND SWAP1 DUP4 PUSH20 0xFFFFFFFFFFFFFFFFFFFFFFFFFFFFFFFFFFFFFFFF AND MUL OR SWAP1 SSTORE POP DUP1 DUP1 PUSH2 0xC69 SWAP1 PUSH2 0x1AB6 JUMP JUMPDEST SWAP2 POP POP PUSH2 0xB9E JUMP JUMPDEST POP PUSH1 0x2 DUP1 SLOAD DUP1 PUSH2 0xC84 JUMPI PUSH2 0xC83 PUSH2 0x1B5D JUMP JUMPDEST JUMPDEST PUSH1 0x1 SWAP1 SUB DUP2 DUP2 SWAP1 PUSH1 0x0 MSTORE PUSH1 0x20 PUSH1 0x0 KECCAK256 ADD PUSH1 0x0 PUSH2 0x100 EXP DUP2 SLOAD SWAP1 PUSH20 0xFFFFFFFFFFFFFFFFFFFFFFFFFFFFFFFFFFFFFFFF MUL NOT AND SWAP1 SSTORE SWAP1 SSTORE POP POP POP POP JUMP JUMPDEST PUSH1 0x0 PUSH1 0x60 DUP1 PUSH1 0x0 DUP1 PUSH1 0x60 PUSH1 0x0 DUP1 SLOAD SWAP1 PUSH2 0x100 EXP SWAP1 DIV PUSH20 0xFFFFFFFFFFFFFFFFFFFFFFFFFFFFFFFFFFFFFFFF AND PUSH20 0xFFFFFFFFFFFFFFFFFFFFFFFFFFFFFFFFFFFFFFFF AND CALLER PUSH20 0xFFFFFFFFFFFFFFFFFFFFFFFFFFFFFFFFFFFFFFFF AND EQ PUSH2 0xD57 JUMPI PUSH1 0x40 MLOAD PUSH32 0x8C379A000000000000000000000000000000000000000000000000000000000 DUP2 MSTORE PUSH1 0x4 ADD PUSH2 0xD4E SWAP1 PUSH2 0x177F JUMP JUMPDEST PUSH1 0x40 MLOAD DUP1 SWAP2 SUB SWAP1 REVERT JUMPDEST PUSH1 0x0 DUP9 GT PUSH2 0xD9A JUMPI PUSH1 0x40 MLOAD PUSH32 0x8C379A000000000000000000000000000000000000000000000000000000000 DUP2 MSTORE PUSH1 0x4 ADD PUSH2 0xD91 SWAP1 PUSH2 0x185F JUMP JUMPDEST PUSH1 0x40 MLOAD DUP1 SWAP2 SUB SWAP1 REVERT JUMPDEST PUSH1 0x0 DUP8 GT PUSH2 0xDDD JUMPI PUSH1 0x40 MLOAD PUSH32 0x8C379A000000000000000000000000000000000000000000000000000000000 DUP2 MSTORE PUSH1 0x4 ADD PUSH2 0xDD4 SWAP1 PUSH2 0x17DF JUMP JUMPDEST PUSH1 0x40 MLOAD DUP1 SWAP2 SUB SWAP1 REVERT JUMPDEST PUSH2 0xDE5 PUSH2 0x12F2 JUMP JUMPDEST PUSH1 0x1 PUSH1 0x0 DUP14 PUSH20 0xFFFFFFFFFFFFFFFFFFFFFFFFFFFFFFFFFFFFFFFF AND PUSH20 0xFFFFFFFFFFFFFFFFFFFFFFFFFFFFFFFFFFFFFFFF AND DUP2 MSTORE PUSH1 0x20 ADD SWAP1 DUP2 MSTORE PUSH1 0x20 ADD PUSH1 0x0 KECCAK256 PUSH1 0x40 MLOAD DUP1 PUSH1 0x80 ADD PUSH1 0x40 MSTORE SWAP1 DUP2 PUSH1 0x0 DUP3 ADD DUP1 SLOAD PUSH2 0xE3F SWAP1 PUSH2 0x1A53 JUMP JUMPDEST DUP1 PUSH1 0x1F ADD PUSH1 0x20 DUP1 SWAP2 DIV MUL PUSH1 0x20 ADD PUSH1 0x40 MLOAD SWAP1 DUP2 ADD PUSH1 0x40 MSTORE DUP1 SWAP3 SWAP2 SWAP1 DUP2 DUP2 MSTORE PUSH1 0x20 ADD DUP3 DUP1 SLOAD PUSH2 0xE6B SWAP1 PUSH2 0x1A53 JUMP JUMPDEST DUP1 ISZERO PUSH2 0xEB8 JUMPI DUP1 PUSH1 0x1F LT PUSH2 0xE8D JUMPI PUSH2 0x100 DUP1 DUP4 SLOAD DIV MUL DUP4 MSTORE SWAP2 PUSH1 0x20 ADD SWAP2 PUSH2 0xEB8 JUMP JUMPDEST DUP3 ADD SWAP2 SWAP1 PUSH1 0x0 MSTORE PUSH1 0x20 PUSH1 0x0 KECCAK256 SWAP1 JUMPDEST DUP2 SLOAD DUP2 MSTORE SWAP1 PUSH1 0x1 ADD SWAP1 PUSH1 0x20 ADD DUP1 DUP4 GT PUSH2 0xE9B JUMPI DUP3 SWAP1 SUB PUSH1 0x1F AND DUP3 ADD SWAP2 JUMPDEST POP POP POP POP POP DUP2 MSTORE PUSH1 0x20 ADD PUSH1 0x1 DUP3 ADD DUP1 SLOAD PUSH2 0xED1 SWAP1 PUSH2 0x1A53 JUMP JUMPDEST DUP1 PUSH1 0x1F ADD PUSH1 0x20 DUP1 SWAP2 DIV MUL PUSH1 0x20 ADD PUSH1 0x40 MLOAD SWAP1 DUP2 ADD PUSH1 0x40 MSTORE DUP1 SWAP3 SWAP2 SWAP1 DUP2 DUP2 MSTORE PUSH1 0x20 ADD DUP3 DUP1 SLOAD PUSH2 0xEFD SWAP1 PUSH2 0x1A53 JUMP JUMPDEST DUP1 ISZERO PUSH2 0xF4A JUMPI DUP1 PUSH1 0x1F LT PUSH2 0xF1F JUMPI PUSH2 0x100 DUP1 DUP4 SLOAD DIV MUL DUP4 MSTORE SWAP2 PUSH1 0x20 ADD SWAP2 PUSH2 0xF4A JUMP JUMPDEST DUP3 ADD SWAP2 SWAP1 PUSH1 0x0 MSTORE PUSH1 0x20 PUSH1 0x0 KECCAK256 SWAP1 JUMPDEST DUP2 SLOAD DUP2 MSTORE SWAP1 PUSH1 0x1 ADD SWAP1 PUSH1 0x20 ADD DUP1 DUP4 GT PUSH2 0xF2D JUMPI DUP3 SWAP1 SUB PUSH1 0x1F AND DUP3 ADD SWAP2 JUMPDEST POP POP POP POP POP DUP2 MSTORE PUSH1 0x20 ADD PUSH1 0x2 DUP3 ADD SLOAD DUP2 MSTORE PUSH1 0x20 ADD PUSH1 0x3 DUP3 ADD SLOAD DUP2 MSTORE POP POP SWAP1 POP DUP11 DUP2 PUSH1 0x0 ADD DUP2 SWAP1 MSTORE POP DUP10 DUP2 PUSH1 0x20 ADD DUP2 SWAP1 MSTORE POP DUP9 DUP2 PUSH1 0x40 ADD DUP2 DUP2 MSTORE POP POP DUP8 DUP2 PUSH1 0x60 ADD DUP2 DUP2 MSTORE POP POP DUP12 SWAP7 POP DUP1 PUSH1 0x0 ADD MLOAD SWAP6 POP DUP1 PUSH1 0x20 ADD MLOAD SWAP5 POP DUP1 PUSH1 0x40 ADD MLOAD SWAP4 POP DUP1 PUSH1 0x60 ADD MLOAD SWAP3 POP PUSH1 0x40 MLOAD DUP1 PUSH1 0x40 ADD PUSH1 0x40 MSTORE DUP1 PUSH1 0x8 DUP2 MSTORE PUSH1 0x20 ADD PUSH32 0x557064617465642E000000000000000000000000000000000000000000000000 DUP2 MSTORE POP SWAP2 POP POP SWAP6 POP SWAP6 POP SWAP6 POP SWAP6 POP SWAP6 POP SWAP6 JUMP JUMPDEST PUSH1 0x0 PUSH1 0x60 DUP1 PUSH1 0x0 DUP1 DUP6 SWAP5 POP PUSH1 0x1 PUSH1 0x0 DUP8 PUSH20 0xFFFFFFFFFFFFFFFFFFFFFFFFFFFFFFFFFFFFFFFF AND PUSH20 0xFFFFFFFFFFFFFFFFFFFFFFFFFFFFFFFFFFFFFFFF AND DUP2 MSTORE PUSH1 0x20 ADD SWAP1 DUP2 MSTORE PUSH1 0x20 ADD PUSH1 0x0 KECCAK256 PUSH1 0x0 ADD DUP1 SLOAD PUSH2 0x104C SWAP1 PUSH2 0x1A53 JUMP JUMPDEST DUP1 PUSH1 0x1F ADD PUSH1 0x20 DUP1 SWAP2 DIV MUL PUSH1 0x20 ADD PUSH1 0x40 MLOAD SWAP1 DUP2 ADD PUSH1 0x40 MSTORE DUP1 SWAP3 SWAP2 SWAP1 DUP2 DUP2 MSTORE PUSH1 0x20 ADD DUP3 DUP1 SLOAD PUSH2 0x1078 SWAP1 PUSH2 0x1A53 JUMP JUMPDEST DUP1 ISZERO PUSH2 0x10C5 JUMPI DUP1 PUSH1 0x1F LT PUSH2 0x109A JUMPI PUSH2 0x100 DUP1 DUP4 SLOAD DIV MUL DUP4 MSTORE SWAP2 PUSH1 0x20 ADD SWAP2 PUSH2 0x10C5 JUMP JUMPDEST DUP3 ADD SWAP2 SWAP1 PUSH1 0x0 MSTORE PUSH1 0x20 PUSH1 0x0 KECCAK256 SWAP1 JUMPDEST DUP2 SLOAD DUP2 MSTORE SWAP1 PUSH1 0x1 ADD SWAP1 PUSH1 0x20 ADD DUP1 DUP4 GT PUSH2 0x10A8 JUMPI DUP3 SWAP1 SUB PUSH1 0x1F AND DUP3 ADD SWAP2 JUMPDEST POP POP POP POP POP SWAP4 POP PUSH1 0x1 PUSH1 0x0 DUP8 PUSH20 0xFFFFFFFFFFFFFFFFFFFFFFFFFFFFFFFFFFFFFFFF AND PUSH20 0xFFFFFFFFFFFFFFFFFFFFFFFFFFFFFFFFFFFFFFFF AND DUP2 MSTORE PUSH1 0x20 ADD SWAP1 DUP2 MSTORE PUSH1 0x20 ADD PUSH1 0x0 KECCAK256 PUSH1 0x1 ADD DUP1 SLOAD PUSH2 0x1119 SWAP1 PUSH2 0x1A53 JUMP JUMPDEST DUP1 PUSH1 0x1F ADD PUSH1 0x20 DUP1 SWAP2 DIV MUL PUSH1 0x20 ADD PUSH1 0x40 MLOAD SWAP1 DUP2 ADD PUSH1 0x40 MSTORE DUP1 SWAP3 SWAP2 SWAP1 DUP2 DUP2 MSTORE PUSH1 0x20 ADD DUP3 DUP1 SLOAD PUSH2 0x1145 SWAP1 PUSH2 0x1A53 JUMP JUMPDEST DUP1 ISZERO PUSH2 0x1192 JUMPI DUP1 PUSH1 0x1F LT PUSH2 0x1167 JUMPI PUSH2 0x100 DUP1 DUP4 SLOAD DIV MUL DUP4 MSTORE SWAP2 PUSH1 0x20 ADD SWAP2 PUSH2 0x1192 JUMP JUMPDEST DUP3 ADD SWAP2 SWAP1 PUSH1 0x0 MSTORE PUSH1 0x20 PUSH1 0x0 KECCAK256 SWAP1 JUMPDEST DUP2 SLOAD DUP2 MSTORE SWAP1 PUSH1 0x1 ADD SWAP1 PUSH1 0x20 ADD DUP1 DUP4 GT PUSH2 0x1175 JUMPI DUP3 SWAP1 SUB PUSH1 0x1F AND DUP3 ADD SWAP2 JUMPDEST POP POP POP POP POP SWAP3 POP PUSH1 0x1 PUSH1 0x0 DUP8 PUSH20 0xFFFFFFFFFFFFFFFFFFFFFFFFFFFFFFFFFFFFFFFF AND PUSH20 0xFFFFFFFFFFFFFFFFFFFFFFFFFFFFFFFFFFFFFFFF AND DUP2 MSTORE PUSH1 0x20 ADD SWAP1 DUP2 MSTORE PUSH1 0x20 ADD PUSH1 0x0 KECCAK256 PUSH1 0x2 ADD SLOAD SWAP2 POP PUSH1 0x1 PUSH1 0x0 DUP8 PUSH20 0xFFFFFFFFFFFFFFFFFFFFFFFFFFFFFFFFFFFFFFFF AND PUSH20 0xFFFFFFFFFFFFFFFFFFFFFFFFFFFFFFFFFFFFFFFF AND DUP2 MSTORE PUSH1 0x20 ADD SWAP1 DUP2 MSTORE PUSH1 0x20 ADD PUSH1 0x0 KECCAK256 PUSH1 0x3 ADD SLOAD SWAP1 POP SWAP2 SWAP4 SWAP6 SWAP1 SWAP3 SWAP5 POP JUMP JUMPDEST DUP3 DUP1 SLOAD PUSH2 0x1238 SWAP1 PUSH2 0x1A53 JUMP JUMPDEST SWAP1 PUSH1 0x0 MSTORE PUSH1 0x20 PUSH1 0x0 KECCAK256 SWAP1 PUSH1 0x1F ADD PUSH1 0x20 SWAP1 DIV DUP2 ADD SWAP3 DUP3 PUSH2 0x125A JUMPI PUSH1 0x0 DUP6 SSTORE PUSH2 0x12A1 JUMP JUMPDEST DUP3 PUSH1 0x1F LT PUSH2 0x1273 JUMPI DUP1 MLOAD PUSH1 0xFF NOT AND DUP4 DUP1 ADD OR DUP6 SSTORE PUSH2 0x12A1 JUMP JUMPDEST DUP3 DUP1 ADD PUSH1 0x1 ADD DUP6 SSTORE DUP3 ISZERO PUSH2 0x12A1 JUMPI SWAP2 DUP3 ADD JUMPDEST DUP3 DUP2 GT ISZERO PUSH2 0x12A0 JUMPI DUP3 MLOAD DUP3 SSTORE SWAP2 PUSH1 0x20 ADD SWAP2 SWAP1 PUSH1 0x1 ADD SWAP1 PUSH2 0x1285 JUMP JUMPDEST JUMPDEST POP SWAP1 POP PUSH2 0x12AE SWAP2 SWAP1 PUSH2 0x131A JUMP JUMPDEST POP SWAP1 JUMP JUMPDEST POP DUP1 SLOAD PUSH2 0x12BE SWAP1 PUSH2 0x1A53 JUMP JUMPDEST PUSH1 0x0 DUP3 SSTORE DUP1 PUSH1 0x1F LT PUSH2 0x12D0 JUMPI POP PUSH2 0x12EF JUMP JUMPDEST PUSH1 0x1F ADD PUSH1 0x20 SWAP1 DIV SWAP1 PUSH1 0x0 MSTORE PUSH1 0x20 PUSH1 0x0 KECCAK256 SWAP1 DUP2 ADD SWAP1 PUSH2 0x12EE SWAP2 SWAP1 PUSH2 0x131A JUMP JUMPDEST JUMPDEST POP JUMP JUMPDEST PUSH1 0x40 MLOAD DUP1 PUSH1 0x80 ADD PUSH1 0x40 MSTORE DUP1 PUSH1 0x60 DUP2 MSTORE PUSH1 0x20 ADD PUSH1 0x60 DUP2 MSTORE PUSH1 0x20 ADD PUSH1 0x0 DUP2 MSTORE PUSH1 0x20 ADD PUSH1 0x0 DUP2 MSTORE POP SWAP1 JUMP JUMPDEST JUMPDEST DUP1 DUP3 GT ISZERO PUSH2 0x1333 JUMPI PUSH1 0x0 DUP2 PUSH1 0x0 SWAP1 SSTORE POP PUSH1 0x1 ADD PUSH2 0x131B JUMP JUMPDEST POP SWAP1 JUMP JUMPDEST PUSH1 0x0 PUSH2 0x134A PUSH2 0x1345 DUP5 PUSH2 0x18A4 JUMP JUMPDEST PUSH2 0x187F JUMP JUMPDEST SWAP1 POP DUP3 DUP2 MSTORE PUSH1 0x20 DUP2 ADD DUP5 DUP5 DUP5 ADD GT ISZERO PUSH2 0x1366 JUMPI PUSH2 0x1365 PUSH2 0x1BEF JUMP JUMPDEST JUMPDEST PUSH2 0x1371 DUP5 DUP3 DUP6 PUSH2 0x1A11 JUMP JUMPDEST POP SWAP4 SWAP3 POP POP POP JUMP JUMPDEST PUSH1 0x0 DUP2 CALLDATALOAD SWAP1 POP PUSH2 0x1388 DUP2 PUSH2 0x1DA3 JUMP JUMPDEST SWAP3 SWAP2 POP POP JUMP JUMPDEST PUSH1 0x0 DUP3 PUSH1 0x1F DUP4 ADD SLT PUSH2 0x13A3 JUMPI PUSH2 0x13A2 PUSH2 0x1BEA JUMP JUMPDEST JUMPDEST DUP2 CALLDATALOAD PUSH2 0x13B3 DUP5 DUP3 PUSH1 0x20 DUP7 ADD PUSH2 0x1337 JUMP JUMPDEST SWAP2 POP POP SWAP3 SWAP2 POP POP JUMP JUMPDEST PUSH1 0x0 DUP2 CALLDATALOAD SWAP1 POP PUSH2 0x13CB DUP2 PUSH2 0x1DBA JUMP JUMPDEST SWAP3 SWAP2 POP POP JUMP JUMPDEST PUSH1 0x0 PUSH1 0x20 DUP3 DUP5 SUB SLT ISZERO PUSH2 0x13E7 JUMPI PUSH2 0x13E6 PUSH2 0x1BF9 JUMP JUMPDEST JUMPDEST PUSH1 0x0 PUSH2 0x13F5 DUP5 DUP3 DUP6 ADD PUSH2 0x1379 JUMP JUMPDEST SWAP2 POP POP SWAP3 SWAP2 POP POP JUMP JUMPDEST PUSH1 0x0 DUP1 PUSH1 0x0 DUP1 PUSH1 0x0 PUSH1 0xA0 DUP7 DUP9 SUB SLT ISZERO PUSH2 0x141A JUMPI PUSH2 0x1419 PUSH2 0x1BF9 JUMP JUMPDEST JUMPDEST PUSH1 0x0 PUSH2 0x1428 DUP9 DUP3 DUP10 ADD PUSH2 0x1379 JUMP JUMPDEST SWAP6 POP POP PUSH1 0x20 DUP7 ADD CALLDATALOAD PUSH8 0xFFFFFFFFFFFFFFFF DUP2 GT ISZERO PUSH2 0x1449 JUMPI PUSH2 0x1448 PUSH2 0x1BF4 JUMP JUMPDEST JUMPDEST PUSH2 0x1455 DUP9 DUP3 DUP10 ADD PUSH2 0x138E JUMP JUMPDEST SWAP5 POP POP PUSH1 0x40 DUP7 ADD CALLDATALOAD PUSH8 0xFFFFFFFFFFFFFFFF DUP2 GT ISZERO PUSH2 0x1476 JUMPI PUSH2 0x1475 PUSH2 0x1BF4 JUMP JUMPDEST JUMPDEST PUSH2 0x1482 DUP9 DUP3 DUP10 ADD PUSH2 0x138E JUMP JUMPDEST SWAP4 POP POP PUSH1 0x60 PUSH2 0x1493 DUP9 DUP3 DUP10 ADD PUSH2 0x13BC JUMP JUMPDEST SWAP3 POP POP PUSH1 0x80 PUSH2 0x14A4 DUP9 DUP3 DUP10 ADD PUSH2 0x13BC JUMP JUMPDEST SWAP2 POP POP SWAP3 SWAP6 POP SWAP3 SWAP6 SWAP1 SWAP4 POP JUMP JUMPDEST PUSH1 0x0 DUP1 PUSH1 0x40 DUP4 DUP6 SUB SLT ISZERO PUSH2 0x14C8 JUMPI PUSH2 0x14C7 PUSH2 0x1BF9 JUMP JUMPDEST JUMPDEST PUSH1 0x0 PUSH2 0x14D6 DUP6 DUP3 DUP7 ADD PUSH2 0x1379 JUMP JUMPDEST SWAP3 POP POP PUSH1 0x20 PUSH2 0x14E7 DUP6 DUP3 DUP7 ADD PUSH2 0x13BC JUMP JUMPDEST SWAP2 POP POP SWAP3 POP SWAP3 SWAP1 POP JUMP JUMPDEST PUSH1 0x0 PUSH1 0x20 DUP3 DUP5 SUB SLT ISZERO PUSH2 0x1507 JUMPI PUSH2 0x1506 PUSH2 0x1BF9 JUMP JUMPDEST JUMPDEST PUSH1 0x0 PUSH2 0x1515 DUP5 DUP3 DUP6 ADD PUSH2 0x13BC JUMP JUMPDEST SWAP2 POP POP SWAP3 SWAP2 POP POP JUMP JUMPDEST PUSH2 0x1527 DUP2 PUSH2 0x19D5 JUMP JUMPDEST DUP3 MSTORE POP POP JUMP JUMPDEST PUSH1 0x0 PUSH2 0x1538 DUP3 PUSH2 0x18D5 JUMP JUMPDEST PUSH2 0x1542 DUP2 DUP6 PUSH2 0x18E0 JUMP JUMPDEST SWAP4 POP PUSH2 0x1552 DUP2 DUP6 PUSH1 0x20 DUP7 ADD PUSH2 0x1A20 JUMP JUMPDEST PUSH2 0x155B DUP2 PUSH2 0x1BFE JUMP JUMPDEST DUP5 ADD SWAP2 POP POP SWAP3 SWAP2 POP POP JUMP JUMPDEST PUSH1 0x0 PUSH2 0x1573 PUSH1 0x1B DUP4 PUSH2 0x18E0 JUMP JUMPDEST SWAP2 POP PUSH2 0x157E DUP3 PUSH2 0x1C0F JUMP JUMPDEST PUSH1 0x20 DUP3 ADD SWAP1 POP SWAP2 SWAP1 POP JUMP JUMPDEST PUSH1 0x0 PUSH2 0x1596 PUSH1 0x23 DUP4 PUSH2 0x18E0 JUMP JUMPDEST SWAP2 POP PUSH2 0x15A1 DUP3 PUSH2 0x1C38 JUMP JUMPDEST PUSH1 0x40 DUP3 ADD SWAP1 POP SWAP2 SWAP1 POP JUMP JUMPDEST PUSH1 0x0 PUSH2 0x15B9 PUSH1 0x17 DUP4 PUSH2 0x18E0 JUMP JUMPDEST SWAP2 POP PUSH2 0x15C4 DUP3 PUSH2 0x1C87 JUMP JUMPDEST PUSH1 0x20 DUP3 ADD SWAP1 POP SWAP2 SWAP1 POP JUMP JUMPDEST PUSH1 0x0 PUSH2 0x15DC PUSH1 0x1F DUP4 PUSH2 0x18E0 JUMP JUMPDEST SWAP2 POP PUSH2 0x15E7 DUP3 PUSH2 0x1CB0 JUMP JUMPDEST PUSH1 0x20 DUP3 ADD SWAP1 POP SWAP2 SWAP1 POP JUMP JUMPDEST PUSH1 0x0 PUSH2 0x15FF PUSH1 0x15 DUP4 PUSH2 0x18E0 JUMP JUMPDEST SWAP2 POP PUSH2 0x160A DUP3 PUSH2 0x1CD9 JUMP JUMPDEST PUSH1 0x20 DUP3 ADD SWAP1 POP SWAP2 SWAP1 POP JUMP JUMPDEST PUSH1 0x0 PUSH2 0x1622 PUSH1 0x1C DUP4 PUSH2 0x18E0 JUMP JUMPDEST SWAP2 POP PUSH2 0x162D DUP3 PUSH2 0x1D02 JUMP JUMPDEST PUSH1 0x20 DUP3 ADD SWAP1 POP SWAP2 SWAP1 POP JUMP JUMPDEST PUSH1 0x0 PUSH2 0x1645 PUSH1 0x24 DUP4 PUSH2 0x18E0 JUMP JUMPDEST SWAP2 POP PUSH2 0x1650 DUP3 PUSH2 0x1D2B JUMP JUMPDEST PUSH1 0x40 DUP3 ADD SWAP1 POP SWAP2 SWAP1 POP JUMP JUMPDEST PUSH1 0x0 PUSH2 0x1668 PUSH1 0x1F DUP4 PUSH2 0x18E0 JUMP JUMPDEST SWAP2 POP PUSH2 0x1673 DUP3 PUSH2 0x1D7A JUMP JUMPDEST PUSH1 0x20 DUP3 ADD SWAP1 POP SWAP2 SWAP1 POP JUMP JUMPDEST PUSH2 0x1687 DUP2 PUSH2 0x1A07 JUMP JUMPDEST DUP3 MSTORE POP POP JUMP JUMPDEST PUSH1 0x0 PUSH1 0x20 DUP3 ADD SWAP1 POP PUSH2 0x16A2 PUSH1 0x0 DUP4 ADD DUP5 PUSH2 0x151E JUMP JUMPDEST SWAP3 SWAP2 POP POP JUMP JUMPDEST PUSH1 0x0 PUSH1 0xA0 DUP3 ADD SWAP1 POP PUSH2 0x16BD PUSH1 0x0 DUP4 ADD DUP9 PUSH2 0x151E JUMP JUMPDEST DUP2 DUP2 SUB PUSH1 0x20 DUP4 ADD MSTORE PUSH2 0x16CF DUP2 DUP8 PUSH2 0x152D JUMP JUMPDEST SWAP1 POP DUP2 DUP2 SUB PUSH1 0x40 DUP4 ADD MSTORE PUSH2 0x16E3 DUP2 DUP7 PUSH2 0x152D JUMP JUMPDEST SWAP1 POP PUSH2 0x16F2 PUSH1 0x60 DUP4 ADD DUP6 PUSH2 0x167E JUMP JUMPDEST PUSH2 0x16FF PUSH1 0x80 DUP4 ADD DUP5 PUSH2 0x167E JUMP JUMPDEST SWAP7 SWAP6 POP POP POP POP POP POP JUMP JUMPDEST PUSH1 0x0 PUSH1 0xC0 DUP3 ADD SWAP1 POP PUSH2 0x171E PUSH1 0x0 DUP4 ADD DUP10 PUSH2 0x151E JUMP JUMPDEST DUP2 DUP2 SUB PUSH1 0x20 DUP4 ADD MSTORE PUSH2 0x1730 DUP2 DUP9 PUSH2 0x152D JUMP JUMPDEST SWAP1 POP DUP2 DUP2 SUB PUSH1 0x40 DUP4 ADD MSTORE PUSH2 0x1744 DUP2 DUP8 PUSH2 0x152D JUMP JUMPDEST SWAP1 POP PUSH2 0x1753 PUSH1 0x60 DUP4 ADD DUP7 PUSH2 0x167E JUMP JUMPDEST PUSH2 0x1760 PUSH1 0x80 DUP4 ADD DUP6 PUSH2 0x167E JUMP JUMPDEST DUP2 DUP2 SUB PUSH1 0xA0 DUP4 ADD MSTORE PUSH2 0x1772 DUP2 DUP5 PUSH2 0x152D JUMP JUMPDEST SWAP1 POP SWAP8 SWAP7 POP POP POP POP POP POP POP JUMP JUMPDEST PUSH1 0x0 PUSH1 0x20 DUP3 ADD SWAP1 POP DUP2 DUP2 SUB PUSH1 0x0 DUP4 ADD MSTORE PUSH2 0x1798 DUP2 PUSH2 0x1566 JUMP JUMPDEST SWAP1 POP SWAP2 SWAP1 POP JUMP JUMPDEST PUSH1 0x0 PUSH1 0x20 DUP3 ADD SWAP1 POP DUP2 DUP2 SUB PUSH1 0x0 DUP4 ADD MSTORE PUSH2 0x17B8 DUP2 PUSH2 0x1589 JUMP JUMPDEST SWAP1 POP SWAP2 SWAP1 POP JUMP JUMPDEST PUSH1 0x0 PUSH1 0x20 DUP3 ADD SWAP1 POP DUP2 DUP2 SUB PUSH1 0x0 DUP4 ADD MSTORE PUSH2 0x17D8 DUP2 PUSH2 0x15AC JUMP JUMPDEST SWAP1 POP SWAP2 SWAP1 POP JUMP JUMPDEST PUSH1 0x0 PUSH1 0x20 DUP3 ADD SWAP1 POP DUP2 DUP2 SUB PUSH1 0x0 DUP4 ADD MSTORE PUSH2 0x17F8 DUP2 PUSH2 0x15CF JUMP JUMPDEST SWAP1 POP SWAP2 SWAP1 POP JUMP JUMPDEST PUSH1 0x0 PUSH1 0x20 DUP3 ADD SWAP1 POP DUP2 DUP2 SUB PUSH1 0x0 DUP4 ADD MSTORE PUSH2 0x1818 DUP2 PUSH2 0x15F2 JUMP JUMPDEST SWAP1 POP SWAP2 SWAP1 POP JUMP JUMPDEST PUSH1 0x0 PUSH1 0x20 DUP3 ADD SWAP1 POP DUP2 DUP2 SUB PUSH1 0x0 DUP4 ADD MSTORE PUSH2 0x1838 DUP2 PUSH2 0x1615 JUMP JUMPDEST SWAP1 POP SWAP2 SWAP1 POP JUMP JUMPDEST PUSH1 0x0 PUSH1 0x20 DUP3 ADD SWAP1 POP DUP2 DUP2 SUB PUSH1 0x0 DUP4 ADD MSTORE PUSH2 0x1858 DUP2 PUSH2 0x1638 JUMP JUMPDEST SWAP1 POP SWAP2 SWAP1 POP JUMP JUMPDEST PUSH1 0x0 PUSH1 0x20 DUP3 ADD SWAP1 POP DUP2 DUP2 SUB PUSH1 0x0 DUP4 ADD MSTORE PUSH2 0x1878 DUP2 PUSH2 0x165B JUMP JUMPDEST SWAP1 POP SWAP2 SWAP1 POP JUMP JUMPDEST PUSH1 0x0 PUSH2 0x1889 PUSH2 0x189A JUMP JUMPDEST SWAP1 POP PUSH2 0x1895 DUP3 DUP3 PUSH2 0x1A85 JUMP JUMPDEST SWAP2 SWAP1 POP JUMP JUMPDEST PUSH1 0x0 PUSH1 0x40 MLOAD SWAP1 POP SWAP1 JUMP JUMPDEST PUSH1 0x0 PUSH8 0xFFFFFFFFFFFFFFFF DUP3 GT ISZERO PUSH2 0x18BF JUMPI PUSH2 0x18BE PUSH2 0x1BBB JUMP JUMPDEST JUMPDEST PUSH2 0x18C8 DUP3 PUSH2 0x1BFE JUMP JUMPDEST SWAP1 POP PUSH1 0x20 DUP2 ADD SWAP1 POP SWAP2 SWAP1 POP JUMP JUMPDEST PUSH1 0x0 DUP2 MLOAD SWAP1 POP SWAP2 SWAP1 POP JUMP JUMPDEST PUSH1 0x0 DUP3 DUP3 MSTORE PUSH1 0x20 DUP3 ADD SWAP1 POP SWAP3 SWAP2 POP POP JUMP JUMPDEST PUSH1 0x0 PUSH2 0x18FC DUP3 PUSH2 0x1A07 JUMP JUMPDEST SWAP2 POP PUSH2 0x1907 DUP4 PUSH2 0x1A07 JUMP JUMPDEST SWAP3 POP DUP3 PUSH32 0xFFFFFFFFFFFFFFFFFFFFFFFFFFFFFFFFFFFFFFFFFFFFFFFFFFFFFFFFFFFFFFFF SUB DUP3 GT ISZERO PUSH2 0x193C JUMPI PUSH2 0x193B PUSH2 0x1AFF JUMP JUMPDEST JUMPDEST DUP3 DUP3 ADD SWAP1 POP SWAP3 SWAP2 POP POP JUMP JUMPDEST PUSH1 0x0 PUSH2 0x1952 DUP3 PUSH2 0x1A07 JUMP JUMPDEST SWAP2 POP PUSH2 0x195D DUP4 PUSH2 0x1A07 JUMP JUMPDEST SWAP3 POP DUP2 PUSH32 0xFFFFFFFFFFFFFFFFFFFFFFFFFFFFFFFFFFFFFFFFFFFFFFFFFFFFFFFFFFFFFFFF DIV DUP4 GT DUP3 ISZERO ISZERO AND ISZERO PUSH2 0x1996 JUMPI PUSH2 0x1995 PUSH2 0x1AFF JUMP JUMPDEST JUMPDEST DUP3 DUP3 MUL SWAP1 POP SWAP3 SWAP2 POP POP JUMP JUMPDEST PUSH1 0x0 PUSH2 0x19AC DUP3 PUSH2 0x1A07 JUMP JUMPDEST SWAP2 POP PUSH2 0x19B7 DUP4 PUSH2 0x1A07 JUMP JUMPDEST SWAP3 POP DUP3 DUP3 LT ISZERO PUSH2 0x19CA JUMPI PUSH2 0x19C9 PUSH2 0x1AFF JUMP JUMPDEST JUMPDEST DUP3 DUP3 SUB SWAP1 POP SWAP3 SWAP2 POP POP JUMP JUMPDEST PUSH1 0x0 PUSH2 0x19E0 DUP3 PUSH2 0x19E7 JUMP JUMPDEST SWAP1 POP SWAP2 SWAP1 POP JUMP JUMPDEST PUSH1 0x0 PUSH20 0xFFFFFFFFFFFFFFFFFFFFFFFFFFFFFFFFFFFFFFFF DUP3 AND SWAP1 POP SWAP2 SWAP1 POP JUMP JUMPDEST PUSH1 0x0 DUP2 SWAP1 POP SWAP2 SWAP1 POP JUMP JUMPDEST DUP3 DUP2 DUP4 CALLDATACOPY PUSH1 0x0 DUP4 DUP4 ADD MSTORE POP POP POP JUMP JUMPDEST PUSH1 0x0 JUMPDEST DUP4 DUP2 LT ISZERO PUSH2 0x1A3E JUMPI DUP1 DUP3 ADD MLOAD DUP2 DUP5 ADD MSTORE PUSH1 0x20 DUP2 ADD SWAP1 POP PUSH2 0x1A23 JUMP JUMPDEST DUP4 DUP2 GT ISZERO PUSH2 0x1A4D JUMPI PUSH1 0x0 DUP5 DUP5 ADD MSTORE JUMPDEST POP POP POP POP JUMP JUMPDEST PUSH1 0x0 PUSH1 0x2 DUP3 DIV SWAP1 POP PUSH1 0x1 DUP3 AND DUP1 PUSH2 0x1A6B JUMPI PUSH1 0x7F DUP3 AND SWAP2 POP JUMPDEST PUSH1 0x20 DUP3 LT DUP2 EQ ISZERO PUSH2 0x1A7F JUMPI PUSH2 0x1A7E PUSH2 0x1B2E JUMP JUMPDEST JUMPDEST POP SWAP2 SWAP1 POP JUMP JUMPDEST PUSH2 0x1A8E DUP3 PUSH2 0x1BFE JUMP JUMPDEST DUP2 ADD DUP2 DUP2 LT PUSH8 0xFFFFFFFFFFFFFFFF DUP3 GT OR ISZERO PUSH2 0x1AAD JUMPI PUSH2 0x1AAC PUSH2 0x1BBB JUMP JUMPDEST JUMPDEST DUP1 PUSH1 0x40 MSTORE POP POP POP JUMP JUMPDEST PUSH1 0x0 PUSH2 0x1AC1 DUP3 PUSH2 0x1A07 JUMP JUMPDEST SWAP2 POP PUSH32 0xFFFFFFFFFFFFFFFFFFFFFFFFFFFFFFFFFFFFFFFFFFFFFFFFFFFFFFFFFFFFFFFF DUP3 EQ ISZERO PUSH2 0x1AF4 JUMPI PUSH2 0x1AF3 PUSH2 0x1AFF JUMP JUMPDEST JUMPDEST PUSH1 0x1 DUP3 ADD SWAP1 POP SWAP2 SWAP1 POP JUMP JUMPDEST PUSH32 0x4E487B7100000000000000000000000000000000000000000000000000000000 PUSH1 0x0 MSTORE PUSH1 0x11 PUSH1 0x4 MSTORE PUSH1 0x24 PUSH1 0x0 REVERT JUMPDEST PUSH32 0x4E487B7100000000000000000000000000000000000000000000000000000000 PUSH1 0x0 MSTORE PUSH1 0x22 PUSH1 0x4 MSTORE PUSH1 0x24 PUSH1 0x0 REVERT JUMPDEST PUSH32 0x4E487B7100000000000000000000000000000000000000000000000000000000 PUSH1 0x0 MSTORE PUSH1 0x31 PUSH1 0x4 MSTORE PUSH1 0x24 PUSH1 0x0 REVERT JUMPDEST PUSH32 0x4E487B7100000000000000000000000000000000000000000000000000000000 PUSH1 0x0 MSTORE PUSH1 0x32 PUSH1 0x4 MSTORE PUSH1 0x24 PUSH1 0x0 REVERT JUMPDEST PUSH32 0x4E487B7100000000000000000000000000000000000000000000000000000000 PUSH1 0x0 MSTORE PUSH1 0x41 PUSH1 0x4 MSTORE PUSH1 0x24 PUSH1 0x0 REVERT JUMPDEST PUSH1 0x0 DUP1 REVERT JUMPDEST PUSH1 0x0 DUP1 REVERT JUMPDEST PUSH1 0x0 DUP1 REVERT JUMPDEST PUSH1 0x0 DUP1 REVERT JUMPDEST PUSH1 0x0 PUSH1 0x1F NOT PUSH1 0x1F DUP4 ADD AND SWAP1 POP SWAP2 SWAP1 POP JUMP JUMPDEST PUSH32 0x4F6E6C79206F776E65722063616E206163636573732074686973210000000000 PUSH1 0x0 DUP3 ADD MSTORE POP JUMP JUMPDEST PUSH32 0x416D6F756E7420657863656564206576656E74277320617661696C6162696C69 PUSH1 0x0 DUP3 ADD MSTORE PUSH32 0x74792E0000000000000000000000000000000000000000000000000000000000 PUSH1 0x20 DUP3 ADD MSTORE POP JUMP JUMPDEST PUSH32 0x4576656E74206973206E6F7420617661696C61626C652E000000000000000000 PUSH1 0x0 DUP3 ADD MSTORE POP JUMP JUMPDEST PUSH32 0x4576656E74207072696365206D757374206265206D6F7265207468616E203000 PUSH1 0x0 DUP3 ADD MSTORE POP JUMP JUMPDEST PUSH32 0x496E76616C6964206576656E7420616D6F756E742E0000000000000000000000 PUSH1 0x0 DUP3 ADD MSTORE POP JUMP JUMPDEST PUSH32 0x4F776E65722063616E206E6F742062757920616E79204576656E742E00000000 PUSH1 0x0 DUP3 ADD MSTORE POP JUMP JUMPDEST PUSH32 0x596F7520646F6E27742068617665207468652073756666696369656E74206D6F PUSH1 0x0 DUP3 ADD MSTORE PUSH32 0x6E65792E00000000000000000000000000000000000000000000000000000000 PUSH1 0x20 DUP3 ADD MSTORE POP JUMP JUMPDEST PUSH32 0x4576656E742073746F636B206D757374206265206D6F7265207468616E203000 PUSH1 0x0 DUP3 ADD MSTORE POP JUMP JUMPDEST PUSH2 0x1DAC DUP2 PUSH2 0x19D5 JUMP JUMPDEST DUP2 EQ PUSH2 0x1DB7 JUMPI PUSH1 0x0 DUP1 REVERT JUMPDEST POP JUMP JUMPDEST PUSH2 0x1DC3 DUP2 PUSH2 0x1A07 JUMP JUMPDEST DUP2 EQ PUSH2 0x1DCE JUMPI PUSH1 0x0 DUP1 REVERT JUMPDEST POP JUMP INVALID LOG2 PUSH5 0x6970667358 0x22 SLT KECCAK256 GAS PUSH25 0x21D057B7EA11B61439E55E7FEC53018E089519537D4396CC82 PUSH10 0x8D9689BC64736F6C6343 STOP ADDMOD SMOD STOP CALLER "
				},
				"gasEstimates": {
					"creation": {
						"codeDepositCost": "1537400",
						"executionCost": "25876",
						"totalCost": "1563276"
					},
					"external": {
						"addEvent(address,string,string,uint256,uint256)": "infinite",
						"addrList(uint256)": "4979",
						"buyEvent(address,uint256)": "infinite",
						"deleteEvent(address)": "infinite",
						"getEvent(address)": "infinite",
						"ownerAddress()": "2511",
						"updateEvent(address,string,string,uint256,uint256)": "infinite"
					}
				},
				"methodIdentifiers": {
					"addEvent(address,string,string,uint256,uint256)": "88fcb960",
					"addrList(uint256)": "80402564",
					"buyEvent(address,uint256)": "14a79b39",
					"deleteEvent(address)": "a35050d2",
					"getEvent(address)": "f10b97b6",
					"ownerAddress()": "8f84aa09",
					"updateEvent(address,string,string,uint256,uint256)": "c8179b9b"
				}
			},
			"storageLayout": {
				"storage": [
					{
						"astId": 16,
						"contract": "contracts/event.sol:EventContract",
						"label": "ownerAddress",
						"offset": 0,
						"slot": "0",
						"type": "t_address"
					},
					{
						"astId": 30,
						"contract": "contracts/event.sol:EventContract",
						"label": "eventData",
						"offset": 0,
						"slot": "1",
						"type": "t_mapping(t_address,t_struct(eventStruct)25_storage)"
					},
					{
						"astId": 33,
						"contract": "contracts/event.sol:EventContract",
						"label": "addrList",
						"offset": 0,
						"slot": "2",
						"type": "t_array(t_address)dyn_storage"
					}
				],
				"types": {
					"t_address": {
						"encoding": "inplace",
						"label": "address",
						"numberOfBytes": "20"
					},
					"t_array(t_address)dyn_storage": {
						"base": "t_address",
						"encoding": "dynamic_array",
						"label": "address[]",
						"numberOfBytes": "32"
					},
					"t_mapping(t_address,t_struct(eventStruct)25_storage)": {
						"encoding": "mapping",
						"key": "t_address",
						"label": "mapping(address => struct EventContract.eventStruct)",
						"numberOfBytes": "32",
						"value": "t_struct(eventStruct)25_storage"
					},
					"t_string_storage": {
						"encoding": "bytes",
						"label": "string",
						"numberOfBytes": "32"
					},
					"t_struct(eventStruct)25_storage": {
						"encoding": "inplace",
						"label": "struct EventContract.eventStruct",
						"members": [
							{
								"astId": 18,
								"contract": "contracts/event.sol:EventContract",
								"label": "name",
								"offset": 0,
								"slot": "0",
								"type": "t_string_storage"
							},
							{
								"astId": 20,
								"contract": "contracts/event.sol:EventContract",
								"label": "location",
								"offset": 0,
								"slot": "1",
								"type": "t_string_storage"
							},
							{
								"astId": 22,
								"contract": "contracts/event.sol:EventContract",
								"label": "stock",
								"offset": 0,
								"slot": "2",
								"type": "t_uint256"
							},
							{
								"astId": 24,
								"contract": "contracts/event.sol:EventContract",
								"label": "price",
								"offset": 0,
								"slot": "3",
								"type": "t_uint256"
							}
						],
						"numberOfBytes": "128"
					},
					"t_uint256": {
						"encoding": "inplace",
						"label": "uint256",
						"numberOfBytes": "32"
					}
				}
			},
			"userdoc": {
				"kind": "user",
				"methods": {},
				"version": 1
			}
		}
	}
}